{
  "contractName": "NFTToMiningPool",
  "abi": [
    {
      "inputs": [
        {
          "internalType": "address",
          "name": "vipNFT_",
          "type": "address"
        },
        {
          "internalType": "address",
          "name": "nftInvitation_",
          "type": "address"
        },
        {
          "internalType": "address",
          "name": "rewardtoken_",
          "type": "address"
        },
        {
          "internalType": "address",
          "name": "stakeToken_",
          "type": "address"
        },
        {
          "internalType": "uint256",
          "name": "rewardTotal_",
          "type": "uint256"
        },
        {
          "internalType": "uint256",
          "name": "duration_",
          "type": "uint256"
        },
        {
          "internalType": "uint256",
          "name": "starttime_",
          "type": "uint256"
        }
      ],
      "stateMutability": "nonpayable",
      "type": "constructor"
    },
    {
      "anonymous": false,
      "inputs": [
        {
          "indexed": true,
          "internalType": "address",
          "name": "account",
          "type": "address"
        }
      ],
      "name": "AdminAdded",
      "type": "event"
    },
    {
      "anonymous": false,
      "inputs": [
        {
          "indexed": true,
          "internalType": "address",
          "name": "account",
          "type": "address"
        }
      ],
      "name": "AdminRemoved",
      "type": "event"
    },
    {
      "anonymous": false,
      "inputs": [
        {
          "indexed": false,
          "internalType": "uint256",
          "name": "reward",
          "type": "uint256"
        }
      ],
      "name": "RewardAdded",
      "type": "event"
    },
    {
      "anonymous": false,
      "inputs": [
        {
          "indexed": true,
          "internalType": "address",
          "name": "user",
          "type": "address"
        },
        {
          "indexed": false,
          "internalType": "uint256",
          "name": "reward",
          "type": "uint256"
        }
      ],
      "name": "RewardPaid",
      "type": "event"
    },
    {
      "anonymous": false,
      "inputs": [
        {
          "indexed": true,
          "internalType": "address",
          "name": "user",
          "type": "address"
        },
        {
          "indexed": false,
          "internalType": "uint256",
          "name": "amount",
          "type": "uint256"
        }
      ],
      "name": "StakedTokenEvent",
      "type": "event"
    },
    {
      "anonymous": false,
      "inputs": [
        {
          "indexed": true,
          "internalType": "address",
          "name": "user",
          "type": "address"
        },
        {
          "indexed": false,
          "internalType": "uint256",
          "name": "amount",
          "type": "uint256"
        }
      ],
      "name": "WithdrawTokenEvent",
      "type": "event"
    },
    {
      "inputs": [
        {
          "internalType": "address",
          "name": "account",
          "type": "address"
        }
      ],
      "name": "addAdmin",
      "outputs": [],
      "stateMutability": "nonpayable",
      "type": "function"
    },
    {
      "inputs": [],
      "name": "allAdmins",
      "outputs": [
        {
          "internalType": "address[]",
          "name": "admins",
          "type": "address[]"
        }
      ],
      "stateMutability": "view",
      "type": "function",
      "constant": true
    },
    {
      "inputs": [
        {
          "internalType": "address",
          "name": "account",
          "type": "address"
        }
      ],
      "name": "balanceOf",
      "outputs": [
        {
          "internalType": "uint256",
          "name": "",
          "type": "uint256"
        }
      ],
      "stateMutability": "view",
      "type": "function",
      "constant": true
    },
    {
      "inputs": [],
      "name": "burnAddr",
      "outputs": [
        {
          "internalType": "address",
          "name": "",
          "type": "address"
        }
      ],
      "stateMutability": "view",
      "type": "function",
      "constant": true
    },
    {
      "inputs": [
        {
          "internalType": "address",
          "name": "",
          "type": "address"
        }
      ],
      "name": "deposits",
      "outputs": [
        {
          "internalType": "uint256",
          "name": "",
          "type": "uint256"
        }
      ],
      "stateMutability": "view",
      "type": "function",
      "constant": true
    },
    {
      "inputs": [],
      "name": "duration",
      "outputs": [
        {
          "internalType": "uint256",
          "name": "",
          "type": "uint256"
        }
      ],
      "stateMutability": "view",
      "type": "function",
      "constant": true
    },
    {
      "inputs": [
        {
          "internalType": "address",
          "name": "addr_",
          "type": "address"
        },
        {
          "internalType": "uint256",
          "name": "amount",
          "type": "uint256"
        }
      ],
      "name": "getThirdRewardCoin",
      "outputs": [],
      "stateMutability": "nonpayable",
      "type": "function"
    },
    {
      "inputs": [
        {
          "internalType": "address",
          "name": "account",
          "type": "address"
        }
      ],
      "name": "isAdmin",
      "outputs": [
        {
          "internalType": "bool",
          "name": "",
          "type": "bool"
        }
      ],
      "stateMutability": "view",
      "type": "function",
      "constant": true
    },
    {
      "inputs": [],
      "name": "lastTimeRewardApplicable",
      "outputs": [
        {
          "internalType": "uint256",
          "name": "",
          "type": "uint256"
        }
      ],
      "stateMutability": "view",
      "type": "function",
      "constant": true
    },
    {
      "inputs": [],
      "name": "lastUpdateTime",
      "outputs": [
        {
          "internalType": "uint256",
          "name": "",
          "type": "uint256"
        }
      ],
      "stateMutability": "view",
      "type": "function",
      "constant": true
    },
    {
      "inputs": [],
      "name": "periodFinish",
      "outputs": [
        {
          "internalType": "uint256",
          "name": "",
          "type": "uint256"
        }
      ],
      "stateMutability": "view",
      "type": "function",
      "constant": true
    },
    {
      "inputs": [
        {
          "internalType": "address",
          "name": "account",
          "type": "address"
        }
      ],
      "name": "removeAdmin",
      "outputs": [],
      "stateMutability": "nonpayable",
      "type": "function"
    },
    {
      "inputs": [],
      "name": "renounceAdmin",
      "outputs": [],
      "stateMutability": "nonpayable",
      "type": "function"
    },
    {
      "inputs": [],
      "name": "rewardPerToken",
      "outputs": [
        {
          "internalType": "uint256",
          "name": "",
          "type": "uint256"
        }
      ],
      "stateMutability": "view",
      "type": "function",
      "constant": true
    },
    {
      "inputs": [],
      "name": "rewardPerTokenStored",
      "outputs": [
        {
          "internalType": "uint256",
          "name": "",
          "type": "uint256"
        }
      ],
      "stateMutability": "view",
      "type": "function",
      "constant": true
    },
    {
      "inputs": [],
      "name": "rewardRate",
      "outputs": [
        {
          "internalType": "uint256",
          "name": "",
          "type": "uint256"
        }
      ],
      "stateMutability": "view",
      "type": "function",
      "constant": true
    },
    {
      "inputs": [],
      "name": "rewardToken",
      "outputs": [
        {
          "internalType": "contract IERC20",
          "name": "",
          "type": "address"
        }
      ],
      "stateMutability": "view",
      "type": "function",
      "constant": true
    },
    {
      "inputs": [],
      "name": "rewardTotal",
      "outputs": [
        {
          "internalType": "uint256",
          "name": "",
          "type": "uint256"
        }
      ],
      "stateMutability": "view",
      "type": "function",
      "constant": true
    },
    {
      "inputs": [
        {
          "internalType": "address",
          "name": "",
          "type": "address"
        }
      ],
      "name": "rewards",
      "outputs": [
        {
          "internalType": "uint256",
          "name": "",
          "type": "uint256"
        }
      ],
      "stateMutability": "view",
      "type": "function",
      "constant": true
    },
    {
      "inputs": [
        {
          "internalType": "address",
          "name": "addr_",
          "type": "address"
        }
      ],
      "name": "setRewardToken",
      "outputs": [],
      "stateMutability": "nonpayable",
      "type": "function"
    },
    {
      "inputs": [
        {
          "internalType": "address",
          "name": "_stakeToken",
          "type": "address"
        }
      ],
      "name": "setStakeToken",
      "outputs": [],
      "stateMutability": "nonpayable",
      "type": "function"
    },
    {
      "inputs": [
        {
          "internalType": "address",
          "name": "addr_",
          "type": "address"
        }
      ],
      "name": "setThirdRewardCoin",
      "outputs": [],
      "stateMutability": "nonpayable",
      "type": "function"
    },
    {
      "inputs": [
        {
          "internalType": "address",
          "name": "_thirdAddr",
          "type": "address"
        },
        {
          "internalType": "address",
          "name": "_thirdRewardCoin",
          "type": "address"
        },
        {
          "internalType": "uint256",
          "name": "_thirdPid",
          "type": "uint256"
        },
        {
          "internalType": "uint256",
          "name": "_stakeOpen",
          "type": "uint256"
        },
        {
          "internalType": "uint256",
          "name": "_withdrawOpen",
          "type": "uint256"
        }
      ],
      "name": "setThirdSwap",
      "outputs": [],
      "stateMutability": "nonpayable",
      "type": "function"
    },
    {
      "inputs": [
        {
          "internalType": "uint256",
          "name": "amount",
          "type": "uint256"
        }
      ],
      "name": "stakeAdmin",
      "outputs": [],
      "stateMutability": "nonpayable",
      "type": "function"
    },
    {
      "inputs": [],
      "name": "stakeToken",
      "outputs": [
        {
          "internalType": "contract IERC20",
          "name": "",
          "type": "address"
        }
      ],
      "stateMutability": "view",
      "type": "function",
      "constant": true
    },
    {
      "inputs": [],
      "name": "starttime",
      "outputs": [
        {
          "internalType": "uint256",
          "name": "",
          "type": "uint256"
        }
      ],
      "stateMutability": "view",
      "type": "function",
      "constant": true
    },
    {
      "inputs": [],
      "name": "thirdPid",
      "outputs": [
        {
          "internalType": "uint256",
          "name": "",
          "type": "uint256"
        }
      ],
      "stateMutability": "view",
      "type": "function",
      "constant": true
    },
    {
      "inputs": [],
      "name": "thirdRewardCoin",
      "outputs": [
        {
          "internalType": "contract IERC20",
          "name": "",
          "type": "address"
        }
      ],
      "stateMutability": "view",
      "type": "function",
      "constant": true
    },
    {
      "inputs": [],
      "name": "thirdSwap",
      "outputs": [
        {
          "internalType": "address",
          "name": "",
          "type": "address"
        }
      ],
      "stateMutability": "view",
      "type": "function",
      "constant": true
    },
    {
      "inputs": [],
      "name": "thirdSwapStakeOpen",
      "outputs": [
        {
          "internalType": "uint256",
          "name": "",
          "type": "uint256"
        }
      ],
      "stateMutability": "view",
      "type": "function",
      "constant": true
    },
    {
      "inputs": [],
      "name": "thirdSwapWithdrawOpen",
      "outputs": [
        {
          "internalType": "uint256",
          "name": "",
          "type": "uint256"
        }
      ],
      "stateMutability": "view",
      "type": "function",
      "constant": true
    },
    {
      "inputs": [],
      "name": "totalSupply",
      "outputs": [
        {
          "internalType": "uint256",
          "name": "",
          "type": "uint256"
        }
      ],
      "stateMutability": "view",
      "type": "function",
      "constant": true
    },
    {
      "inputs": [],
      "name": "totalSupplyThirdSwap",
      "outputs": [
        {
          "internalType": "uint256",
          "name": "",
          "type": "uint256"
        }
      ],
      "stateMutability": "view",
      "type": "function",
      "constant": true
    },
    {
      "inputs": [
        {
          "internalType": "address",
          "name": "addr_",
          "type": "address"
        },
        {
          "internalType": "uint256",
          "name": "amount",
          "type": "uint256"
        }
      ],
      "name": "transferRewardToken",
      "outputs": [],
      "stateMutability": "nonpayable",
      "type": "function"
    },
    {
      "inputs": [
        {
          "internalType": "uint256",
          "name": "periodFinish_",
          "type": "uint256"
        }
      ],
      "name": "updatePeriodFinish",
      "outputs": [],
      "stateMutability": "nonpayable",
      "type": "function"
    },
    {
      "inputs": [
        {
          "internalType": "uint256",
          "name": "rewardRate_",
          "type": "uint256"
        }
      ],
      "name": "updateRewardRate",
      "outputs": [],
      "stateMutability": "nonpayable",
      "type": "function"
    },
    {
      "inputs": [
        {
          "internalType": "uint256",
          "name": "rewardTotal_",
          "type": "uint256"
        }
      ],
      "name": "updateRewardTotal",
      "outputs": [],
      "stateMutability": "nonpayable",
      "type": "function"
    },
    {
      "inputs": [
        {
          "internalType": "uint256",
          "name": "starttime_",
          "type": "uint256"
        }
      ],
      "name": "updateStartTime",
      "outputs": [],
      "stateMutability": "nonpayable",
      "type": "function"
    },
    {
      "inputs": [
        {
          "internalType": "address",
          "name": "",
          "type": "address"
        }
      ],
      "name": "userRewardPerTokenPaid",
      "outputs": [
        {
          "internalType": "uint256",
          "name": "",
          "type": "uint256"
        }
      ],
      "stateMutability": "view",
      "type": "function",
      "constant": true
    },
    {
      "inputs": [],
      "name": "vipNFT",
      "outputs": [
        {
          "internalType": "contract IVipNFT",
          "name": "",
          "type": "address"
        }
      ],
      "stateMutability": "view",
      "type": "function",
      "constant": true
    },
    {
      "inputs": [
        {
          "internalType": "uint256",
          "name": "amount",
          "type": "uint256"
        }
      ],
      "name": "withdrawAdmin",
      "outputs": [],
      "stateMutability": "nonpayable",
      "type": "function"
    },
    {
      "inputs": [],
      "name": "myStake",
      "outputs": [
        {
          "internalType": "uint256",
          "name": "",
          "type": "uint256"
        },
        {
          "internalType": "uint256",
          "name": "",
          "type": "uint256"
        }
      ],
      "stateMutability": "view",
      "type": "function",
      "constant": true
    },
    {
      "inputs": [
        {
          "internalType": "address",
          "name": "account",
          "type": "address"
        }
      ],
      "name": "earned",
      "outputs": [
        {
          "internalType": "uint256",
          "name": "",
          "type": "uint256"
        }
      ],
      "stateMutability": "view",
      "type": "function",
      "constant": true
    },
    {
      "inputs": [
        {
          "internalType": "uint256",
          "name": "amount",
          "type": "uint256"
        },
        {
          "internalType": "uint256",
          "name": "_nftNo",
          "type": "uint256"
        }
      ],
      "name": "stake",
      "outputs": [],
      "stateMutability": "nonpayable",
      "type": "function"
    },
    {
      "inputs": [],
      "name": "withdrawAll",
      "outputs": [],
      "stateMutability": "nonpayable",
      "type": "function"
    },
    {
      "inputs": [
        {
          "internalType": "address",
          "name": "_owner",
          "type": "address"
        },
        {
          "internalType": "uint256",
          "name": "_extraAddR",
          "type": "uint256"
        }
      ],
      "name": "updateStakeToken",
      "outputs": [],
      "stateMutability": "nonpayable",
      "type": "function"
    },
    {
      "inputs": [],
      "name": "drawReward",
      "outputs": [],
      "stateMutability": "nonpayable",
      "type": "function"
    },
    {
      "inputs": [
        {
          "internalType": "contract IVipNFT",
          "name": "_vipNFT",
          "type": "address"
        }
      ],
      "name": "setVipNFT",
      "outputs": [],
      "stateMutability": "nonpayable",
      "type": "function"
    },
    {
      "inputs": [
        {
          "internalType": "contract INFTInvitation",
          "name": "_nftInvitation",
          "type": "address"
        }
      ],
      "name": "setNFTInvitation",
      "outputs": [],
      "stateMutability": "nonpayable",
      "type": "function"
    },
    {
      "inputs": [
        {
          "internalType": "address",
          "name": "_addr",
          "type": "address"
        }
      ],
      "name": "setBurnAddr",
      "outputs": [],
      "stateMutability": "nonpayable",
      "type": "function"
    }
  ],
  "bytecode": "0x6080604052600060045560006005556000600f5560006010553480156200002557600080fd5b506040516200245238038062002452833981016040819052620000489162000233565b62000053336200009e565b620000628585858585620000f1565b5050601880546001600160a01b039687166001600160a01b03199182161790915560168054959096169416939093179093555062000320915050565b620000b98160006200018860201b620013f41790919060201c565b506040516001600160a01b038216907f44d6d25963f097ad14f29f06854a01f575648a1ef82f30e562ccd3889717e33990600090a250565b600b80546001600160a01b038088166001600160a01b0319928316179092556007805492871692909116919091179055600e819055620001358262015180620002e8565b600d819055600c84905562000158908490620001a8602090811b6200140917901c565b601055600e546011819055600d546200017e9190620001b6602090811b6200141517901c565b600f555050505050565b60006200019f836001600160a01b038416620001c4565b90505b92915050565b60006200019f8284620002c7565b60006200019f8284620002ac565b60008181526001830160205260408120546200020d57508154600181810184556000848152602080822090930184905584548482528286019093526040902091909155620001a2565b506000620001a2565b80516001600160a01b03811681146200022e57600080fd5b919050565b600080600080600080600060e0888a0312156200024e578283fd5b620002598862000216565b9650620002696020890162000216565b9550620002796040890162000216565b9450620002896060890162000216565b93506080880151925060a0880151915060c0880151905092959891949750929550565b60008219821115620002c257620002c26200030a565b500190565b600082620002e357634e487b7160e01b81526012600452602481fd5b500490565b60008160001904831182151516156200030557620003056200030a565b500290565b634e487b7160e01b600052601160045260246000fd5b61212280620003306000396000f3fe608060405234801561001057600080fd5b50600436106102d55760003560e01c80638bc8772411610182578063c8f33c91116100e9578063e958a99f116100a2578063f4f1b14c1161007c578063f4f1b14c14610631578063f7c618c11461063a578063f959680b1461064d578063fc7e286d14610656576102d5565b8063e958a99f14610602578063ebe2b12b14610615578063edfc61a51461061e576102d5565b8063c8f33c91146105af578063ca9f81ca146105b8578063cd3daf9d146105cb578063d246d411146105d3578063d77836ce146105e6578063df136d65146105f9576102d5565b80639feb1cb91161013b5780639feb1cb914610548578063a4d330cb1461055b578063a65bdf561461056e578063a8f715af14610581578063aa36647214610594578063bd07651b1461059c576102d5565b80638bc87724146104da5780638da58897146104e2578063955cdfb1146104eb57806398145013146105195780639ef3a261146105225780639fad32a814610535576102d5565b806353a2fa4e116102415780637b0a47ee116101fa578063853828b6116101d4578063853828b6146104975780638aee81271461049f5780638b876347146104b25780638bad0c0a146104d2576102d5565b80637b0a47ee146104735780637b6e6f4c1461047c57806380faa57d1461048f576102d5565b806353a2fa4e146103f5578063556f6e6b146103fe578063704802751461041157806370a08231146104245780637ab685c91461044d5780637b0472f014610460576102d5565b806318160ddd1161029357806318160ddd14610364578063226b45871461036c57806324d7806c1461037f57806340f32be6146103a257806342453c9d146103b757806351ed6a30146103e2576102d5565b80628cc262146102da5780630397d4581461030057806306bcf02f146103155780630700037d146103285780630fb5a6b4146103485780631785f53c14610351575b600080fd5b6102ed6102e8366004611dac565b610676565b6040519081526020015b60405180910390f35b61031361030e366004611dac565b610731565b005b610313610323366004611e7f565b610781565b6102ed610336366004611dac565b60146020526000908152604090205481565b6102ed600d5481565b61031361035f366004611dac565b6107ab565b6102ed6107dc565b61031361037a366004611dac565b6107e3565b61039261038d366004611dac565b61082a565b60405190151581526020016102f7565b6103aa61083c565b6040516102f79190611f0f565b6002546103ca906001600160a01b031681565b6040516001600160a01b0390911681526020016102f7565b6007546103ca906001600160a01b031681565b6102ed60065481565b61031361040c366004611e7f565b610907565b61031361041f366004611dac565b610931565b6102ed610432366004611dac565b6001600160a01b03166000908152600a602052604090205490565b61031361045b366004611dac565b61095f565b61031361046e366004611eaf565b6109a6565b6102ed60105481565b61031361048a366004611e7f565b610c5d565b6102ed610c87565b610313610c9a565b6103136104ad366004611dac565b610dff565b6102ed6104c0366004611dac565b60136020526000908152604090205481565b610313610e46565b6009546102ed565b6102ed600e5481565b33600090815260176020908152604080832054600a83529281902054815193845291830191909152016102f7565b6102ed60045481565b610313610530366004611e7f565b610e51565b610313610543366004611e7f565b610e7b565b6018546103ca906001600160a01b031681565b610313610569366004611e34565b610ea9565b61031361057c366004611dac565b610ee9565b61031361058f366004611e34565b610f30565b610313611062565b6103136105aa366004611dac565b611281565b6102ed60115481565b6103136105c6366004611e34565b6112c8565b6102ed611304565b6019546103ca906001600160a01b031681565b6103136105f4366004611e7f565b611364565b6102ed60125481565b6003546103ca906001600160a01b031681565b6102ed600f5481565b61031361062c366004611de4565b611392565b6102ed60055481565b600b546103ca906001600160a01b031681565b6102ed600c5481565b6102ed610664366004611dac565b60156020526000908152604090205481565b60008061068283611421565b90506064601660009054906101000a90046001600160a01b03166001600160a01b031663e3a484b96040518163ffffffff1660e01b815260040160206040518083038186803b1580156106d457600080fd5b505afa1580156106e8573d6000803e3d6000fd5b505050506040513d601f19601f8201168201806040525081019061070c9190611e97565b6107169083612044565b6107209190612024565b61072a9082612063565b9392505050565b61073a3361082a565b61075f5760405162461bcd60e51b815260040161075690611fbe565b60405180910390fd5b600780546001600160a01b0319166001600160a01b0392909216919091179055565b61078a3361082a565b6107a65760405162461bcd60e51b815260040161075690611fbe565b600e55565b6107b43361082a565b6107d05760405162461bcd60e51b815260040161075690611fbe565b6107d98161148c565b50565b6008545b90565b6107ec3361082a565b6108085760405162461bcd60e51b815260040161075690611fbe565b600280546001600160a01b0319166001600160a01b0392909216919091179055565b600061083681836114cf565b92915050565b606061084860006114f1565b67ffffffffffffffff81111561086e57634e487b7160e01b600052604160045260246000fd5b604051908082528060200260200182016040528015610897578160200160208202803683370190505b50905060005b6108a760006114f1565b811015610903576108b96000826114fb565b8282815181106108d957634e487b7160e01b600052603260045260246000fd5b6001600160a01b0390921660209283029190910190910152806108fb816120a6565b91505061089d565b5090565b6109103361082a565b61092c5760405162461bcd60e51b815260040161075690611fbe565b600f55565b61093a3361082a565b6109565760405162461bcd60e51b815260040161075690611fbe565b6107d981611507565b6109683361082a565b6109845760405162461bcd60e51b815260040161075690611fbe565b601980546001600160a01b0319166001600160a01b0392909216919091179055565b336109af611304565b6012556109ba610c87565b6011556001600160a01b03811615610a01576109d581611421565b6001600160a01b0382166000908152601460209081526040808320939093556012546013909152919020555b600e54421015610a235760405162461bcd60e51b815260040161075690611f8f565b60008311610a735760405162461bcd60e51b815260206004820152601a60248201527f4d696e696e67506f6f6c3a2043616e6e6f74207374616b6520300000000000006044820152606401610756565b8115610b4b576018546040516331a9108f60e11b81526004810184905233916001600160a01b031690636352211e9060240160206040518083038186803b158015610abd57600080fd5b505afa158015610ad1573d6000803e3d6000fd5b505050506040513d601f19601f82011682018060405250810190610af59190611dc8565b6001600160a01b031614610b4b5760405162461bcd60e51b815260206004820152601b60248201527f4d696e696e67506f6f6c3a206e6674206f776e6572206572726f7200000000006044820152606401610756565b600754610b63906001600160a01b031633308661154a565b601854604051631e6e7eaf60e01b8152600481018490526000916001600160a01b031690631e6e7eaf9060240160206040518083038186803b158015610ba857600080fd5b505afa158015610bbc573d6000803e3d6000fd5b505050506040513d601f19601f82011682018060405250810190610be09190611e97565b9050610c0b336064610bf28488612044565b610bfc9190612024565b610c06908761200c565b6115bb565b3360008181526017602052604090819020869055517f704c8fe7bb7cc680f6a7d88271780d7f48765c2bc8344130f41dcb80da16401e90610c4f9087815260200190565b60405180910390a250505050565b610c663361082a565b610c825760405162461bcd60e51b815260040161075690611fbe565b600c55565b6000610c9542600f5461160e565b905090565b33610ca3611304565b601255610cae610c87565b6011556001600160a01b03811615610cf557610cc981611421565b6001600160a01b0382166000908152601460209081526040808320939093556012546013909152919020555b600e54421015610d175760405162461bcd60e51b815260040161075690611f8f565b33600090815260176020526040902054610d6b5760405162461bcd60e51b815260206004820152601560248201527404d696e696e67506f6f6c3a2062616c616e6365203605c1b6044820152606401610756565b336000818152601760205260409020546007549091610d94916001600160a01b03169083611624565b336000818152600a6020526040902054610daf91905b611654565b3360008181526017602052604080822091909155517f33052e7857076b0fe2659b8d1bbe98f9a6c51cd43780f733dde08f81b2ca945890610df39084815260200190565b60405180910390a25050565b610e083361082a565b610e245760405162461bcd60e51b815260040161075690611fbe565b600b80546001600160a01b0319166001600160a01b0392909216919091179055565b610e4f3361148c565b565b610e5a3361082a565b610e765760405162461bcd60e51b815260040161075690611fbe565b601055565b610e843361082a565b610ea05760405162461bcd60e51b815260040161075690611fbe565b6107d9816116fb565b610eb23361082a565b610ece5760405162461bcd60e51b815260040161075690611fbe565b600254610ee5906001600160a01b03168383611624565b5050565b610ef23361082a565b610f0e5760405162461bcd60e51b815260040161075690611fbe565b601680546001600160a01b0319166001600160a01b0392909216919091179055565b610f393361082a565b610f555760405162461bcd60e51b815260040161075690611fbe565b81610f5e611304565b601255610f69610c87565b6011556001600160a01b03811615610fb057610f8481611421565b6001600160a01b0382166000908152601460209081526040808320939093556012546013909152919020555b6001600160a01b0383166000908152601760205260409020541561105d576001600160a01b0383166000908152600a60209081526040808320546017909252822054909190606490611003908690612044565b61100d9190612024565b6001600160a01b038616600090815260176020526040902054611030919061200c565b905080821161104c5761104785610c068484612063565b61105a565b61105a85610daa8385612063565b50505b505050565b3361106b611304565b601255611076610c87565b6011556001600160a01b038116156110bd5761109181611421565b6001600160a01b0382166000908152601460209081526040808320939093556012546013909152919020555b600e544210156110df5760405162461bcd60e51b815260040161075690611f8f565b60006110ea33611421565b60185460405163a84a507160e01b81523360048201529192506000916001600160a01b039091169063a84a50719060240160206040518083038186803b15801561113357600080fd5b505afa158015611147573d6000803e3d6000fd5b505050506040513d601f19601f8201168201806040525081019061116b9190611e97565b601654604051633594284960e21b8152600481018390526024810185905291925060009182916001600160a01b03169063d650a124906044016040805180830381600087803b1580156111bd57600080fd5b505af11580156111d1573d6000803e3d6000fd5b505050506040513d601f19601f820116820180604052508101906111f59190611ed0565b33600081815260146020526040812055600b54929450909250611222916001600160a01b03169084611624565b801561124557601954600b54611245916001600160a01b03918216911683611624565b60405184815233907fe2403640ba68fed3a2f88b7557551d1993f84b99bb10ff833f0cf8db0c5e04869060200160405180910390a25050505050565b61128a3361082a565b6112a65760405162461bcd60e51b815260040161075690611fbe565b601880546001600160a01b0319166001600160a01b0392909216919091179055565b6112d13361082a565b6112ed5760405162461bcd60e51b815260040161075690611fbe565b600b54610ee5906001600160a01b03168383611624565b600061130e6107dc565b61131b57506012546107e0565b610c9561135b6113296107dc565b611355670de0b6b3a764000061134f60105461134f601154611349610c87565b9061179e565b906117aa565b90611409565b60125490611415565b61136d3361082a565b6113895760405162461bcd60e51b815260040161075690611fbe565b6107d9816117b6565b61139b3361082a565b6113b75760405162461bcd60e51b815260040161075690611fbe565b600380546001600160a01b039687166001600160a01b03199182161790915560069390935560049190915560055560028054929093169116179055565b600061072a836001600160a01b038416611829565b600061072a8284612024565b600061072a828461200c565b6001600160a01b0381166000908152601460209081526040808320546013909252822054610836919061148690670de0b6b3a7640000906113559061146890611349611304565b6001600160a01b0388166000908152600a602052604090205461134f565b90611415565b611497600082611878565b506040516001600160a01b038216907fa3b62bc36326052d97ea62d63c3d60308ed4c3ea8ac079dd8499f1e9c4f80c0f90600090a250565b6001600160a01b0381166000908152600183016020526040812054151561072a565b6000610836825490565b600061072a838361188d565b6115126000826113f4565b506040516001600160a01b038216907f44d6d25963f097ad14f29f06854a01f575648a1ef82f30e562ccd3889717e33990600090a250565b6040516001600160a01b03808516602483015283166044820152606481018290526115b59085906323b872dd60e01b906084015b60408051601f198184030181529190526020810180516001600160e01b03166001600160e01b031990931692909217909152611921565b50505050565b6008546115c89082611415565b6008556001600160a01b0382166000908152600a60205260409020546115ee9082611415565b6001600160a01b039092166000908152600a602052604090209190915550565b600081831061161d578161072a565b5090919050565b6040516001600160a01b03831660248201526044810182905261105d90849063a9059cbb60e01b9060640161157e565b6001600160a01b0382166000908152600a60205260409020548111156116c85760405162461bcd60e51b815260206004820152602360248201527f546f6b656e577261707065723a2043616e6e6f7420776974686472617753696d604482015262706c6560e81b6064820152608401610756565b6008546116d5908261179e565b6008556001600160a01b0382166000908152600a60205260409020546115ee908261179e565b600454611707576107d9565b6009546117149082611415565b600955600354600754611734916001600160a01b039182169116836119f3565b600354600654604051631c57762b60e31b81526001600160a01b039092169163e2bbb15891611770918590600401918252602082015260400190565b600060405180830381600087803b15801561178a57600080fd5b505af115801561105a573d6000803e3d6000fd5b600061072a8284612063565b600061072a8284612044565b6005546117c2576107d9565b6009546117ce576107d9565b6009548111156117dd57506009545b6009546117ea908261179e565b600955600354600654604051630441a3e760e41b81526001600160a01b039092169163441a3e7091611770918590600401918252602082015260400190565b600081815260018301602052604081205461187057508154600181810184556000848152602080822090930184905584548482528286019093526040902091909155610836565b506000610836565b600061072a836001600160a01b038416611b17565b815460009082106118eb5760405162461bcd60e51b815260206004820152602260248201527f456e756d657261626c655365743a20696e646578206f7574206f6620626f756e604482015261647360f01b6064820152608401610756565b82600001828154811061190e57634e487b7160e01b600052603260045260246000fd5b9060005260206000200154905092915050565b6000611976826040518060400160405280602081526020017f5361666545524332303a206c6f772d6c6576656c2063616c6c206661696c6564815250856001600160a01b0316611c349092919063ffffffff16565b80519091501561105d57808060200190518101906119949190611e5f565b61105d5760405162461bcd60e51b815260206004820152602a60248201527f5361666545524332303a204552433230206f7065726174696f6e20646964206e6044820152691bdd081cdd58d8d9595960b21b6064820152608401610756565b801580611a7c5750604051636eb1769f60e11b81523060048201526001600160a01b03838116602483015284169063dd62ed3e9060440160206040518083038186803b158015611a4257600080fd5b505afa158015611a56573d6000803e3d6000fd5b505050506040513d601f19601f82011682018060405250810190611a7a9190611e97565b155b611ae75760405162461bcd60e51b815260206004820152603660248201527f5361666545524332303a20617070726f76652066726f6d206e6f6e2d7a65726f60448201527520746f206e6f6e2d7a65726f20616c6c6f77616e636560501b6064820152608401610756565b6040516001600160a01b03831660248201526044810182905261105d90849063095ea7b360e01b9060640161157e565b60008181526001830160205260408120548015611c2a576000611b3b600183612063565b8554909150600090611b4f90600190612063565b90506000866000018281548110611b7657634e487b7160e01b600052603260045260246000fd5b9060005260206000200154905080876000018481548110611ba757634e487b7160e01b600052603260045260246000fd5b600091825260209091200155611bbe83600161200c565b60008281526001890160205260409020558654879080611bee57634e487b7160e01b600052603160045260246000fd5b60019003818190600052602060002001600090559055866001016000878152602001908152602001600020600090556001945050505050610836565b6000915050610836565b6060611c438484600085611c4b565b949350505050565b606082471015611cac5760405162461bcd60e51b815260206004820152602660248201527f416464726573733a20696e73756666696369656e742062616c616e636520666f6044820152651c8818d85b1b60d21b6064820152608401610756565b843b611cfa5760405162461bcd60e51b815260206004820152601d60248201527f416464726573733a2063616c6c20746f206e6f6e2d636f6e74726163740000006044820152606401610756565b600080866001600160a01b03168587604051611d169190611ef3565b60006040518083038185875af1925050503d8060008114611d53576040519150601f19603f3d011682016040523d82523d6000602084013e611d58565b606091505b5091509150611d68828286611d73565b979650505050505050565b60608315611d8257508161072a565b825115611d925782518084602001fd5b8160405162461bcd60e51b81526004016107569190611f5c565b600060208284031215611dbd578081fd5b813561072a816120d7565b600060208284031215611dd9578081fd5b815161072a816120d7565b600080600080600060a08688031215611dfb578081fd5b8535611e06816120d7565b94506020860135611e16816120d7565b94979496505050506040830135926060810135926080909101359150565b60008060408385031215611e46578182fd5b8235611e51816120d7565b946020939093013593505050565b600060208284031215611e70578081fd5b8151801515811461072a578182fd5b600060208284031215611e90578081fd5b5035919050565b600060208284031215611ea8578081fd5b5051919050565b60008060408385031215611ec1578182fd5b50508035926020909101359150565b60008060408385031215611ee2578182fd5b505080516020909101519092909150565b60008251611f0581846020870161207a565b9190910192915050565b6020808252825182820181905260009190848201906040850190845b81811015611f505783516001600160a01b031683529284019291840191600101611f2b565b50909695505050505050565b6000602082528251806020840152611f7b81604085016020870161207a565b601f01601f19169190910160400192915050565b602080825260159082015274135a5b9a5b99d41bdbdb0e881b9bdd081cdd185c9d605a1b604082015260600190565b6020808252602e908201527f41646d696e526f6c653a2063616c6c657220646f6573206e6f7420686176652060408201526d7468652041646d696e20726f6c6560901b606082015260800190565b6000821982111561201f5761201f6120c1565b500190565b60008261203f57634e487b7160e01b81526012600452602481fd5b500490565b600081600019048311821515161561205e5761205e6120c1565b500290565b600082821015612075576120756120c1565b500390565b60005b8381101561209557818101518382015260200161207d565b838111156115b55750506000910152565b60006000198214156120ba576120ba6120c1565b5060010190565b634e487b7160e01b600052601160045260246000fd5b6001600160a01b03811681146107d957600080fdfea2646970667358221220110896a4c03b9bd97b5ecbe699e779ee9cfc3af9052c84e16a91a9bc060f9e9964736f6c63430008030033",
  "immutableReferences": {},
  "source": "// SPDX-License-Identifier: MIT\npragma solidity >=0.8.0 <0.9.0;\nimport \"@openzeppelin/contracts/utils/math/Math.sol\";\nimport \"@openzeppelin/contracts/utils/math/SafeMath.sol\";\nimport \"@openzeppelin/contracts/token/ERC20/IERC20.sol\";\nimport \"@openzeppelin/contracts/utils/Address.sol\";\nimport \"@openzeppelin/contracts/token/ERC20/utils/SafeERC20.sol\";\n\nimport \"../interface/IVipNFT.sol\";\nimport \"../base/BaseMiningPool.sol\";\nimport \"../interface/INFTInvitation.sol\";\n\n\ncontract NFTToMiningPool is BaseMiningPool\n{\n    using SafeMath for uint256;\n    using SafeERC20 for IERC20;\n\n    event RewardAdded(uint256 reward);\n    event StakedTokenEvent(address indexed user, uint256 amount);\n    event WithdrawTokenEvent(address indexed user, uint256 amount);\n    event RewardPaid(address indexed user, uint256 reward);\n\n    INFTInvitation nftInvitation;\n    mapping(address => uint256) private _tokenBalanceOf;    // token\n    IVipNFT public vipNFT;\n    address public burnAddr;\n\n    constructor(\n        address vipNFT_,\n        address nftInvitation_,\n        address rewardtoken_,\n        address stakeToken_,\n        uint256 rewardTotal_,\n        uint256 duration_,\n        uint256 starttime_\n    ) {\n        _initPool(\n            rewardtoken_,\n            stakeToken_,\n            rewardTotal_,\n            duration_,\n            starttime_\n        );\n        vipNFT = IVipNFT(vipNFT_);\n        nftInvitation = INFTInvitation(nftInvitation_);\n    }\n\n    function myStake() public view returns (uint256, uint256) {\n        return (_tokenBalanceOf[msg.sender], balanceOf(msg.sender));\n    }\n\n    // sender \n    function earned(address account)\n        public view virtual override\n        returns (uint256)\n    {\n        uint256 _rwdV = _earned(account);\n        return _rwdV - _rwdV * nftInvitation.directRewardRate() / 100;\n    }\n\n    // LP\n    // stake visibility is public as overriding LPTokenWrapper's stake() function\n    function stake(uint256 amount, uint256 _nftNo)\n        public\n        updateReward(msg.sender)\n        checkStart\n    {\n        // NFT\n        require(amount > 0, \"MiningPool: Cannot stake 0\");\n        // NFT\n        if (_nftNo > 0){\n            require(vipNFT.ownerOf(_nftNo) == msg.sender, \"MiningPool: nft owner error\");\n        }\n\n        // LPpool\n        stakeToken.safeTransferFrom(msg.sender, address(this), amount);\n        // LP\n        uint256 extraRate = vipNFT.getNFTExtraAddRate(_nftNo);\n        _tokenStakeSimple(msg.sender, amount + amount * extraRate / 100);\n\n        _tokenBalanceOf[msg.sender] = amount;      // \n        emit StakedTokenEvent(msg.sender, amount);\n    }\n\n    // \n    function withdrawAll()\n        public\n        updateReward(msg.sender)\n        checkStart\n    {\n        require(_tokenBalanceOf[msg.sender] > 0, \"MiningPool: balance 0\");\n\n        uint256 amount = _tokenBalanceOf[msg.sender];\n        stakeToken.safeTransfer(msg.sender, amount);\n        _tokenWithdrawSimple(msg.sender, balanceOf(msg.sender));\n\n        _tokenBalanceOf[msg.sender] = 0;    // \n\n        emit WithdrawTokenEvent(msg.sender, amount);\n    }\n\n    // \n    function updateStakeToken(address _owner, uint256 _extraAddR)\n        public onlyAdmin updateReward(_owner)\n    {\n        if (_tokenBalanceOf[_owner] > 0) {\n            uint256 oldBalance = balanceOf(_owner);\n            uint256 newBalance = _tokenBalanceOf[_owner] + _tokenBalanceOf[_owner] * _extraAddR / 100;\n            if (oldBalance <= newBalance){\n                _tokenStakeSimple(_owner, newBalance - oldBalance);\n            } else {\n                _tokenWithdrawSimple(_owner, oldBalance - newBalance);\n            }\n        }\n    }\n\n    // \n    function drawReward() public updateReward(msg.sender) checkStart {\n        // sender \n        uint256 reward = _earned(msg.sender);\n        // \n        uint256 _nftNo = vipNFT.getOwnerNFTNo(msg.sender);\n        (uint256 _otherRwd, uint256 _burnRwd) = nftInvitation.allocDirectReward(_nftNo, reward);\n        // sender \n        rewards[msg.sender] = 0;\n        // sender\n        rewardToken.safeTransfer(msg.sender, _otherRwd);\n        // burn\n        if (_burnRwd > 0) {\n            rewardToken.safeTransfer(burnAddr, _burnRwd);\n        }\n        emit RewardPaid(msg.sender, reward);\n    }\n\n    function setVipNFT(IVipNFT _vipNFT)\n        public onlyAdmin\n    {\n        vipNFT = _vipNFT;\n    }\n\n    function setNFTInvitation(INFTInvitation _nftInvitation)\n        public onlyAdmin\n    {\n        nftInvitation = _nftInvitation;\n    }\n\n\n    function setBurnAddr(address _addr)\n        public onlyAdmin\n    {\n        burnAddr = _addr;\n    }\n\n}\n",
  "sourcePath": "/Users/xingchen/blockchain/joinswap/joinvipnft/contracts/pool/NFTToMiningPool.sol",
  "compiler": {
    "name": "solc",
    "version": "0.8.3+commit.8d00100c.Emscripten.clang"
  },
  "schemaVersion": "3.3.4",
  "updatedAt": "2021-05-19T05:56:47.150Z",
  "networkType": "ethereum",
  "devdoc": {
    "kind": "dev",
    "methods": {
      "addAdmin(address)": {
        "details": "",
        "params": {
          "account": ""
        }
      },
      "allAdmins()": {
        "details": "",
        "returns": {
          "admins": ""
        }
      },
      "isAdmin(address)": {
        "details": "",
        "params": {
          "account": ""
        },
        "returns": {
          "_0": ""
        }
      },
      "removeAdmin(address)": {
        "details": "",
        "params": {
          "account": ""
        }
      },
      "renounceAdmin()": {
        "details": ""
      }
    },
    "version": 1
  },
  "userdoc": {
    "kind": "user",
    "methods": {},
    "version": 1
  }
}