{
  "contractName": "HecoPool",
  "abi": [
    {
      "inputs": [
        {
          "internalType": "contract IJoin",
          "name": "_join",
          "type": "address"
        },
        {
          "internalType": "uint256",
          "name": "_joinPerBlock",
          "type": "uint256"
        },
        {
          "internalType": "uint256",
          "name": "_startBlock",
          "type": "uint256"
        }
      ],
      "stateMutability": "nonpayable",
      "type": "constructor"
    },
    {
      "anonymous": false,
      "inputs": [
        {
          "indexed": true,
          "internalType": "address",
          "name": "user",
          "type": "address"
        },
        {
          "indexed": true,
          "internalType": "uint256",
          "name": "pid",
          "type": "uint256"
        },
        {
          "indexed": false,
          "internalType": "uint256",
          "name": "amount",
          "type": "uint256"
        }
      ],
      "name": "Deposit",
      "type": "event"
    },
    {
      "anonymous": false,
      "inputs": [
        {
          "indexed": true,
          "internalType": "address",
          "name": "user",
          "type": "address"
        },
        {
          "indexed": true,
          "internalType": "uint256",
          "name": "pid",
          "type": "uint256"
        },
        {
          "indexed": false,
          "internalType": "uint256",
          "name": "amount",
          "type": "uint256"
        }
      ],
      "name": "EmergencyWithdraw",
      "type": "event"
    },
    {
      "anonymous": false,
      "inputs": [
        {
          "indexed": true,
          "internalType": "address",
          "name": "previousOwner",
          "type": "address"
        },
        {
          "indexed": true,
          "internalType": "address",
          "name": "newOwner",
          "type": "address"
        }
      ],
      "name": "OwnershipTransferred",
      "type": "event"
    },
    {
      "anonymous": false,
      "inputs": [
        {
          "indexed": true,
          "internalType": "address",
          "name": "user",
          "type": "address"
        },
        {
          "indexed": true,
          "internalType": "uint256",
          "name": "pid",
          "type": "uint256"
        },
        {
          "indexed": false,
          "internalType": "uint256",
          "name": "amount",
          "type": "uint256"
        }
      ],
      "name": "Withdraw",
      "type": "event"
    },
    {
      "inputs": [
        {
          "internalType": "address",
          "name": "",
          "type": "address"
        }
      ],
      "name": "LpOfPid",
      "outputs": [
        {
          "internalType": "uint256",
          "name": "",
          "type": "uint256"
        }
      ],
      "stateMutability": "view",
      "type": "function",
      "constant": true
    },
    {
      "inputs": [],
      "name": "join",
      "outputs": [
        {
          "internalType": "contract IJoin",
          "name": "",
          "type": "address"
        }
      ],
      "stateMutability": "view",
      "type": "function",
      "constant": true
    },
    {
      "inputs": [],
      "name": "joinPerBlock",
      "outputs": [
        {
          "internalType": "uint256",
          "name": "",
          "type": "uint256"
        }
      ],
      "stateMutability": "view",
      "type": "function",
      "constant": true
    },
    {
      "inputs": [],
      "name": "multLpChef",
      "outputs": [
        {
          "internalType": "address",
          "name": "",
          "type": "address"
        }
      ],
      "stateMutability": "view",
      "type": "function",
      "constant": true
    },
    {
      "inputs": [],
      "name": "multLpToken",
      "outputs": [
        {
          "internalType": "address",
          "name": "",
          "type": "address"
        }
      ],
      "stateMutability": "view",
      "type": "function",
      "constant": true
    },
    {
      "inputs": [],
      "name": "owner",
      "outputs": [
        {
          "internalType": "address",
          "name": "",
          "type": "address"
        }
      ],
      "stateMutability": "view",
      "type": "function",
      "constant": true
    },
    {
      "inputs": [],
      "name": "paused",
      "outputs": [
        {
          "internalType": "bool",
          "name": "",
          "type": "bool"
        }
      ],
      "stateMutability": "view",
      "type": "function",
      "constant": true
    },
    {
      "inputs": [
        {
          "internalType": "uint256",
          "name": "",
          "type": "uint256"
        }
      ],
      "name": "poolCorrespond",
      "outputs": [
        {
          "internalType": "uint256",
          "name": "",
          "type": "uint256"
        }
      ],
      "stateMutability": "view",
      "type": "function",
      "constant": true
    },
    {
      "inputs": [
        {
          "internalType": "uint256",
          "name": "",
          "type": "uint256"
        }
      ],
      "name": "poolInfo",
      "outputs": [
        {
          "internalType": "contract IERC20",
          "name": "lpToken",
          "type": "address"
        },
        {
          "internalType": "uint256",
          "name": "allocPoint",
          "type": "uint256"
        },
        {
          "internalType": "uint256",
          "name": "lastRewardBlock",
          "type": "uint256"
        },
        {
          "internalType": "uint256",
          "name": "accJoinPerShare",
          "type": "uint256"
        },
        {
          "internalType": "uint256",
          "name": "accMultLpPerShare",
          "type": "uint256"
        },
        {
          "internalType": "uint256",
          "name": "totalAmount",
          "type": "uint256"
        }
      ],
      "stateMutability": "view",
      "type": "function",
      "constant": true
    },
    {
      "inputs": [],
      "name": "renounceOwnership",
      "outputs": [],
      "stateMutability": "nonpayable",
      "type": "function"
    },
    {
      "inputs": [],
      "name": "startBlock",
      "outputs": [
        {
          "internalType": "uint256",
          "name": "",
          "type": "uint256"
        }
      ],
      "stateMutability": "view",
      "type": "function",
      "constant": true
    },
    {
      "inputs": [],
      "name": "totalAllocPoint",
      "outputs": [
        {
          "internalType": "uint256",
          "name": "",
          "type": "uint256"
        }
      ],
      "stateMutability": "view",
      "type": "function",
      "constant": true
    },
    {
      "inputs": [
        {
          "internalType": "address",
          "name": "newOwner",
          "type": "address"
        }
      ],
      "name": "transferOwnership",
      "outputs": [],
      "stateMutability": "nonpayable",
      "type": "function"
    },
    {
      "inputs": [
        {
          "internalType": "uint256",
          "name": "",
          "type": "uint256"
        },
        {
          "internalType": "address",
          "name": "",
          "type": "address"
        }
      ],
      "name": "userInfo",
      "outputs": [
        {
          "internalType": "uint256",
          "name": "amount",
          "type": "uint256"
        },
        {
          "internalType": "uint256",
          "name": "rewardDebt",
          "type": "uint256"
        },
        {
          "internalType": "uint256",
          "name": "multLpRewardDebt",
          "type": "uint256"
        }
      ],
      "stateMutability": "view",
      "type": "function",
      "constant": true
    },
    {
      "inputs": [
        {
          "internalType": "contract IJoin",
          "name": "_join",
          "type": "address"
        }
      ],
      "name": "setJoin",
      "outputs": [],
      "stateMutability": "nonpayable",
      "type": "function"
    },
    {
      "inputs": [
        {
          "internalType": "uint256",
          "name": "_newPerBlock",
          "type": "uint256"
        }
      ],
      "name": "setJoinPerBlock",
      "outputs": [],
      "stateMutability": "nonpayable",
      "type": "function"
    },
    {
      "inputs": [],
      "name": "poolLength",
      "outputs": [
        {
          "internalType": "uint256",
          "name": "",
          "type": "uint256"
        }
      ],
      "stateMutability": "view",
      "type": "function",
      "constant": true
    },
    {
      "inputs": [
        {
          "internalType": "address",
          "name": "_addLP",
          "type": "address"
        }
      ],
      "name": "addMultLP",
      "outputs": [
        {
          "internalType": "bool",
          "name": "",
          "type": "bool"
        }
      ],
      "stateMutability": "nonpayable",
      "type": "function"
    },
    {
      "inputs": [
        {
          "internalType": "address",
          "name": "_LP",
          "type": "address"
        }
      ],
      "name": "isMultLP",
      "outputs": [
        {
          "internalType": "bool",
          "name": "",
          "type": "bool"
        }
      ],
      "stateMutability": "view",
      "type": "function",
      "constant": true
    },
    {
      "inputs": [],
      "name": "getMultLPLength",
      "outputs": [
        {
          "internalType": "uint256",
          "name": "",
          "type": "uint256"
        }
      ],
      "stateMutability": "view",
      "type": "function",
      "constant": true
    },
    {
      "inputs": [
        {
          "internalType": "uint256",
          "name": "_pid",
          "type": "uint256"
        }
      ],
      "name": "getMultLPAddress",
      "outputs": [
        {
          "internalType": "address",
          "name": "",
          "type": "address"
        }
      ],
      "stateMutability": "view",
      "type": "function",
      "constant": true
    },
    {
      "inputs": [],
      "name": "setPause",
      "outputs": [],
      "stateMutability": "nonpayable",
      "type": "function"
    },
    {
      "inputs": [
        {
          "internalType": "address",
          "name": "_multLpToken",
          "type": "address"
        },
        {
          "internalType": "address",
          "name": "_multLpChef",
          "type": "address"
        }
      ],
      "name": "setMultLP",
      "outputs": [],
      "stateMutability": "nonpayable",
      "type": "function"
    },
    {
      "inputs": [
        {
          "internalType": "address",
          "name": "_multLpToken",
          "type": "address"
        },
        {
          "internalType": "address",
          "name": "_multLpChef",
          "type": "address"
        }
      ],
      "name": "replaceMultLP",
      "outputs": [],
      "stateMutability": "nonpayable",
      "type": "function"
    },
    {
      "inputs": [
        {
          "internalType": "uint256",
          "name": "_allocPoint",
          "type": "uint256"
        },
        {
          "internalType": "contract IERC20",
          "name": "_lpToken",
          "type": "address"
        },
        {
          "internalType": "bool",
          "name": "_withUpdate",
          "type": "bool"
        }
      ],
      "name": "add",
      "outputs": [],
      "stateMutability": "nonpayable",
      "type": "function"
    },
    {
      "inputs": [
        {
          "internalType": "uint256",
          "name": "_pid",
          "type": "uint256"
        },
        {
          "internalType": "uint256",
          "name": "_allocPoint",
          "type": "uint256"
        },
        {
          "internalType": "bool",
          "name": "_withUpdate",
          "type": "bool"
        }
      ],
      "name": "set",
      "outputs": [],
      "stateMutability": "nonpayable",
      "type": "function"
    },
    {
      "inputs": [
        {
          "internalType": "uint256",
          "name": "_pid",
          "type": "uint256"
        },
        {
          "internalType": "uint256",
          "name": "_sid",
          "type": "uint256"
        }
      ],
      "name": "setPoolCorr",
      "outputs": [],
      "stateMutability": "nonpayable",
      "type": "function"
    },
    {
      "inputs": [
        {
          "internalType": "uint256",
          "name": "_lastRewardBlock",
          "type": "uint256"
        }
      ],
      "name": "getJoinBlockReward",
      "outputs": [
        {
          "internalType": "uint256",
          "name": "",
          "type": "uint256"
        }
      ],
      "stateMutability": "view",
      "type": "function",
      "constant": true
    },
    {
      "inputs": [],
      "name": "massUpdatePools",
      "outputs": [],
      "stateMutability": "nonpayable",
      "type": "function"
    },
    {
      "inputs": [
        {
          "internalType": "uint256",
          "name": "_pid",
          "type": "uint256"
        }
      ],
      "name": "updatePool",
      "outputs": [],
      "stateMutability": "nonpayable",
      "type": "function"
    },
    {
      "inputs": [
        {
          "internalType": "uint256",
          "name": "_pid",
          "type": "uint256"
        },
        {
          "internalType": "address",
          "name": "_user",
          "type": "address"
        }
      ],
      "name": "pending",
      "outputs": [
        {
          "internalType": "uint256",
          "name": "",
          "type": "uint256"
        },
        {
          "internalType": "uint256",
          "name": "",
          "type": "uint256"
        }
      ],
      "stateMutability": "view",
      "type": "function",
      "constant": true
    },
    {
      "inputs": [
        {
          "internalType": "uint256",
          "name": "_pid",
          "type": "uint256"
        },
        {
          "internalType": "uint256",
          "name": "_amount",
          "type": "uint256"
        }
      ],
      "name": "deposit",
      "outputs": [],
      "stateMutability": "nonpayable",
      "type": "function"
    },
    {
      "inputs": [
        {
          "internalType": "uint256",
          "name": "_pid",
          "type": "uint256"
        },
        {
          "internalType": "uint256",
          "name": "_amount",
          "type": "uint256"
        }
      ],
      "name": "withdraw",
      "outputs": [],
      "stateMutability": "nonpayable",
      "type": "function"
    },
    {
      "inputs": [
        {
          "internalType": "uint256",
          "name": "_pid",
          "type": "uint256"
        }
      ],
      "name": "emergencyWithdraw",
      "outputs": [],
      "stateMutability": "nonpayable",
      "type": "function"
    }
  ],
  "bytecode": "0x60806040526009805460ff191690556000600a553480156200002057600080fd5b506040516200356c3803806200356c833981810160405260608110156200004657600080fd5b508051602082015160409092015190919060006200006c6001600160e01b03620000e316565b600080546001600160a01b0319166001600160a01b0383169081178255604051929350917f8be0079c531659141344cd1fd0a4f28419497f9722a3daafe3b4186f6b6457e0908290a350600380546001600160a01b0319166001600160a01b039490941693909317909255600455600b55620000e7565b3390565b61347580620000f76000396000f3fe608060405234801561001057600080fd5b50600436106102065760003560e01c80637fe6f5ac1161011a578063d431b1ac116100ad578063e4c75c271161007c578063e4c75c2714610569578063e6ab8d48146105ae578063e715e234146105b6578063f2fde38b146105e4578063f68678221461060a57610206565b8063d431b1ac14610519578063dfc7b95b14610521578063e2bbb15814610529578063e3e843391461054c57610206565b8063b0c7044b116100e9578063b0c7044b146104ab578063b337d32c146104d1578063b688a363146104f4578063cb4502c4146104fc57610206565b80637fe6f5ac146104055780638da5cb5b1461042b57806393f1a40b14610433578063aaae43cc1461047d57610206565b806351eb05a61161019d578063630b5ba11161016c578063630b5ba1146103a557806364482f79146103ad5780636bfc73f6146103d8578063705bbc01146103f5578063715018a6146103fd57610206565b806351eb05a6146103295780635312ea8e1461034657806356c5867d146103635780635c975abb1461039d57610206565b80631eaaa045116101d95780631eaaa0451461028f57806343154907146102c5578063441a3e70146102fe57806348cd4cb11461032157610206565b8063081e3eda1461020b5780630df1c70f146102255780631526fe271461022d57806317caf6f114610287575b600080fd5b610213610630565b60408051918252519081900360200190f35b610213610636565b61024a6004803603602081101561024357600080fd5b503561063c565b604080516001600160a01b0390971687526020870195909552858501939093526060850191909152608084015260a0830152519081900360c00190f35b610213610689565b6102c3600480360360608110156102a557600080fd5b508035906001600160a01b036020820135169060400135151561068f565b005b6102e2600480360360208110156102db57600080fd5b50356108fd565b604080516001600160a01b039092168252519081900360200190f35b6102c36004803603604081101561031457600080fd5b5080359060200135610966565b610213610a15565b6102c36004803603602081101561033f57600080fd5b5035610a1b565b6102c36004803603602081101561035c57600080fd5b5035610ba3565b6103896004803603602081101561037957600080fd5b50356001600160a01b0316610c4f565b604080519115158252519081900360200190f35b610389610d96565b6102c3610d9f565b6102c3600480360360608110156103c357600080fd5b50803590602081013590604001351515610dbe565b6102c3600480360360208110156103ee57600080fd5b5035610e9f565b6102e2610f0e565b6102c3610f1d565b6103896004803603602081101561041b57600080fd5b50356001600160a01b0316610fc9565b6102e2610fd6565b61045f6004803603604081101561044957600080fd5b50803590602001356001600160a01b0316610fe5565b60408051938452602084019290925282820152519081900360600190f35b6102c36004803603604081101561049357600080fd5b506001600160a01b0381358116916020013516611011565b610213600480360360208110156104c157600080fd5b50356001600160a01b031661121b565b6102c3600480360360408110156104e757600080fd5b508035906020013561122d565b6102e26112f5565b6102136004803603602081101561051257600080fd5b5035611304565b6102c3611316565b6102e261138c565b6102c36004803603604081101561053f57600080fd5b508035906020013561139b565b6102136004803603602081101561056257600080fd5b5035611440565b6105956004803603604081101561057f57600080fd5b50803590602001356001600160a01b0316611466565b6040805192835260208301919091528051918290030190f35b6102136114e0565b6102c3600480360360408110156105cc57600080fd5b506001600160a01b03813581169160200135166114f1565b6102c3600480360360208110156105fa57600080fd5b50356001600160a01b03166115e8565b6102c36004803603602081101561062057600080fd5b50356001600160a01b03166116ea565b60055490565b60045481565b6005818154811061064957fe5b60009182526020909120600690910201805460018201546002830154600384015460048501546005909501546001600160a01b0390941695509193909286565b600a5481565b61069761176e565b6001600160a01b03166106a8610fd6565b6001600160a01b0316146106f1576040805162461bcd60e51b815260206004820181905260248201526000805160206133f6833981519152604482015290519081900360640190fd5b6001600160a01b03821661074c576040805162461bcd60e51b815260206004820152601c60248201527f5f6c70546f6b656e20697320746865207a65726f206164647265737300000000604482015290519081900360640190fd5b801561075a5761075a610d9f565b6000600b54431161076d57600b5461076f565b435b600a54909150610785908563ffffffff61177216565b600a556040805160c0810182526001600160a01b038581168252602082018781529282018481526000606084018181526080850182815260a0860183815260058054600180820183559190955296517f036b6384b5eca791c62761152d0c79bb0604c104a5fb6f4eb0703f3154bb3db0600690950294850180546001600160a01b031916919097161790955595517f036b6384b5eca791c62761152d0c79bb0604c104a5fb6f4eb0703f3154bb3db183015591517f036b6384b5eca791c62761152d0c79bb0604c104a5fb6f4eb0703f3154bb3db282015590517f036b6384b5eca791c62761152d0c79bb0604c104a5fb6f4eb0703f3154bb3db382015592517f036b6384b5eca791c62761152d0c79bb0604c104a5fb6f4eb0703f3154bb3db4840155517f036b6384b5eca791c62761152d0c79bb0604c104a5fb6f4eb0703f3154bb3db5909201919091556108da610630565b6001600160a01b0390941660009081526008602052604090209303909255505050565b600060016109096114e0565b03821115610955576040805162461bcd60e51b815260206004820152601460248201527306e6f742066696e642074686973206d756c744c560641b604482015290519081900360640190fd5b6109606001836117d3565b92915050565b60095460ff16156109ba576040805162461bcd60e51b8152602060048201526019602482015278135a5b9a5b99c81a185cc81899595b881cdd5cdc195b991959603a1b604482015290519081900360640190fd5b6000600583815481106109c957fe5b6000918252602090912060069091020180549091506109f0906001600160a01b0316610fc9565b15610a0557610a008383336117df565b610a10565b610a10838333611bad565b505050565b600b5481565b600060058281548110610a2a57fe5b9060005260206000209060060201905080600201544311610a4b5750610ba0565b8054600090610a62906001600160a01b0316610fc9565b15610a88576005820154610a7d575043600290910155610ba0565b506005810154610b12565b8154604080516370a0823160e01b815230600482015290516001600160a01b03909216916370a0823191602480820192602092909190829003018186803b158015610ad257600080fd5b505afa158015610ae6573d6000803e3d6000fd5b505050506040513d6020811015610afc57600080fd5b5051905080610b12575043600290910155610ba0565b6000610b218360020154611440565b905060008111610b3357505050610ba0565b6000610b5e600a54610b52866001015485611d4590919063ffffffff16565b9063ffffffff611d9e16565b9050610b8d610b7c84610b528464e8d4a5100063ffffffff611d4516565b60038601549063ffffffff61177216565b6003850155505043600290920191909155505b50565b60095460ff1615610bf7576040805162461bcd60e51b8152602060048201526019602482015278135a5b9a5b99c81a185cc81899595b881cdd5cdc195b991959603a1b604482015290519081900360640190fd5b600060058281548110610c0657fe5b600091825260209091206006909102018054909150610c2d906001600160a01b0316610fc9565b15610c4157610c3c8233611e05565b610c4b565b610c4b823361205e565b5050565b6000610c5961176e565b6001600160a01b0316610c6a610fd6565b6001600160a01b031614610cb3576040805162461bcd60e51b815260206004820181905260248201526000805160206133f6833981519152604482015290519081900360640190fd5b6001600160a01b038216610d07576040805162461bcd60e51b81526020600482015260166024820152754c5020697320746865207a65726f206164647265737360501b604482015290519081900360640190fd5b600c546040805163095ea7b360e01b81526001600160a01b039283166004820152600019602482015290519184169163095ea7b3916044808201926020929091908290030181600087803b158015610d5e57600080fd5b505af1158015610d72573d6000803e3d6000fd5b505050506040513d6020811015610d8857600080fd5b506109609050600183612120565b60095460ff1681565b60055460005b81811015610c4b57610db681610a1b565b600101610da5565b610dc661176e565b6001600160a01b0316610dd7610fd6565b6001600160a01b031614610e20576040805162461bcd60e51b815260206004820181905260248201526000805160206133f6833981519152604482015290519081900360640190fd5b8015610e2e57610e2e610d9f565b610e7182610e6560058681548110610e4257fe5b906000526020600020906006020160010154600a5461213590919063ffffffff16565b9063ffffffff61177216565b600a819055508160058481548110610e8557fe5b906000526020600020906006020160010181905550505050565b610ea761176e565b6001600160a01b0316610eb8610fd6565b6001600160a01b031614610f01576040805162461bcd60e51b815260206004820181905260248201526000805160206133f6833981519152604482015290519081900360640190fd5b610f09610d9f565b600455565b600d546001600160a01b031681565b610f2561176e565b6001600160a01b0316610f36610fd6565b6001600160a01b031614610f7f576040805162461bcd60e51b815260206004820181905260248201526000805160206133f6833981519152604482015290519081900360640190fd5b600080546040516001600160a01b03909116907f8be0079c531659141344cd1fd0a4f28419497f9722a3daafe3b4186f6b6457e0908390a3600080546001600160a01b0319169055565b6000610960600183612192565b6000546001600160a01b031690565b600660209081526000928352604080842090915290825290208054600182015460029092015490919083565b61101961176e565b6001600160a01b031661102a610fd6565b6001600160a01b031614611073576040805162461bcd60e51b815260206004820181905260248201526000805160206133f6833981519152604482015290519081900360640190fd5b6001600160a01b0382161580159061109357506001600160a01b03811615155b6110da576040805162461bcd60e51b8152602060048201526013602482015272697320746865207a65726f206164647265737360681b604482015290519081900360640190fd5b60095460ff16151560011461112d576040805162461bcd60e51b815260206004820152601460248201527327379036b4b734b7339039bab9b832b739b4b7b760611b604482015290519081900360640190fd5b600d80546001600160a01b038085166001600160a01b031992831617909255600c80549284169290911691909117905560006111676114e0565b90505b8015610a1057600061117e600160006117d3565b6001600160a01b03808216600090815260086020908152604080832054600c548185526007909352818420548251632989754760e11b815260048101919091529151959650949190931692635312ea8e92602480830193919282900301818387803b1580156111ec57600080fd5b505af1158015611200573d6000803e3d6000fd5b5050505061120f6001836121a7565b5050506000190161116a565b60086020526000908152604090205481565b61123561176e565b6001600160a01b0316611246610fd6565b6001600160a01b03161461128f576040805162461bcd60e51b815260206004820181905260248201526000805160206133f6833981519152604482015290519081900360640190fd5b6001611299610630565b038211156112e3576040805162461bcd60e51b81526020600482015260126024820152711b9bdd08199a5b99081d1a1a5cc81c1bdbdb60721b604482015290519081900360640190fd5b60009182526007602052604090912055565b6003546001600160a01b031681565b60076020526000908152604090205481565b61131e61176e565b6001600160a01b031661132f610fd6565b6001600160a01b031614611378576040805162461bcd60e51b815260206004820181905260248201526000805160206133f6833981519152604482015290519081900360640190fd5b6009805460ff19811660ff90911615179055565b600c546001600160a01b031681565b60095460ff16156113ef576040805162461bcd60e51b8152602060048201526019602482015278135a5b9a5b99c81a185cc81899595b881cdd5cdc195b991959603a1b604482015290519081900360640190fd5b6000600583815481106113fe57fe5b600091825260209091206006909102018054909150611425906001600160a01b0316610fc9565b1561143557610a008383336121bc565b610a1083833361277e565b6004546000906109609061145a438563ffffffff61213516565b9063ffffffff611d4516565b60008060006005858154811061147857fe5b60009182526020909120600690910201805490915061149f906001600160a01b0316610fc9565b156114bf576000806114b187876128cf565b90955093506114d992505050565b60006114cb8686612b12565b9350600092506114d9915050565b9250929050565b60006114ec6001612cbb565b905090565b6114f961176e565b6001600160a01b031661150a610fd6565b6001600160a01b031614611553576040805162461bcd60e51b815260206004820181905260248201526000805160206133f6833981519152604482015290519081900360640190fd5b6001600160a01b0382161580159061157357506001600160a01b03811615155b6115ba576040805162461bcd60e51b8152602060048201526013602482015272697320746865207a65726f206164647265737360681b604482015290519081900360640190fd5b600d80546001600160a01b039384166001600160a01b031991821617909155600c8054929093169116179055565b6115f061176e565b6001600160a01b0316611601610fd6565b6001600160a01b03161461164a576040805162461bcd60e51b815260206004820181905260248201526000805160206133f6833981519152604482015290519081900360640190fd5b6001600160a01b03811661168f5760405162461bcd60e51b81526004018080602001828103825260268152602001806133896026913960400191505060405180910390fd5b600080546040516001600160a01b03808516939216917f8be0079c531659141344cd1fd0a4f28419497f9722a3daafe3b4186f6b6457e091a3600080546001600160a01b0319166001600160a01b0392909216919091179055565b6116f261176e565b6001600160a01b0316611703610fd6565b6001600160a01b03161461174c576040805162461bcd60e51b815260206004820181905260248201526000805160206133f6833981519152604482015290519081900360640190fd5b600380546001600160a01b0319166001600160a01b0392909216919091179055565b3390565b6000828201838110156117cc576040805162461bcd60e51b815260206004820152601b60248201527f536166654d6174683a206164646974696f6e206f766572666c6f770000000000604482015290519081900360640190fd5b9392505050565b60006117cc8383612cc6565b6000600584815481106117ee57fe5b60009182526020808320878452600680835260408086206001600160a01b0389168752909352919093208054929091029092019250841115611877576040805162461bcd60e51b815260206004820152601e60248201527f77697468647261774a6f696e416e64546f6b656e3a206e6f7420676f6f640000604482015290519081900360640190fd5b61188085610a1b565b60006118ba82600101546118ae64e8d4a51000610b5287600301548760000154611d4590919063ffffffff16565b9063ffffffff61213516565b905080156118cc576118cc8482612d2a565b8415611b1957600d54604080516370a0823160e01b815230600482015290516000926001600160a01b0316916370a08231916024808301926020929190829003018186803b15801561191d57600080fd5b505afa158015611931573d6000803e3d6000fd5b505050506040513d602081101561194757600080fd5b5051600c54600089815260076020526040808220548151630441a3e760e41b81526004810191909152602481018b905290519394506001600160a01b039092169263441a3e7092604480820193929182900301818387803b1580156119ab57600080fd5b505af11580156119bf573d6000803e3d6000fd5b5050600d54604080516370a0823160e01b81523060048201529051600094506001600160a01b0390921692506370a08231916024808301926020929190829003018186803b158015611a1057600080fd5b505afa158015611a24573d6000803e3d6000fd5b505050506040513d6020811015611a3a57600080fd5b50516005860154909150611a7690611a6590610b5264e8d4a5100061145a868863ffffffff61213516565b60048701549063ffffffff61177216565b6004860181905560028501548554600092611aa692916118ae9164e8d4a5100091610b529163ffffffff611d4516565b90508015611acb57600d54611acb906001600160a01b0316888363ffffffff612eba16565b8454611add908963ffffffff61213516565b85556005860154611af4908963ffffffff61213516565b60058701558554611b15906001600160a01b0316888a63ffffffff612eba16565b5050505b60038301548254611b3a9164e8d4a5100091610b529163ffffffff611d4516565b600183015560048301548254611b609164e8d4a5100091610b529163ffffffff611d4516565b600283015560408051868152905187916001600160a01b038716917ff279e6a1f5e320cca91135676d9cb6e44ca8a08c0b88342bcdb1144f6511b5689181900360200190a3505050505050565b600060058481548110611bbc57fe5b60009182526020808320878452600680835260408086206001600160a01b0389168752909352919093208054929091029092019250841115611c3e576040805162461bcd60e51b81526020600482015260166024820152751dda5d1a191c985dd29bda5b8e881b9bdd0819dbdbd960521b604482015290519081900360640190fd5b611c4785610a1b565b6000611c7582600101546118ae64e8d4a51000610b5287600301548760000154611d4590919063ffffffff16565b90508015611c8757611c878482612d2a565b8415611cd7578154611c9f908663ffffffff61213516565b82556005830154611cb6908663ffffffff61213516565b60058401558254611cd7906001600160a01b0316858763ffffffff612eba16565b60038301548254611cf89164e8d4a5100091610b529163ffffffff611d4516565b600183015560408051868152905187916001600160a01b038716917ff279e6a1f5e320cca91135676d9cb6e44ca8a08c0b88342bcdb1144f6511b5689181900360200190a3505050505050565b600082611d5457506000610960565b82820282848281611d6157fe5b04146117cc5760405162461bcd60e51b81526004018080602001828103825260218152602001806133d56021913960400191505060405180910390fd5b6000808211611df4576040805162461bcd60e51b815260206004820152601a60248201527f536166654d6174683a206469766973696f6e206279207a65726f000000000000604482015290519081900360640190fd5b818381611dfd57fe5b049392505050565b600060058381548110611e1457fe5b60009182526020808320868452600680835260408086206001600160a01b03808a1688529085528187208054600d5484516370a0823160e01b8152306004820152945195909802909501985096939593949316926370a0823192602480840193829003018186803b158015611e8857600080fd5b505afa158015611e9c573d6000803e3d6000fd5b505050506040513d6020811015611eb257600080fd5b5051600c54600088815260076020526040808220548151630441a3e760e41b815260048101919091526024810187905290519394506001600160a01b039092169263441a3e7092604480820193929182900301818387803b158015611f1657600080fd5b505af1158015611f2a573d6000803e3d6000fd5b5050600d54604080516370a0823160e01b81523060048201529051600094506001600160a01b0390921692506370a08231916024808301926020929190829003018186803b158015611f7b57600080fd5b505afa158015611f8f573d6000803e3d6000fd5b505050506040513d6020811015611fa557600080fd5b50516005860154909150611fd090611a6590610b5264e8d4a5100061145a868863ffffffff61213516565b6004860155600080855560018501558454611ffb906001600160a01b0316878563ffffffff612eba16565b6005850154612010908463ffffffff61213516565b600586015560408051848152905188916001600160a01b038916917fbb757047c2b5f3974fe26b7c10f732e7bce710b0952a71082702781e62ae05959181900360200190a350505050505050565b60006005838154811061206d57fe5b60009182526020808320868452600680835260408086206001600160a01b03808a168852945285208054868255600182019690965593020180549094509192916120bf9116858363ffffffff612eba16565b60058301546120d4908263ffffffff61213516565b600584015560408051828152905186916001600160a01b038716917fbb757047c2b5f3974fe26b7c10f732e7bce710b0952a71082702781e62ae05959181900360200190a35050505050565b60006117cc836001600160a01b038416612f0c565b60008282111561218c576040805162461bcd60e51b815260206004820152601e60248201527f536166654d6174683a207375627472616374696f6e206f766572666c6f770000604482015290519081900360640190fd5b50900390565b60006117cc836001600160a01b038416612f56565b60006117cc836001600160a01b038416612f6e565b6000600584815481106121cb57fe5b60009182526020808320878452600680835260408086206001600160a01b0389168752909352919093209102909101915061220585610a1b565b80541561243957600061223a82600101546118ae64e8d4a51000610b5287600301548760000154611d4590919063ffffffff16565b9050801561224c5761224c8482612d2a565b600d54604080516370a0823160e01b815230600482015290516000926001600160a01b0316916370a08231916024808301926020929190829003018186803b15801561229757600080fd5b505afa1580156122ab573d6000803e3d6000fd5b505050506040513d60208110156122c157600080fd5b5051600c54600089815260076020526040808220548151631c57762b60e31b815260048101919091526024810183905290519394506001600160a01b039092169263e2bbb15892604480820193929182900301818387803b15801561232557600080fd5b505af1158015612339573d6000803e3d6000fd5b5050600d54604080516370a0823160e01b81523060048201529051600094506001600160a01b0390921692506370a08231916024808301926020929190829003018186803b15801561238a57600080fd5b505afa15801561239e573d6000803e3d6000fd5b505050506040513d60208110156123b457600080fd5b505160058601549091506123df90611a6590610b5264e8d4a5100061145a868863ffffffff61213516565b600486018190556002850154855460009261240f92916118ae9164e8d4a5100091610b529163ffffffff611d4516565b9050801561243457600d54612434906001600160a01b0316888363ffffffff612eba16565b505050505b83156126eb57815461245c906001600160a01b031684308763ffffffff61303416565b600582015461251157600c54600086815260076020526040808220548151631c57762b60e31b815260048101919091526024810188905290516001600160a01b039093169263e2bbb1589260448084019391929182900301818387803b1580156124c557600080fd5b505af11580156124d9573d6000803e3d6000fd5b505082546124f0925090508563ffffffff61177216565b81556005820154612507908563ffffffff61177216565b60058301556126eb565b600d54604080516370a0823160e01b815230600482015290516000926001600160a01b0316916370a08231916024808301926020929190829003018186803b15801561255c57600080fd5b505afa158015612570573d6000803e3d6000fd5b505050506040513d602081101561258657600080fd5b5051600c54600088815260076020526040808220548151631c57762b60e31b81526004810191909152602481018a905290519394506001600160a01b039092169263e2bbb15892604480820193929182900301818387803b1580156125ea57600080fd5b505af11580156125fe573d6000803e3d6000fd5b5050600d54604080516370a0823160e01b81523060048201529051600094506001600160a01b0390921692506370a08231916024808301926020929190829003018186803b15801561264f57600080fd5b505afa158015612663573d6000803e3d6000fd5b505050506040513d602081101561267957600080fd5b505160058501549091506126b5906126a490610b5264e8d4a5100061145a868863ffffffff61213516565b60048601549063ffffffff61177216565b600485015582546126cc908763ffffffff61177216565b835560058401546126e3908763ffffffff61177216565b600585015550505b6003820154815461270c9164e8d4a5100091610b529163ffffffff611d4516565b6001820155600482015481546127329164e8d4a5100091610b529163ffffffff611d4516565b600282015560408051858152905186916001600160a01b038616917f90890809c654f11d6e72a28fa60149770a0d11ec6c92319d6ceb2bb0a4ea1a159181900360200190a35050505050565b60006005848154811061278d57fe5b60009182526020808320878452600680835260408086206001600160a01b038916875290935291909320910290910191506127c785610a1b565b8054156128105760006127fc82600101546118ae64e8d4a51000610b5287600301548760000154611d4590919063ffffffff16565b9050801561280e5761280e8482612d2a565b505b8315612862578154612833906001600160a01b031684308763ffffffff61303416565b8054612845908563ffffffff61177216565b8155600582015461285c908563ffffffff61177216565b60058301555b600382015481546128839164e8d4a5100091610b529163ffffffff611d4516565b600182015560408051858152905186916001600160a01b038616917f90890809c654f11d6e72a28fa60149770a0d11ec6c92319d6ceb2bb0a4ea1a159181900360200190a35050505050565b6000806000600585815481106128e157fe5b60009182526020808320888452600680835260408086206001600160a01b038b168752909352919093209102909101600381015460048201548354929450909115612b0257600c54600089815260076020908152604080832054815163e4c75c2760e01b81526004810191909152306024820152905192936001600160a01b03169263e4c75c2792604480840193919291829003018186803b15801561298657600080fd5b505afa15801561299a573d6000803e3d6000fd5b505050506040513d60208110156129b057600080fd5b505160058601549091506129e4906129d790610b528464e8d4a5100063ffffffff611d4516565b839063ffffffff61177216565b91506000612a1085600201546118ae64e8d4a51000610b52878a60000154611d4590919063ffffffff16565b90508560020154431115612abc576000612a2d8760020154611440565b90506000612a4e600a54610b528a6001015485611d4590919063ffffffff16565b9050612a80612a738960050154610b5264e8d4a5100085611d4590919063ffffffff16565b879063ffffffff61177216565b9550612aaa87600101546118ae64e8d4a51000610b528a8c60000154611d4590919063ffffffff16565b839950995050505050505050506114d9565b8560020154431415612aff57612af085600101546118ae64e8d4a51000610b52888a60000154611d4590919063ffffffff16565b975095506114d9945050505050565b50505b5060009788975095505050505050565b60008060058481548110612b2257fe5b60009182526020808320878452600680835260408086206001600160a01b03808b16885290855281872060039390960290930191820154825482516370a0823160e01b815230600482015292519398509596909590949316926370a0823192602480840193829003018186803b158015612b9b57600080fd5b505afa158015612baf573d6000803e3d6000fd5b505050506040513d6020811015612bc557600080fd5b5051835490915015612cae578360020154431115612c6f576000612bec8560020154611440565b90506000612c0d600a54610b52886001015485611d4590919063ffffffff16565b9050612c38612c2b84610b528464e8d4a5100063ffffffff611d4516565b859063ffffffff61177216565b9350612c6285600101546118ae64e8d4a51000610b52888a60000154611d4590919063ffffffff16565b9650505050505050610960565b8360020154431415612cae57612ca383600101546118ae64e8d4a51000610b52868860000154611d4590919063ffffffff16565b945050505050610960565b5060009695505050505050565b600061096082613094565b81546000908210612d085760405162461bcd60e51b81526004018080602001828103825260228152602001806133676022913960400191505060405180910390fd5b826000018281548110612d1757fe5b9060005260206000200154905092915050565b600354604080516370a0823160e01b815230600482015290516000926001600160a01b0316916370a08231916024808301926020929190829003018186803b158015612d7557600080fd5b505afa158015612d89573d6000803e3d6000fd5b505050506040513d6020811015612d9f57600080fd5b5051905080821115612e33576003546040805163a9059cbb60e01b81526001600160a01b038681166004830152602482018590529151919092169163a9059cbb9160448083019260209291908290030181600087803b158015612e0157600080fd5b505af1158015612e15573d6000803e3d6000fd5b505050506040513d6020811015612e2b57600080fd5b50610a109050565b6003546040805163a9059cbb60e01b81526001600160a01b038681166004830152602482018690529151919092169163a9059cbb9160448083019260209291908290030181600087803b158015612e8957600080fd5b505af1158015612e9d573d6000803e3d6000fd5b505050506040513d6020811015612eb357600080fd5b5050505050565b604080516001600160a01b038416602482015260448082018490528251808303909101815260649091019091526020810180516001600160e01b031663a9059cbb60e01b179052610a10908490613098565b6000612f188383612f56565b612f4e57508154600181810184556000848152602080822090930184905584548482528286019093526040902091909155610960565b506000610960565b60009081526001919091016020526040902054151590565b6000818152600183016020526040812054801561302a5783546000198083019190810190600090879083908110612fa157fe5b9060005260206000200154905080876000018481548110612fbe57fe5b600091825260208083209091019290925582815260018981019092526040902090840190558654879080612fee57fe5b60019003818190600052602060002001600090559055866001016000878152602001908152602001600020600090556001945050505050610960565b6000915050610960565b604080516001600160a01b0380861660248301528416604482015260648082018490528251808303909101815260849091019091526020810180516001600160e01b03166323b872dd60e01b17905261308e908590613098565b50505050565b5490565b60606130ed826040518060400160405280602081526020017f5361666545524332303a206c6f772d6c6576656c2063616c6c206661696c6564815250856001600160a01b03166131499092919063ffffffff16565b805190915015610a105780806020019051602081101561310c57600080fd5b5051610a105760405162461bcd60e51b815260040180806020018281038252602a815260200180613416602a913960400191505060405180910390fd5b60606131588484600085613160565b949350505050565b6060824710156131a15760405162461bcd60e51b81526004018080602001828103825260268152602001806133af6026913960400191505060405180910390fd5b6131aa856132bc565b6131fb576040805162461bcd60e51b815260206004820152601d60248201527f416464726573733a2063616c6c20746f206e6f6e2d636f6e7472616374000000604482015290519081900360640190fd5b60006060866001600160a01b031685876040518082805190602001908083835b6020831061323a5780518252601f19909201916020918201910161321b565b6001836020036101000a03801982511681845116808217855250505050505090500191505060006040518083038185875af1925050503d806000811461329c576040519150601f19603f3d011682016040523d82523d6000602084013e6132a1565b606091505b50915091506132b18282866132c2565b979650505050505050565b3b151590565b606083156132d15750816117cc565b8251156132e15782518084602001fd5b8160405162461bcd60e51b81526004018080602001828103825283818151815260200191508051906020019080838360005b8381101561332b578181015183820152602001613313565b50505050905090810190601f1680156133585780820380516001836020036101000a031916815260200191505b509250505060405180910390fdfe456e756d657261626c655365743a20696e646578206f7574206f6620626f756e64734f776e61626c653a206e6577206f776e657220697320746865207a65726f2061646472657373416464726573733a20696e73756666696369656e742062616c616e636520666f722063616c6c536166654d6174683a206d756c7469706c69636174696f6e206f766572666c6f774f776e61626c653a2063616c6c6572206973206e6f7420746865206f776e65725361666545524332303a204552433230206f7065726174696f6e20646964206e6f742073756363656564a264697066735822122016ff794ebed4d72ad40b9aa03599a672bcd23718a8f1015089c49b6e7f5c45a564736f6c63430006060033",
  "immutableReferences": {},
  "source": "// SPDX-License-Identifier: MIT\npragma solidity ^0.6.0;\n\nimport \"@openzeppelin/contracts/access/Ownable.sol\";\nimport \"@openzeppelin/contracts/utils/EnumerableSet.sol\";\nimport \"@openzeppelin/contracts/token/ERC20/IERC20.sol\";\nimport \"@openzeppelin/contracts/token/ERC20/SafeERC20.sol\";\nimport \"@openzeppelin/contracts/math/SafeMath.sol\";\nimport \"../interface/IJoin.sol\";\n\ninterface IMasterChefHeco {\n    function pending(uint256 pid, address user) external view returns (uint256);\n\n    function deposit(uint256 pid, uint256 amount) external;\n\n    function withdraw(uint256 pid, uint256 amount) external;\n\n    function emergencyWithdraw(uint256 pid) external;\n}\n\ncontract HecoPool is Ownable {\n    using SafeMath for uint256;\n    using SafeERC20 for IERC20;\n\n    using EnumerableSet for EnumerableSet.AddressSet;\n    EnumerableSet.AddressSet private _multLP;\n\n    // Info of each user.\n    struct UserInfo {\n        uint256 amount;     // X18. How many LP tokens the user has provided. LP\n        uint256 rewardDebt; // X18. Reward debt. join. depositwithdraw\n        uint256 multLpRewardDebt; // X18. multLp Reward debt.  HecoPoolTokendepositwithdraw\n    }\n\n    // Info of each pool.\n    struct PoolInfo {\n        IERC20 lpToken;           // Address of LP token contract. LP\n        uint256 allocPoint;       // How many allocation points assigned to this pool. JOINs to distribute per block. \n        uint256 lastRewardBlock;  // Last block number that JOINs distribution occurs. \n        uint256 accJoinPerShare; // X18+X12. Accumulated JOINs per share, times 1e12.   pool.accJoinPerShare.add(joinReward.mul(1e12).div(lpSupply)) pool1token\n        uint256 accMultLpPerShare; // X18+X12. Accumulated multLp per share multLpChefpooltoken\n        uint256 totalAmount;    // X18. Total amount of current pool deposit. \n    }\n\n    // The JOIN Token!\n    IJoin public join;\n    // JOIN tokens created per block. X18.\n    uint256 public joinPerBlock;\n    // Info of each pool.\n    PoolInfo[] public poolInfo;\n    // Info of each user that stakes LP tokens.\n    mapping(uint256 => mapping(address => UserInfo)) public userInfo;\n    // Corresponding to the pid of the multLP pool. {Lppoolpid(LpOfPid): multLpChefpid}\n    mapping(uint256 => uint256) public poolCorrespond;\n    // pid corresponding address. LPpoolInfo\n    mapping(address => uint256) public LpOfPid;\n    // Control mining\n    bool public paused = false;\n    // Total allocation points. Must be the sum of all allocation points in all pools.\n    uint256 public totalAllocPoint = 0;\n    // The block number when JOIN mining starts.\n    uint256 public startBlock;\n    // multLP MasterChef multLpChefmultLpToken\n    address public multLpChef;\n    // multLP Token\n    address public multLpToken;\n\n    event Deposit(address indexed user, uint256 indexed pid, uint256 amount);\n    event Withdraw(address indexed user, uint256 indexed pid, uint256 amount);\n    event EmergencyWithdraw(address indexed user, uint256 indexed pid, uint256 amount);\n\n    constructor(\n        IJoin _join,\n        uint256 _joinPerBlock,\n        uint256 _startBlock\n    ) public {\n        join = _join;\n        joinPerBlock = _joinPerBlock;\n        startBlock = _startBlock;\n    }\n\n    function setJoin(IJoin _join) public onlyOwner {\n        join = _join;\n    }\n\n    // Set the number of join produced by each block\n    function setJoinPerBlock(uint256 _newPerBlock) public onlyOwner {\n        massUpdatePools();\n        joinPerBlock = _newPerBlock;\n    }\n\n    function poolLength() public view returns (uint256) {\n        return poolInfo.length;\n    }\n\n    function addMultLP(address _addLP) public onlyOwner returns (bool) {\n        require(_addLP != address(0), \"LP is the zero address\");\n        IERC20(_addLP).approve(multLpChef, uint256(- 1));\n        return EnumerableSet.add(_multLP, _addLP);\n    }\n\n    function isMultLP(address _LP) public view returns (bool) {\n        return EnumerableSet.contains(_multLP, _LP);\n    }\n\n    function getMultLPLength() public view returns (uint256) {\n        return EnumerableSet.length(_multLP);\n    }\n\n    function getMultLPAddress(uint256 _pid) public view returns (address){\n        require(_pid <= getMultLPLength() - 1, \"not find this multLP\");\n        return EnumerableSet.at(_multLP, _pid);\n    }\n\n    function setPause() public onlyOwner {\n        paused = !paused;\n    }\n\n    function setMultLP(address _multLpToken, address _multLpChef) public onlyOwner {\n        require(_multLpToken != address(0) && _multLpChef != address(0), \"is the zero address\");\n        multLpToken = _multLpToken;\n        multLpChef = _multLpChef;\n    }\n\n    function replaceMultLP(address _multLpToken, address _multLpChef) public onlyOwner {\n        // LP\n        require(_multLpToken != address(0) && _multLpChef != address(0), \"is the zero address\");\n        require(paused == true, \"No mining suspension\");\n        multLpToken = _multLpToken;\n        multLpChef = _multLpChef;\n        uint256 length = getMultLPLength();\n        while (length > 0) {\n            address dAddress = EnumerableSet.at(_multLP, 0);\n            uint256 pid = LpOfPid[dAddress];\n            // pool\n            IMasterChefHeco(multLpChef).emergencyWithdraw(poolCorrespond[pid]);\n            EnumerableSet.remove(_multLP, dAddress);\n            length--;\n        }\n    }\n\n    // Add a new lp to the pool. Can only be called by the owner. LPPool\n    // XXX DO NOT add the same LP token more than once. Rewards will be messed up if you do.\n    function add(uint256 _allocPoint, IERC20 _lpToken, bool _withUpdate) public onlyOwner {\n        require(address(_lpToken) != address(0), \"_lpToken is the zero address\");\n        if (_withUpdate) {\n            massUpdatePools();\n        }\n        uint256 lastRewardBlock = block.number > startBlock ? block.number : startBlock;\n        totalAllocPoint = totalAllocPoint.add(_allocPoint);\n        poolInfo.push(PoolInfo({\n        lpToken : _lpToken,\n        allocPoint : _allocPoint,\n        lastRewardBlock : lastRewardBlock,\n        accJoinPerShare : 0,\n        accMultLpPerShare : 0,\n        totalAmount : 0\n        }));\n        LpOfPid[address(_lpToken)] = poolLength() - 1;\n    }\n\n    // Update the given pool's JOIN allocation point. Can only be called by the owner.\n    function set(uint256 _pid, uint256 _allocPoint, bool _withUpdate) public onlyOwner {\n        if (_withUpdate) {\n            massUpdatePools();\n        }\n        totalAllocPoint = totalAllocPoint.sub(poolInfo[_pid].allocPoint).add(_allocPoint);\n        poolInfo[_pid].allocPoint = _allocPoint;\n    }\n\n    // The current pool corresponds to the pid of the multLP pool\n    function setPoolCorr(uint256 _pid, uint256 _sid) public onlyOwner {\n        require(_pid <= poolLength() - 1, \"not find this pool\");\n        poolCorrespond[_pid] = _sid;\n    }\n\n    function getJoinBlockReward(uint256 _lastRewardBlock) public view returns (uint256) {\n        return block.number.sub(_lastRewardBlock).mul(joinPerBlock);\n    }\n\n    // Update reward variables for all pools. Be careful of gas spending!\n    function massUpdatePools() public {\n        uint256 length = poolInfo.length;\n        for (uint256 pid = 0; pid < length; ++pid) {\n            updatePool(pid);\n        }\n    }\n\n    // Update reward variables of the given pool to be up-to-date. poolJOIN  pool\n    function updatePool(uint256 _pid) public {\n        // poolJOIN  pool lastRewardBlockaccJoinPerShare\n        PoolInfo storage pool = poolInfo[_pid];\n        if (block.number <= pool.lastRewardBlock) {\n            return;\n        }\n        uint256 lpSupply;\n        // multLP\n        if (isMultLP(address(pool.lpToken))) {\n            if (pool.totalAmount == 0) {\n                pool.lastRewardBlock = block.number;\n                return;\n            }\n            lpSupply = pool.totalAmount;\n        } else {\n            // \n            lpSupply = pool.lpToken.balanceOf(address(this));\n            if (lpSupply == 0) {\n                pool.lastRewardBlock = block.number;\n                return;\n            }\n        }\n        // pool\n        uint256 blockReward = getJoinBlockReward(pool.lastRewardBlock);\n        if (blockReward <= 0) {\n            return;\n        }\n        // pool\n        uint256 joinReward = blockReward.mul(pool.allocPoint).div(totalAllocPoint);\n        // mint\n//        bool minRet = join.mint(address(this), joinReward);\n//        if (minRet) {\n//            // pool1token\n//            pool.accJoinPerShare = pool.accJoinPerShare.add(joinReward.mul(1e12).div(lpSupply));\n//        }\n        pool.accJoinPerShare = pool.accJoinPerShare.add(joinReward.mul(1e12).div(lpSupply));\n        pool.lastRewardBlock = block.number;\n    }\n\n    // View function to see pending JOINs on frontend.\n    function pending(uint256 _pid, address _user) external view returns (uint256, uint256){\n        // pendingJOINs\n        PoolInfo storage pool = poolInfo[_pid];\n        // _multlptoken\n        if (isMultLP(address(pool.lpToken))) {\n            (uint256 joinAmount, uint256 tokenAmount) = pendingJoinAndToken(_pid, _user);\n            return (joinAmount, tokenAmount);\n        } else {\n            uint256 joinAmount = pendingJoin(_pid, _user);\n            return (joinAmount, 0);\n        }\n    }\n\n    function pendingJoinAndToken(uint256 _pid, address _user) private view returns (uint256, uint256){\n        PoolInfo storage pool = poolInfo[_pid];\n        UserInfo storage user = userInfo[_pid][_user];\n        uint256 accJoinPerShare = pool.accJoinPerShare;\n        uint256 accMultLpPerShare = pool.accMultLpPerShare;\n        if (user.amount > 0) {\n            // chefpendingtoken\n            uint256 TokenPending = IMasterChefHeco(multLpChef).pending(poolCorrespond[_pid], address(this));\n            accMultLpPerShare = accMultLpPerShare.add(TokenPending.mul(1e12).div(pool.totalAmount));\n            // token\n            uint256 userPending = user.amount.mul(accMultLpPerShare).div(1e12).sub(user.multLpRewardDebt);\n            if (block.number > pool.lastRewardBlock) {\n                // JOIN accJoinPerShare tokenJOIN\n                uint256 blockReward = getJoinBlockReward(pool.lastRewardBlock);\n                uint256 joinReward = blockReward.mul(pool.allocPoint).div(totalAllocPoint);\n                accJoinPerShare = accJoinPerShare.add(joinReward.mul(1e12).div(pool.totalAmount));\n\n                return (user.amount.mul(accJoinPerShare).div(1e12).sub(user.rewardDebt), userPending);\n            }\n            if (block.number == pool.lastRewardBlock) {\n                // -join\n                return (user.amount.mul(accJoinPerShare).div(1e12).sub(user.rewardDebt), userPending);\n            }\n        }\n        return (0, 0);\n    }\n\n    function pendingJoin(uint256 _pid, address _user) private view returns (uint256){\n        PoolInfo storage pool = poolInfo[_pid];\n        UserInfo storage user = userInfo[_pid][_user];\n        uint256 accJoinPerShare = pool.accJoinPerShare;\n        uint256 lpSupply = pool.lpToken.balanceOf(address(this));\n        if (user.amount > 0) {\n            if (block.number > pool.lastRewardBlock) {\n                // accJoinPerShare tokenJOIN\n                uint256 blockReward = getJoinBlockReward(pool.lastRewardBlock);\n                uint256 joinReward = blockReward.mul(pool.allocPoint).div(totalAllocPoint);\n                accJoinPerShare = accJoinPerShare.add(joinReward.mul(1e12).div(lpSupply));\n\n                return user.amount.mul(accJoinPerShare).div(1e12).sub(user.rewardDebt);\n            }\n            if (block.number == pool.lastRewardBlock) {\n                return user.amount.mul(accJoinPerShare).div(1e12).sub(user.rewardDebt);\n            }\n        }\n        return 0;\n    }\n\n    // Deposit LP tokens to HecoPool for JOIN allocation.\n    function deposit(uint256 _pid, uint256 _amount) public notPause {\n        PoolInfo storage pool = poolInfo[_pid];\n        if (isMultLP(address(pool.lpToken))) {\n            depositJoinAndToken(_pid, _amount, msg.sender);\n        } else {\n            depositJoin(_pid, _amount, msg.sender);\n        }\n    }\n\n    function depositJoinAndToken(uint256 _pid, uint256 _amount, address _user) private {\n        PoolInfo storage pool = poolInfo[_pid];\n        UserInfo storage user = userInfo[_pid][_user];\n        updatePool(_pid);\n        if (user.amount > 0) {\n            // JOIN\n            uint256 pendingAmount = user.amount.mul(pool.accJoinPerShare).div(1e12).sub(user.rewardDebt);\n            if (pendingAmount > 0) {\n                safeJoinTransfer(_user, pendingAmount);\n            }\n            // accMultLpPerShare\n            uint256 beforeToken = IERC20(multLpToken).balanceOf(address(this));\n            IMasterChefHeco(multLpChef).deposit(poolCorrespond[_pid], 0);\n            uint256 afterToken = IERC20(multLpToken).balanceOf(address(this));\n            pool.accMultLpPerShare = pool.accMultLpPerShare.add(afterToken.sub(beforeToken).mul(1e12).div(pool.totalAmount));\n            // token\n            uint256 tokenPending = user.amount.mul(pool.accMultLpPerShare).div(1e12).sub(user.multLpRewardDebt);\n            if (tokenPending > 0) {\n                // \n                IERC20(multLpToken).safeTransfer(_user, tokenPending);\n            }\n        }\n        if (_amount > 0) {\n            pool.lpToken.safeTransferFrom(_user, address(this), _amount);\n            if (pool.totalAmount == 0) {\n                // \n                IMasterChefHeco(multLpChef).deposit(poolCorrespond[_pid], _amount);\n                user.amount = user.amount.add(_amount);\n                pool.totalAmount = pool.totalAmount.add(_amount);\n            } else {\n                // accMultLpPerShare\n                uint256 beforeToken = IERC20(multLpToken).balanceOf(address(this));\n                IMasterChefHeco(multLpChef).deposit(poolCorrespond[_pid], _amount);\n                uint256 afterToken = IERC20(multLpToken).balanceOf(address(this));\n                // tokenaccMultLpPerShare\n                pool.accMultLpPerShare = pool.accMultLpPerShare.add(afterToken.sub(beforeToken).mul(1e12).div(pool.totalAmount));\n\n                user.amount = user.amount.add(_amount);\n                pool.totalAmount = pool.totalAmount.add(_amount);\n            }\n        }\n        user.rewardDebt = user.amount.mul(pool.accJoinPerShare).div(1e12);\n        user.multLpRewardDebt = user.amount.mul(pool.accMultLpPerShare).div(1e12);\n        emit Deposit(_user, _pid, _amount);\n    }\n\n    function depositJoin(uint256 _pid, uint256 _amount, address _user) private {\n        PoolInfo storage pool = poolInfo[_pid];\n        UserInfo storage user = userInfo[_pid][_user];\n        updatePool(_pid);\n        if (user.amount > 0) {\n            // JOIN\n            uint256 pendingAmount = user.amount.mul(pool.accJoinPerShare).div(1e12).sub(user.rewardDebt);\n            if (pendingAmount > 0) {\n                safeJoinTransfer(_user, pendingAmount);\n            }\n        }\n        if (_amount > 0) {\n            // token\n            pool.lpToken.safeTransferFrom(_user, address(this), _amount);\n            user.amount = user.amount.add(_amount);\n            pool.totalAmount = pool.totalAmount.add(_amount);\n        }\n        user.rewardDebt = user.amount.mul(pool.accJoinPerShare).div(1e12);\n        emit Deposit(_user, _pid, _amount);\n    }\n\n    // Withdraw LP tokens from HecoPool.\n    function withdraw(uint256 _pid, uint256 _amount) public notPause {\n        PoolInfo storage pool = poolInfo[_pid];\n        if (isMultLP(address(pool.lpToken))) {\n            withdrawJoinAndToken(_pid, _amount, msg.sender);\n        } else {\n            withdrawJoin(_pid, _amount, msg.sender);\n        }\n    }\n\n    function withdrawJoinAndToken(uint256 _pid, uint256 _amount, address _user) private {\n        PoolInfo storage pool = poolInfo[_pid];\n        UserInfo storage user = userInfo[_pid][_user];\n        require(user.amount >= _amount, \"withdrawJoinAndToken: not good\");\n        updatePool(_pid);\n        // JOIN\n        uint256 pendingAmount = user.amount.mul(pool.accJoinPerShare).div(1e12).sub(user.rewardDebt);\n        if (pendingAmount > 0) {\n            safeJoinTransfer(_user, pendingAmount);\n        }\n        if (_amount > 0) {\n            // token // accMultLpPerShare\n            uint256 beforeToken = IERC20(multLpToken).balanceOf(address(this));\n            IMasterChefHeco(multLpChef).withdraw(poolCorrespond[_pid], _amount);\n            uint256 afterToken = IERC20(multLpToken).balanceOf(address(this));\n            pool.accMultLpPerShare = pool.accMultLpPerShare.add(afterToken.sub(beforeToken).mul(1e12).div(pool.totalAmount));\n            // token\n            uint256 tokenPending = user.amount.mul(pool.accMultLpPerShare).div(1e12).sub(user.multLpRewardDebt);\n            if (tokenPending > 0) {\n                IERC20(multLpToken).safeTransfer(_user, tokenPending);\n            }\n            user.amount = user.amount.sub(_amount);\n            pool.totalAmount = pool.totalAmount.sub(_amount);\n            pool.lpToken.safeTransfer(_user, _amount);\n        }\n        user.rewardDebt = user.amount.mul(pool.accJoinPerShare).div(1e12);\n        user.multLpRewardDebt = user.amount.mul(pool.accMultLpPerShare).div(1e12);\n        emit Withdraw(_user, _pid, _amount);\n    }\n\n    function withdrawJoin(uint256 _pid, uint256 _amount, address _user) private {\n        PoolInfo storage pool = poolInfo[_pid];\n        UserInfo storage user = userInfo[_pid][_user];\n        require(user.amount >= _amount, \"withdrawJoin: not good\");\n        updatePool(_pid);\n        // \n        uint256 pendingAmount = user.amount.mul(pool.accJoinPerShare).div(1e12).sub(user.rewardDebt);\n        if (pendingAmount > 0) {\n            safeJoinTransfer(_user, pendingAmount);\n        }\n        if (_amount > 0) {\n            user.amount = user.amount.sub(_amount);\n            pool.totalAmount = pool.totalAmount.sub(_amount);\n            pool.lpToken.safeTransfer(_user, _amount);\n        }\n        user.rewardDebt = user.amount.mul(pool.accJoinPerShare).div(1e12);\n        emit Withdraw(_user, _pid, _amount);\n    }\n\n    // Withdraw without caring about rewards. EMERGENCY ONLY.\n    function emergencyWithdraw(uint256 _pid) public notPause {\n        // .  0\n        PoolInfo storage pool = poolInfo[_pid];\n        if (isMultLP(address(pool.lpToken))) {\n            emergencyWithdrawJoinAndToken(_pid, msg.sender);\n        } else {\n            emergencyWithdrawJoin(_pid, msg.sender);\n        }\n    }\n\n    function emergencyWithdrawJoinAndToken(uint256 _pid, address _user) private {\n        PoolInfo storage pool = poolInfo[_pid];\n        UserInfo storage user = userInfo[_pid][_user];\n        uint256 amount = user.amount;\n        // accMultLpPerShare\n        uint256 beforeToken = IERC20(multLpToken).balanceOf(address(this));\n        IMasterChefHeco(multLpChef).withdraw(poolCorrespond[_pid], amount);\n        uint256 afterToken = IERC20(multLpToken).balanceOf(address(this));\n        pool.accMultLpPerShare = pool.accMultLpPerShare.add(afterToken.sub(beforeToken).mul(1e12).div(pool.totalAmount));\n\n        user.amount = 0;\n        user.rewardDebt = 0;\n        pool.lpToken.safeTransfer(_user, amount);\n        pool.totalAmount = pool.totalAmount.sub(amount);\n        emit EmergencyWithdraw(_user, _pid, amount);\n    }\n\n    function emergencyWithdrawJoin(uint256 _pid, address _user) private {\n        PoolInfo storage pool = poolInfo[_pid];\n        UserInfo storage user = userInfo[_pid][_user];\n        uint256 amount = user.amount;\n        user.amount = 0;\n        user.rewardDebt = 0;\n        pool.lpToken.safeTransfer(_user, amount);\n        pool.totalAmount = pool.totalAmount.sub(amount);\n        emit EmergencyWithdraw(_user, _pid, amount);\n    }\n\n    // Safe JOIN transfer function, just in case if rounding error causes pool to not have enough JOINs.\n    function safeJoinTransfer(address _to, uint256 _amount) internal {\n        uint256 joinBal = join.balanceOf(address(this));\n        if (_amount > joinBal) {\n            join.transfer(_to, joinBal);\n        } else {\n            join.transfer(_to, _amount);\n        }\n    }\n\n    modifier notPause() {\n        require(paused == false, \"Mining has been suspended\");\n        _;\n    }\n}\n",
  "sourcePath": "/Users/xingchen/blockchain/joinswap/join_pool/contracts/heco/HecoPool.sol",
  "compiler": {
    "name": "solc",
    "version": "0.6.6+commit.6c089d02.Emscripten.clang"
  },
  "schemaVersion": "3.3.4",
  "updatedAt": "2021-05-19T06:24:35.254Z",
  "networkType": "ethereum",
  "devdoc": {
    "methods": {
      "owner()": {
        "details": "Returns the address of the current owner."
      },
      "renounceOwnership()": {
        "details": "Leaves the contract without owner. It will not be possible to call `onlyOwner` functions anymore. Can only be called by the current owner.     * NOTE: Renouncing ownership will leave the contract without an owner, thereby removing any functionality that is only available to the owner."
      },
      "transferOwnership(address)": {
        "details": "Transfers ownership of the contract to a new account (`newOwner`). Can only be called by the current owner."
      }
    }
  },
  "userdoc": {
    "methods": {}
  }
}