{
  "_format": "hh-sol-artifact-1",
  "contractName": "MiningPool",
  "sourceName": "contracts/MiningLP/MiningPool.sol",
  "abi": [
    {
      "inputs": [
        {
          "internalType": "address",
          "name": "rewardTokenAddress",
          "type": "address"
        },
        {
          "internalType": "address",
          "name": "stakeTokenAddress",
          "type": "address"
        },
        {
          "internalType": "uint256",
          "name": "reward",
          "type": "uint256"
        },
        {
          "internalType": "uint256",
          "name": "duration_",
          "type": "uint256"
        },
        {
          "internalType": "uint256",
          "name": "starttime_",
          "type": "uint256"
        }
      ],
      "stateMutability": "nonpayable",
      "type": "constructor"
    },
    {
      "anonymous": false,
      "inputs": [
        {
          "indexed": true,
          "internalType": "address",
          "name": "account",
          "type": "address"
        }
      ],
      "name": "AdminAdded",
      "type": "event"
    },
    {
      "anonymous": false,
      "inputs": [
        {
          "indexed": true,
          "internalType": "address",
          "name": "account",
          "type": "address"
        }
      ],
      "name": "AdminRemoved",
      "type": "event"
    },
    {
      "anonymous": false,
      "inputs": [
        {
          "indexed": false,
          "internalType": "uint256",
          "name": "reward",
          "type": "uint256"
        }
      ],
      "name": "RewardAdded",
      "type": "event"
    },
    {
      "anonymous": false,
      "inputs": [
        {
          "indexed": true,
          "internalType": "address",
          "name": "user",
          "type": "address"
        },
        {
          "indexed": false,
          "internalType": "uint256",
          "name": "reward",
          "type": "uint256"
        }
      ],
      "name": "RewardPaid",
      "type": "event"
    },
    {
      "anonymous": false,
      "inputs": [
        {
          "indexed": true,
          "internalType": "address",
          "name": "user",
          "type": "address"
        },
        {
          "indexed": false,
          "internalType": "uint256",
          "name": "amount",
          "type": "uint256"
        }
      ],
      "name": "Staked",
      "type": "event"
    },
    {
      "anonymous": false,
      "inputs": [
        {
          "indexed": true,
          "internalType": "address",
          "name": "user",
          "type": "address"
        },
        {
          "indexed": false,
          "internalType": "uint256",
          "name": "amount",
          "type": "uint256"
        }
      ],
      "name": "Withdrawn",
      "type": "event"
    },
    {
      "inputs": [],
      "name": "SoloPid",
      "outputs": [
        {
          "internalType": "uint256",
          "name": "",
          "type": "uint256"
        }
      ],
      "stateMutability": "view",
      "type": "function"
    },
    {
      "inputs": [],
      "name": "SoloSwap",
      "outputs": [
        {
          "internalType": "address",
          "name": "",
          "type": "address"
        }
      ],
      "stateMutability": "view",
      "type": "function"
    },
    {
      "inputs": [],
      "name": "SoloSwapStakeOpen",
      "outputs": [
        {
          "internalType": "uint256",
          "name": "",
          "type": "uint256"
        }
      ],
      "stateMutability": "view",
      "type": "function"
    },
    {
      "inputs": [],
      "name": "SoloSwapWithdrawOpen",
      "outputs": [
        {
          "internalType": "uint256",
          "name": "",
          "type": "uint256"
        }
      ],
      "stateMutability": "view",
      "type": "function"
    },
    {
      "inputs": [
        {
          "internalType": "address",
          "name": "account",
          "type": "address"
        }
      ],
      "name": "addAdmin",
      "outputs": [],
      "stateMutability": "nonpayable",
      "type": "function"
    },
    {
      "inputs": [],
      "name": "allAdmins",
      "outputs": [
        {
          "internalType": "address[]",
          "name": "admins",
          "type": "address[]"
        }
      ],
      "stateMutability": "view",
      "type": "function"
    },
    {
      "inputs": [
        {
          "internalType": "address",
          "name": "account",
          "type": "address"
        }
      ],
      "name": "balanceOf",
      "outputs": [
        {
          "internalType": "uint256",
          "name": "",
          "type": "uint256"
        }
      ],
      "stateMutability": "view",
      "type": "function"
    },
    {
      "inputs": [
        {
          "internalType": "address",
          "name": "",
          "type": "address"
        }
      ],
      "name": "deposits",
      "outputs": [
        {
          "internalType": "uint256",
          "name": "",
          "type": "uint256"
        }
      ],
      "stateMutability": "view",
      "type": "function"
    },
    {
      "inputs": [],
      "name": "duration",
      "outputs": [
        {
          "internalType": "uint256",
          "name": "",
          "type": "uint256"
        }
      ],
      "stateMutability": "view",
      "type": "function"
    },
    {
      "inputs": [
        {
          "internalType": "address",
          "name": "account",
          "type": "address"
        }
      ],
      "name": "earned",
      "outputs": [
        {
          "internalType": "uint256",
          "name": "",
          "type": "uint256"
        }
      ],
      "stateMutability": "view",
      "type": "function"
    },
    {
      "inputs": [],
      "name": "exit",
      "outputs": [],
      "stateMutability": "nonpayable",
      "type": "function"
    },
    {
      "inputs": [],
      "name": "getReward",
      "outputs": [],
      "stateMutability": "nonpayable",
      "type": "function"
    },
    {
      "inputs": [
        {
          "internalType": "address",
          "name": "addr_",
          "type": "address"
        },
        {
          "internalType": "uint256",
          "name": "amount",
          "type": "uint256"
        }
      ],
      "name": "getSoloRewardCoin",
      "outputs": [],
      "stateMutability": "nonpayable",
      "type": "function"
    },
    {
      "inputs": [
        {
          "internalType": "address",
          "name": "addr_",
          "type": "address"
        },
        {
          "internalType": "uint256",
          "name": "amount",
          "type": "uint256"
        }
      ],
      "name": "getToken0",
      "outputs": [],
      "stateMutability": "nonpayable",
      "type": "function"
    },
    {
      "inputs": [
        {
          "internalType": "address",
          "name": "account",
          "type": "address"
        }
      ],
      "name": "isAdmin",
      "outputs": [
        {
          "internalType": "bool",
          "name": "",
          "type": "bool"
        }
      ],
      "stateMutability": "view",
      "type": "function"
    },
    {
      "inputs": [],
      "name": "lastTimeRewardApplicable",
      "outputs": [
        {
          "internalType": "uint256",
          "name": "",
          "type": "uint256"
        }
      ],
      "stateMutability": "view",
      "type": "function"
    },
    {
      "inputs": [],
      "name": "lastUpdateTime",
      "outputs": [
        {
          "internalType": "uint256",
          "name": "",
          "type": "uint256"
        }
      ],
      "stateMutability": "view",
      "type": "function"
    },
    {
      "inputs": [
        {
          "internalType": "uint256",
          "name": "reward",
          "type": "uint256"
        },
        {
          "internalType": "uint256",
          "name": "day_",
          "type": "uint256"
        }
      ],
      "name": "notifyRewardAmount",
      "outputs": [],
      "stateMutability": "nonpayable",
      "type": "function"
    },
    {
      "inputs": [],
      "name": "periodFinish",
      "outputs": [
        {
          "internalType": "uint256",
          "name": "",
          "type": "uint256"
        }
      ],
      "stateMutability": "view",
      "type": "function"
    },
    {
      "inputs": [
        {
          "internalType": "address",
          "name": "account",
          "type": "address"
        }
      ],
      "name": "removeAdmin",
      "outputs": [],
      "stateMutability": "nonpayable",
      "type": "function"
    },
    {
      "inputs": [],
      "name": "renounceAdmin",
      "outputs": [],
      "stateMutability": "nonpayable",
      "type": "function"
    },
    {
      "inputs": [],
      "name": "rewardPerToken",
      "outputs": [
        {
          "internalType": "uint256",
          "name": "",
          "type": "uint256"
        }
      ],
      "stateMutability": "view",
      "type": "function"
    },
    {
      "inputs": [],
      "name": "rewardPerTokenStored",
      "outputs": [
        {
          "internalType": "uint256",
          "name": "",
          "type": "uint256"
        }
      ],
      "stateMutability": "view",
      "type": "function"
    },
    {
      "inputs": [],
      "name": "rewardRate",
      "outputs": [
        {
          "internalType": "uint256",
          "name": "",
          "type": "uint256"
        }
      ],
      "stateMutability": "view",
      "type": "function"
    },
    {
      "inputs": [],
      "name": "rewardToken",
      "outputs": [
        {
          "internalType": "contract IERC20",
          "name": "",
          "type": "address"
        }
      ],
      "stateMutability": "view",
      "type": "function"
    },
    {
      "inputs": [],
      "name": "rewardTotal",
      "outputs": [
        {
          "internalType": "uint256",
          "name": "",
          "type": "uint256"
        }
      ],
      "stateMutability": "view",
      "type": "function"
    },
    {
      "inputs": [
        {
          "internalType": "address",
          "name": "",
          "type": "address"
        }
      ],
      "name": "rewards",
      "outputs": [
        {
          "internalType": "uint256",
          "name": "",
          "type": "uint256"
        }
      ],
      "stateMutability": "view",
      "type": "function"
    },
    {
      "inputs": [
        {
          "internalType": "address",
          "name": "addr_",
          "type": "address"
        }
      ],
      "name": "setSoloRewardCoin",
      "outputs": [],
      "stateMutability": "nonpayable",
      "type": "function"
    },
    {
      "inputs": [
        {
          "internalType": "address",
          "name": "addr_",
          "type": "address"
        },
        {
          "internalType": "address",
          "name": "soloRewardCoin_",
          "type": "address"
        },
        {
          "internalType": "uint256",
          "name": "pid_",
          "type": "uint256"
        },
        {
          "internalType": "uint256",
          "name": "stakeOpen_",
          "type": "uint256"
        },
        {
          "internalType": "uint256",
          "name": "withdrawOpen_",
          "type": "uint256"
        }
      ],
      "name": "setSoloSwap",
      "outputs": [],
      "stateMutability": "nonpayable",
      "type": "function"
    },
    {
      "inputs": [],
      "name": "soloRewardCoin",
      "outputs": [
        {
          "internalType": "contract IERC20",
          "name": "",
          "type": "address"
        }
      ],
      "stateMutability": "view",
      "type": "function"
    },
    {
      "inputs": [
        {
          "internalType": "uint256",
          "name": "amount",
          "type": "uint256"
        }
      ],
      "name": "stake",
      "outputs": [],
      "stateMutability": "nonpayable",
      "type": "function"
    },
    {
      "inputs": [
        {
          "internalType": "uint256",
          "name": "amount",
          "type": "uint256"
        }
      ],
      "name": "stakeSoloSwap2",
      "outputs": [],
      "stateMutability": "nonpayable",
      "type": "function"
    },
    {
      "inputs": [],
      "name": "stakeToken",
      "outputs": [
        {
          "internalType": "contract IERC20",
          "name": "",
          "type": "address"
        }
      ],
      "stateMutability": "view",
      "type": "function"
    },
    {
      "inputs": [],
      "name": "starttime",
      "outputs": [
        {
          "internalType": "uint256",
          "name": "",
          "type": "uint256"
        }
      ],
      "stateMutability": "view",
      "type": "function"
    },
    {
      "inputs": [],
      "name": "totalSupply",
      "outputs": [
        {
          "internalType": "uint256",
          "name": "",
          "type": "uint256"
        }
      ],
      "stateMutability": "view",
      "type": "function"
    },
    {
      "inputs": [],
      "name": "totalSupplySoloSwap",
      "outputs": [
        {
          "internalType": "uint256",
          "name": "",
          "type": "uint256"
        }
      ],
      "stateMutability": "view",
      "type": "function"
    },
    {
      "inputs": [
        {
          "internalType": "uint256",
          "name": "starttime_",
          "type": "uint256"
        }
      ],
      "name": "updateStartTime",
      "outputs": [],
      "stateMutability": "nonpayable",
      "type": "function"
    },
    {
      "inputs": [
        {
          "internalType": "address",
          "name": "",
          "type": "address"
        }
      ],
      "name": "userRewardPerTokenPaid",
      "outputs": [
        {
          "internalType": "uint256",
          "name": "",
          "type": "uint256"
        }
      ],
      "stateMutability": "view",
      "type": "function"
    },
    {
      "inputs": [
        {
          "internalType": "uint256",
          "name": "amount",
          "type": "uint256"
        }
      ],
      "name": "withdraw",
      "outputs": [],
      "stateMutability": "nonpayable",
      "type": "function"
    },
    {
      "inputs": [
        {
          "internalType": "uint256",
          "name": "amount",
          "type": "uint256"
        }
      ],
      "name": "withdrawSoloSwap2",
      "outputs": [],
      "stateMutability": "nonpayable",
      "type": "function"
    }
  ],
  "bytecode": "0x6080604052600060025560006003556000600e556000600f553480156200002557600080fd5b5060405162001d8e38038062001d8e8339810160408190526200004891620001f6565b6200005333620000ef565b600a80546001600160a01b038088166001600160a01b0319928316179092556000805492871692909116919091179055600d81905562000097826201518062000284565b600c819055600b849055620000ba90849062000142602090811b62000e1e17901c565b600f55600d546010819055600c54620000e0919062000159602090811b62000e3317901c565b600e5550620002bc9350505050565b6200010a8160086200016760201b62000e3f1790919060201c565b506040516001600160a01b038216907f44d6d25963f097ad14f29f06854a01f575648a1ef82f30e562ccd3889717e33990600090a250565b600062000150828462000263565b90505b92915050565b600062000150828462000248565b600062000150836001600160a01b038416600062000198838360009081526001919091016020526040902054151590565b620001d05750815460018181018455600084815260208082209093018490558454848252828601909352604090209190915562000153565b50600062000153565b80516001600160a01b0381168114620001f157600080fd5b919050565b600080600080600060a086880312156200020e578081fd5b6200021986620001d9565b94506200022960208701620001d9565b6040870151606088015160809098015196999198509695945092505050565b600082198211156200025e576200025e620002a6565b500190565b6000826200027f57634e487b7160e01b81526012600452602481fd5b500490565b6000816000190483118215151615620002a157620002a1620002a6565b500290565b634e487b7160e01b600052601160045260246000fd5b611ac280620002cc6000396000f3fe608060405234801561001057600080fd5b50600436106102475760003560e01c80637640b26c1161013b578063cd3daf9d116100b8578063e9fad8ee1161007c578063e9fad8ee146104c2578063ebe2b12b146104ca578063f7c618c1146104d3578063f959680b146104e6578063fc7e286d146104ef57610247565b8063cd3daf9d14610482578063cecd16921461048a578063dbf064311461049d578063dc3eeecf146104a6578063df136d65146104b957610247565b80638bad0c0a116100ff5780638bad0c0a1461044c5780638da5889714610454578063a694fc3a1461045d578063c8f33c9114610470578063cc1303f21461047957610247565b80637640b26c146103f55780637b0a47ee146104085780637cc37e791461041157806380faa57d146104245780638b8763471461042c57610247565b806339e459f9116101c95780635be648b81161018d5780635be648b81461038a5780636b0793d21461039d57806370480275146103a657806370a08231146103b957806372354696146103e257610247565b806339e459f91461031c5780633d18b9121461032f57806340f32be61461033757806351ed6a301461034c578063538bd1671461037757610247565b80631785f53c116102105780631785f53c146102b857806318160ddd146102cb578063246132f9146102d357806324d7806c146102e65780632e1a7d4d1461030957610247565b80628cc2621461024c57806305d522cc1461027257806306bcf02f1461027a5780630700037d1461028f5780630fb5a6b4146102af575b600080fd5b61025f61025a3660046117a8565b61050f565b6040519081526020015b60405180910390f35b61025f610590565b61028d610288366004611857565b610597565b005b61025f61029d3660046117a8565b60146020526000908152604090205481565b61025f600c5481565b61028d6102c63660046117a8565b6105ca565b60055461025f565b61028d6102e1366004611887565b6105fb565b6102f96102f43660046117a8565b6107ac565b6040519015158152602001610269565b61028d610317366004611857565b6107b9565b61028d61032a36600461180e565b6108f3565b61028d610933565b61033f610a17565b60405161026991906118c4565b60005461035f906001600160a01b031681565b6040516001600160a01b039091168152602001610269565b61028d610385366004611857565b610ae2565b61028d610398366004611857565b610b10565b61025f60045481565b61028d6103b43660046117a8565b610b3e565b61025f6103c73660046117a8565b6001600160a01b031660009081526007602052604090205490565b60125461035f906001600160a01b031681565b60015461035f906001600160a01b031681565b61025f600f5481565b61028d61041f3660046117c2565b610b6c565b61025f610bce565b61025f61043a3660046117a8565b60136020526000908152604090205481565b61028d610be1565b61025f600d5481565b61028d61046b366004611857565b610bec565b61025f60105481565b61025f60035481565b61025f610d2a565b61028d61049836600461180e565b610d7a565b61025f60025481565b61028d6104b43660046117a8565b610db6565b61025f60115481565b61028d610dfd565b61025f600e5481565b600a5461035f906001600160a01b031681565b61025f600b5481565b61025f6104fd3660046117a8565b60156020526000908152604090205481565b6001600160a01b0381166000908152601460209081526040808320546013909252822054610588919061058290670de0b6b3a76400009061057c9061055c90610556610d2a565b90610e54565b6001600160a01b0388166000908152600760205260409020545b90610e60565b90610e1e565b90610e33565b90505b919050565b6006545b90565b6105a0336107ac565b6105c55760405162461bcd60e51b81526004016105bc90611973565b60405180910390fd5b600d55565b6105d3336107ac565b6105ef5760405162461bcd60e51b81526004016105bc90611973565b6105f881610e6c565b50565b610604336107ac565b6106205760405162461bcd60e51b81526004016105bc90611973565b600061062a610d2a565b601155610635610bce565b6010556001600160a01b0381161561067c576106508161050f565b6001600160a01b0382166000908152601460209081526040808320939093556011546013909152919020555b600061068b83620151806119f9565b9050600e54421061070a576106bf6106b86106b1600e5442610e5490919063ffffffff16565b8390610e54565b8590610e1e565b600f55600e546106cf9082610e33565b600e556040518481527fde88a922e0d3b88b24e9623efeb464919c6bf9f66857a65e2bfcf2ce87a9433d9060200160405180910390a16107a6565b600e5460009061071a9042610e54565b9050600061073382600f54610e6090919063ffffffff16565b905060006107418288610e33565b9050600061074f8486610e33565b905061075b8282610e1e565b600f55600e5461076b9086610e33565b600e556040518881527fde88a922e0d3b88b24e9623efeb464919c6bf9f66857a65e2bfcf2ce87a9433d9060200160405180910390a1505050505b50505050565b6000610588600883610eaf565b336107c2610d2a565b6011556107cd610bce565b6010556001600160a01b03811615610814576107e88161050f565b6001600160a01b0382166000908152601460209081526040808320939093556011546013909152919020555b600d544210156108365760405162461bcd60e51b81526004016105bc90611944565b600082116108865760405162461bcd60e51b815260206004820152601d60248201527f4d696e696e67506f6f6c3a2043616e6e6f74207769746864726177203000000060448201526064016105bc565b336000908152601560205260409020546108a09083610e54565b336000908152601560205260409020556108b982610ed1565b60405182815233907f7084f5476618d8e60b11ef0d7d3f06914655adb8793e28ff7f018d4c76d505d5906020015b60405180910390a25050565b6108fc336107ac565b6109185760405162461bcd60e51b81526004016105bc90611973565b60125461092f906001600160a01b03168383610f94565b5050565b3361093c610d2a565b601155610947610bce565b6010556001600160a01b0381161561098e576109628161050f565b6001600160a01b0382166000908152601460209081526040808320939093556011546013909152919020555b600d544210156109b05760405162461bcd60e51b81526004016105bc90611944565b60006109bb3361050f565b33600081815260146020526040812055600a549192506109e5916001600160a01b03169083610f94565b60405181815233907fe2403640ba68fed3a2f88b7557551d1993f84b99bb10ff833f0cf8db0c5e0486906020016108e7565b6060610a236008610ffc565b67ffffffffffffffff811115610a4957634e487b7160e01b600052604160045260246000fd5b604051908082528060200260200182016040528015610a72578160200160208202803683370190505b50905060005b610a826008610ffc565b811015610ade57610a94600882611006565b828281518110610ab457634e487b7160e01b600052603260045260246000fd5b6001600160a01b039092166020928302919091019091015280610ad681611a5b565b915050610a78565b5090565b610aeb336107ac565b610b075760405162461bcd60e51b81526004016105bc90611973565b6105f881611012565b610b19336107ac565b610b355760405162461bcd60e51b81526004016105bc90611973565b6105f8816110b5565b610b47336107ac565b610b635760405162461bcd60e51b81526004016105bc90611973565b6105f881611125565b610b75336107ac565b610b915760405162461bcd60e51b81526004016105bc90611973565b600180546001600160a01b039687166001600160a01b03199182161790915560049390935560029190915560035560128054929093169116179055565b6000610bdc42600e54611168565b905090565b610bea33610e6c565b565b33610bf5610d2a565b601155610c00610bce565b6010556001600160a01b03811615610c4757610c1b8161050f565b6001600160a01b0382166000908152601460209081526040808320939093556011546013909152919020555b600d54421015610c695760405162461bcd60e51b81526004016105bc90611944565b60008211610cb95760405162461bcd60e51b815260206004820152601a60248201527f4d696e696e67506f6f6c3a2043616e6e6f74207374616b65203000000000000060448201526064016105bc565b33600090815260156020526040812054610cd39084610e33565b3360009081526015602052604090208190559050610cf08361117e565b60405183815233907f9e71bc8eea02a63969f509818f2dafb9254532904319f9dbda79b67bd34a5f3d9060200160405180910390a2505050565b6000610d3560055490565b610d425750601154610594565b610bdc610d71610d5160055490565b61057c670de0b6b3a7640000610576600f54610576601054610556610bce565b60115490610e33565b610d83336107ac565b610d9f5760405162461bcd60e51b81526004016105bc90611973565b600a5461092f906001600160a01b03168383610f94565b610dbf336107ac565b610ddb5760405162461bcd60e51b81526004016105bc90611973565b601280546001600160a01b0319166001600160a01b0392909216919091179055565b33600090815260076020526040902054610e1690610317565b610bea610933565b6000610e2a82846119d9565b90505b92915050565b6000610e2a82846119c1565b6000610e2a836001600160a01b0384166111d4565b6000610e2a8284611a18565b6000610e2a82846119f9565b610e77600882611223565b506040516001600160a01b038216907fa3b62bc36326052d97ea62d63c3d60308ed4c3ea8ac079dd8499f1e9c4f80c0f90600090a250565b6001600160a01b03811660009081526001830160205260408120541515610e2a565b33600090815260076020526040902054811115610f3a5760405162461bcd60e51b815260206004820152602160248201527f536f6c6f546f6b656e577261707065723a2043616e6e6f7420776974686472616044820152607760f81b60648201526084016105bc565b610f43816110b5565b600554610f509082610e54565b60055533600090815260076020526040902054610f6d9082610e54565b3360008181526007602052604081209290925590546105f8916001600160a01b0390911690835b6040516001600160a01b038316602482015260448101829052610ff790849063a9059cbb60e01b906064015b60408051601f198184030181529190526020810180516001600160e01b03166001600160e01b031990931692909217909152611238565b505050565b6000610588825490565b6000610e2a838361130a565b60025461101e576105f8565b60065461102b9082610e33565b60065560015460005461104b916001600160a01b0391821691168361139e565b60015460048054604051631c57762b60e31b815291820152602481018390526001600160a01b039091169063e2bbb158906044015b600060405180830381600087803b15801561109a57600080fd5b505af11580156110ae573d6000803e3d6000fd5b5050505050565b6003546110c1576105f8565b6006546110cd576105f8565b6006548111156110dc57506006545b6006546110e99082610e54565b60065560015460048054604051630441a3e760e41b815291820152602481018390526001600160a01b039091169063441a3e7090604401611080565b611130600882610e3f565b506040516001600160a01b038216907f44d6d25963f097ad14f29f06854a01f575648a1ef82f30e562ccd3889717e33990600090a250565b60008183106111775781610e2a565b5090919050565b60055461118b9082610e33565b600555336000908152600760205260409020546111a89082610e33565b336000818152600760205260408120929092559054610b07916001600160a01b039091169030846114c2565b600081815260018301602052604081205461121b57508154600181810184556000848152602080822090930184905584548482528286019093526040902091909155610e2d565b506000610e2d565b6000610e2a836001600160a01b0384166114fa565b600061128d826040518060400160405280602081526020017f5361666545524332303a206c6f772d6c6576656c2063616c6c206661696c6564815250856001600160a01b03166116179092919063ffffffff16565b805190915015610ff757808060200190518101906112ab9190611837565b610ff75760405162461bcd60e51b815260206004820152602a60248201527f5361666545524332303a204552433230206f7065726174696f6e20646964206e6044820152691bdd081cdd58d8d9595960b21b60648201526084016105bc565b815460009082106113685760405162461bcd60e51b815260206004820152602260248201527f456e756d657261626c655365743a20696e646578206f7574206f6620626f756e604482015261647360f01b60648201526084016105bc565b82600001828154811061138b57634e487b7160e01b600052603260045260246000fd5b9060005260206000200154905092915050565b8015806114275750604051636eb1769f60e11b81523060048201526001600160a01b03838116602483015284169063dd62ed3e9060440160206040518083038186803b1580156113ed57600080fd5b505afa158015611401573d6000803e3d6000fd5b505050506040513d601f19601f82011682018060405250810190611425919061186f565b155b6114925760405162461bcd60e51b815260206004820152603660248201527f5361666545524332303a20617070726f76652066726f6d206e6f6e2d7a65726f60448201527520746f206e6f6e2d7a65726f20616c6c6f77616e636560501b60648201526084016105bc565b6040516001600160a01b038316602482015260448101829052610ff790849063095ea7b360e01b90606401610fc0565b6040516001600160a01b03808516602483015283166044820152606481018290526107a69085906323b872dd60e01b90608401610fc0565b6000818152600183016020526040812054801561160d57600061151e600183611a18565b855490915060009061153290600190611a18565b9050600086600001828154811061155957634e487b7160e01b600052603260045260246000fd5b906000526020600020015490508087600001848154811061158a57634e487b7160e01b600052603260045260246000fd5b6000918252602090912001556115a18360016119c1565b600082815260018901602052604090205586548790806115d157634e487b7160e01b600052603160045260246000fd5b60019003818190600052602060002001600090559055866001016000878152602001908152602001600020600090556001945050505050610e2d565b6000915050610e2d565b60606116268484600085611630565b90505b9392505050565b6060824710156116915760405162461bcd60e51b815260206004820152602660248201527f416464726573733a20696e73756666696369656e742062616c616e636520666f6044820152651c8818d85b1b60d21b60648201526084016105bc565b843b6116df5760405162461bcd60e51b815260206004820152601d60248201527f416464726573733a2063616c6c20746f206e6f6e2d636f6e747261637400000060448201526064016105bc565b600080866001600160a01b031685876040516116fb91906118a8565b60006040518083038185875af1925050503d8060008114611738576040519150601f19603f3d011682016040523d82523d6000602084013e61173d565b606091505b509150915061174d828286611758565b979650505050505050565b60608315611767575081611629565b8251156117775782518084602001fd5b8160405162461bcd60e51b81526004016105bc9190611911565b80356001600160a01b038116811461058b57600080fd5b6000602082840312156117b9578081fd5b610e2a82611791565b600080600080600060a086880312156117d9578081fd5b6117e286611791565b94506117f060208701611791565b94979496505050506040830135926060810135926080909101359150565b60008060408385031215611820578182fd5b61182983611791565b946020939093013593505050565b600060208284031215611848578081fd5b81518015158114611629578182fd5b600060208284031215611868578081fd5b5035919050565b600060208284031215611880578081fd5b5051919050565b60008060408385031215611899578182fd5b50508035926020909101359150565b600082516118ba818460208701611a2f565b9190910192915050565b6020808252825182820181905260009190848201906040850190845b818110156119055783516001600160a01b0316835292840192918401916001016118e0565b50909695505050505050565b6000602082528251806020840152611930816040850160208701611a2f565b601f01601f19169190910160400192915050565b602080825260159082015274135a5b9a5b99d41bdbdb0e881b9bdd081cdd185c9d605a1b604082015260600190565b6020808252602e908201527f41646d696e526f6c653a2063616c6c657220646f6573206e6f7420686176652060408201526d7468652041646d696e20726f6c6560901b606082015260800190565b600082198211156119d4576119d4611a76565b500190565b6000826119f457634e487b7160e01b81526012600452602481fd5b500490565b6000816000190483118215151615611a1357611a13611a76565b500290565b600082821015611a2a57611a2a611a76565b500390565b60005b83811015611a4a578181015183820152602001611a32565b838111156107a65750506000910152565b6000600019821415611a6f57611a6f611a76565b5060010190565b634e487b7160e01b600052601160045260246000fdfea2646970667358221220ba7f3335f071ccd079a10ea5b98f317e43cafcf6b92c5c8915de35e78b60b4c364736f6c63430008030033",
  "linkReferences": {},
  "deployedLinkReferences": {}
}