{
  "contractName": "NFTBonus",
  "abi": [
    {
      "inputs": [
        {
          "internalType": "address",
          "name": "_vipNFT",
          "type": "address"
        },
        {
          "internalType": "address",
          "name": "_nFTInvitation",
          "type": "address"
        },
        {
          "internalType": "address",
          "name": "_burnAddr",
          "type": "address"
        }
      ],
      "stateMutability": "nonpayable",
      "type": "constructor"
    },
    {
      "anonymous": false,
      "inputs": [
        {
          "indexed": true,
          "internalType": "address",
          "name": "account",
          "type": "address"
        }
      ],
      "name": "AdminAdded",
      "type": "event"
    },
    {
      "anonymous": false,
      "inputs": [
        {
          "indexed": true,
          "internalType": "address",
          "name": "account",
          "type": "address"
        }
      ],
      "name": "AdminRemoved",
      "type": "event"
    },
    {
      "anonymous": false,
      "inputs": [
        {
          "indexed": false,
          "internalType": "uint256",
          "name": "reward",
          "type": "uint256"
        }
      ],
      "name": "RewardAdded",
      "type": "event"
    },
    {
      "anonymous": false,
      "inputs": [
        {
          "indexed": true,
          "internalType": "address",
          "name": "user",
          "type": "address"
        },
        {
          "indexed": false,
          "internalType": "uint256",
          "name": "reward",
          "type": "uint256"
        }
      ],
      "name": "RewardPaid",
      "type": "event"
    },
    {
      "inputs": [
        {
          "internalType": "address",
          "name": "account",
          "type": "address"
        }
      ],
      "name": "addAdmin",
      "outputs": [],
      "stateMutability": "nonpayable",
      "type": "function"
    },
    {
      "inputs": [],
      "name": "allAdmins",
      "outputs": [
        {
          "internalType": "address[]",
          "name": "admins",
          "type": "address[]"
        }
      ],
      "stateMutability": "view",
      "type": "function",
      "constant": true
    },
    {
      "inputs": [],
      "name": "burnAddr",
      "outputs": [
        {
          "internalType": "address",
          "name": "",
          "type": "address"
        }
      ],
      "stateMutability": "view",
      "type": "function",
      "constant": true
    },
    {
      "inputs": [
        {
          "internalType": "address",
          "name": "account",
          "type": "address"
        }
      ],
      "name": "isAdmin",
      "outputs": [
        {
          "internalType": "bool",
          "name": "",
          "type": "bool"
        }
      ],
      "stateMutability": "view",
      "type": "function",
      "constant": true
    },
    {
      "inputs": [
        {
          "internalType": "uint32",
          "name": "",
          "type": "uint32"
        }
      ],
      "name": "levelBonusRate",
      "outputs": [
        {
          "internalType": "uint256",
          "name": "",
          "type": "uint256"
        }
      ],
      "stateMutability": "view",
      "type": "function",
      "constant": true
    },
    {
      "inputs": [
        {
          "internalType": "uint32",
          "name": "",
          "type": "uint32"
        }
      ],
      "name": "levelBonusReward",
      "outputs": [
        {
          "internalType": "uint256",
          "name": "",
          "type": "uint256"
        }
      ],
      "stateMutability": "view",
      "type": "function",
      "constant": true
    },
    {
      "inputs": [],
      "name": "nFTInvitation",
      "outputs": [
        {
          "internalType": "contract INFTInvitation",
          "name": "",
          "type": "address"
        }
      ],
      "stateMutability": "view",
      "type": "function",
      "constant": true
    },
    {
      "inputs": [
        {
          "internalType": "address",
          "name": "account",
          "type": "address"
        }
      ],
      "name": "removeAdmin",
      "outputs": [],
      "stateMutability": "nonpayable",
      "type": "function"
    },
    {
      "inputs": [],
      "name": "renounceAdmin",
      "outputs": [],
      "stateMutability": "nonpayable",
      "type": "function"
    },
    {
      "inputs": [],
      "name": "storeAddr",
      "outputs": [
        {
          "internalType": "address",
          "name": "",
          "type": "address"
        }
      ],
      "stateMutability": "view",
      "type": "function",
      "constant": true
    },
    {
      "inputs": [],
      "name": "vipNFT",
      "outputs": [
        {
          "internalType": "contract IVipNFT",
          "name": "",
          "type": "address"
        }
      ],
      "stateMutability": "view",
      "type": "function",
      "constant": true
    },
    {
      "inputs": [
        {
          "internalType": "address",
          "name": "token",
          "type": "address"
        }
      ],
      "name": "earned",
      "outputs": [
        {
          "internalType": "uint256",
          "name": "",
          "type": "uint256"
        }
      ],
      "stateMutability": "view",
      "type": "function",
      "constant": true
    },
    {
      "inputs": [
        {
          "internalType": "address",
          "name": "token",
          "type": "address"
        }
      ],
      "name": "getReward",
      "outputs": [],
      "stateMutability": "nonpayable",
      "type": "function"
    },
    {
      "inputs": [
        {
          "internalType": "address",
          "name": "token",
          "type": "address"
        },
        {
          "internalType": "uint256",
          "name": "amount",
          "type": "uint256"
        },
        {
          "internalType": "uint32",
          "name": "maxLevel",
          "type": "uint32"
        }
      ],
      "name": "release",
      "outputs": [],
      "stateMutability": "nonpayable",
      "type": "function"
    },
    {
      "inputs": [
        {
          "internalType": "address",
          "name": "token",
          "type": "address"
        },
        {
          "internalType": "uint256",
          "name": "_nftNo",
          "type": "uint256"
        }
      ],
      "name": "getInvestorReward",
      "outputs": [
        {
          "internalType": "uint256",
          "name": "",
          "type": "uint256"
        }
      ],
      "stateMutability": "view",
      "type": "function",
      "constant": true
    },
    {
      "inputs": [
        {
          "internalType": "uint256[]",
          "name": "_bonusRate",
          "type": "uint256[]"
        }
      ],
      "name": "setLevelBonusRate",
      "outputs": [],
      "stateMutability": "nonpayable",
      "type": "function"
    },
    {
      "inputs": [
        {
          "internalType": "address",
          "name": "_vipNFT",
          "type": "address"
        }
      ],
      "name": "setVipNFT",
      "outputs": [],
      "stateMutability": "nonpayable",
      "type": "function"
    },
    {
      "inputs": [
        {
          "internalType": "address",
          "name": "_burnAddr",
          "type": "address"
        }
      ],
      "name": "setBurnAddr",
      "outputs": [],
      "stateMutability": "nonpayable",
      "type": "function"
    },
    {
      "inputs": [
        {
          "internalType": "address",
          "name": "_NFInvitation",
          "type": "address"
        }
      ],
      "name": "setNFTInvitation",
      "outputs": [],
      "stateMutability": "nonpayable",
      "type": "function"
    }
  ],
  "bytecode": "0x60806040523480156200001157600080fd5b506040516200172838038062001728833981016040819052620000349162000164565b6200003f3362000082565b600280546001600160a01b039485166001600160a01b031991821617909155600380549385169382169390931790925560048054919093169116179055620001ad565b6200009d816000620000d560201b62000bad1790919060201c565b506040516001600160a01b038216907f44d6d25963f097ad14f29f06854a01f575648a1ef82f30e562ccd3889717e33990600090a250565b6000620000ec836001600160a01b038416620000f5565b90505b92915050565b60008181526001830160205260408120546200013e57508154600181810184556000848152602080822090930184905584548482528286019093526040902091909155620000ef565b506000620000ef565b80516001600160a01b03811681146200015f57600080fd5b919050565b60008060006060848603121562000179578283fd5b620001848462000147565b9250620001946020850162000147565b9150620001a46040850162000147565b90509250925092565b61156b80620001bd6000396000f3fe608060405234801561001057600080fd5b50600436106101205760003560e01c80637ab685c9116100ad578063bd07651b11610071578063bd07651b1461027d578063c00007b014610290578063d246d411146102a3578063dd59b81d146102b6578063f7ad7c62146102c957610120565b80637ab685c91461021157806389f251fd146102245780638bad0c0a146102375780639feb1cb91461023f578063a65bdf561461026a57610120565b80631785f53c116100f45780631785f53c1461019357806324d7806c146101a65780633793559e146101c957806340f32be6146101e957806370480275146101fe57610120565b80628cc26214610125578063046bf9351461014b57806308893bd21461015e578063114a53c01461017e575b600080fd5b61013861013336600461115b565b6102dc565b6040519081526020015b60405180910390f35b610138610159366004611175565b6103a4565b61013861016c3660046112f8565b60076020526000908152604090205481565b61019161018c36600461119e565b610400565b005b6101916101a136600461115b565b61070c565b6101b96101b436600461115b565b61073d565b6040519015158152602001610142565b6101386101d73660046112f8565b60066020526000908152604090205481565b6101f1610749565b604051610142919061134c565b61019161020c36600461115b565b610814565b61019161021f36600461115b565b610842565b6101916102323660046111dd565b610889565b61019161091f565b600254610252906001600160a01b031681565b6040516001600160a01b039091168152602001610142565b61019161027836600461115b565b61092a565b61019161028b36600461115b565b610971565b61019161029e36600461115b565b6109b8565b600454610252906001600160a01b031681565b600554610252906001600160a01b031681565b600354610252906001600160a01b031681565b60025460405163a84a507160e01b815233600482015260009182916001600160a01b039091169063a84a50719060240160206040518083038186803b15801561032457600080fd5b505afa158015610338573d6000803e3d6000fd5b505050506040513d601f19601f8201168201806040525081019061035c91906112bd565b6001600160a01b0384166000908152600860209081526040808320848452909152902054909150606490610391906050611452565b61039b9190611432565b9150505b919050565b60006103af3361073d565b6103d45760405162461bcd60e51b81526004016103cb906113cc565b60405180910390fd5b506001600160a01b03821660009081526008602090815260408083208484529091529020545b92915050565b6104093361073d565b6104255760405162461bcd60e51b81526004016103cb906113cc565b600082116104755760405162461bcd60e51b815260206004820152601b60248201527f4e465453746f72653a2043616e6e6f7420616c6c6f636174652030000000000060448201526064016103cb565b61271060005b8263ffffffff168163ffffffff1610156105a457600254604051631f14adbf60e01b815263ffffffff831660048201526000916001600160a01b031690631f14adbf9060240160206040518083038186803b1580156104d957600080fd5b505afa1580156104ed573d6000803e3d6000fd5b505050506040513d601f19601f8201168201806040525081019061051191906112bd565b9050801561056d5763ffffffff8216600090815260066020526040902054819060649061053e9088611452565b6105489190611432565b6105529190611432565b63ffffffff8316600090815260076020526040902055610584565b63ffffffff82166000908152600760205260408120555b61058e818461141a565b925050808061059c906114d3565b91505061047b565b506127115b6105b482600161141a565b8110156106d25760025460405163080e035d60e01b8152600481018390526000916001600160a01b03169063080e035d9060240160206040518083038186803b15801561060057600080fd5b505afa158015610614573d6000803e3d6000fd5b505050506040513d601f19601f820116820180604052508101906106389190611314565b63ffffffff8116600090815260076020526040902054909150156106bf5763ffffffff8082166000908152600760209081526040808320546001600160a01b038b168452600883528184208785529092529091205461069a92909190610bc916565b6001600160a01b03871660009081526008602090815260408083208684529091529020555b50806106ca816114b8565b9150506105a9565b506040518381527fde88a922e0d3b88b24e9623efeb464919c6bf9f66857a65e2bfcf2ce87a9433d9060200160405180910390a150505050565b6107153361073d565b6107315760405162461bcd60e51b81526004016103cb906113cc565b61073a81610bd5565b50565b60006103fa8183610c18565b60606107556000610c3a565b67ffffffffffffffff81111561077b57634e487b7160e01b600052604160045260246000fd5b6040519080825280602002602001820160405280156107a4578160200160208202803683370190505b50905060005b6107b46000610c3a565b811015610810576107c6600082610c44565b8282815181106107e657634e487b7160e01b600052603260045260246000fd5b6001600160a01b039092166020928302919091019091015280610808816114b8565b9150506107aa565b5090565b61081d3361073d565b6108395760405162461bcd60e51b81526004016103cb906113cc565b61073a81610c50565b61084b3361073d565b6108675760405162461bcd60e51b81526004016103cb906113cc565b600480546001600160a01b0319166001600160a01b0392909216919091179055565b6108923361073d565b6108ae5760405162461bcd60e51b81526004016103cb906113cc565b60005b81518163ffffffff16101561091b57818163ffffffff16815181106108e657634e487b7160e01b600052603260045260246000fd5b60209081029190910181015163ffffffff83166000908152600690925260409091205580610913816114d3565b9150506108b1565b5050565b61092833610bd5565b565b6109333361073d565b61094f5760405162461bcd60e51b81526004016103cb906113cc565b600380546001600160a01b0319166001600160a01b0392909216919091179055565b61097a3361073d565b6109965760405162461bcd60e51b81526004016103cb906113cc565b600280546001600160a01b0319166001600160a01b0392909216919091179055565b60025460405163a84a507160e01b81523360048201526000916001600160a01b03169063a84a50719060240160206040518083038186803b1580156109fc57600080fd5b505afa158015610a10573d6000803e3d6000fd5b505050506040513d601f19601f82011682018060405250810190610a3491906112bd565b6001600160a01b03831660009081526008602090815260408083208484529091529020549091508015610ba8576001600160a01b0383811660009081526008602090815260408083208684529091528082208290556003549051633594284960e21b815260048101869052602481018590529192839291169063d650a124906044016040805180830381600087803b158015610acf57600080fd5b505af1158015610ae3573d6000803e3d6000fd5b505050506040513d601f19601f82011682018060405250810190610b0791906112d5565b9092509050610b206001600160a01b0386163384610c93565b8015610b4557600454610b40906001600160a01b03878116911683610c93565b610b70565b600554610b70906001600160a01b0316610b5f8486611471565b6001600160a01b0388169190610c93565b60405183815233907fe2403640ba68fed3a2f88b7557551d1993f84b99bb10ff833f0cf8db0c5e04869060200160405180910390a250505b505050565b6000610bc2836001600160a01b038416610ce5565b9392505050565b6000610bc2828461141a565b610be0600082610d34565b506040516001600160a01b038216907fa3b62bc36326052d97ea62d63c3d60308ed4c3ea8ac079dd8499f1e9c4f80c0f90600090a250565b6001600160a01b03811660009081526001830160205260408120541515610bc2565b60006103fa825490565b6000610bc28383610d49565b610c5b600082610bad565b506040516001600160a01b038216907f44d6d25963f097ad14f29f06854a01f575648a1ef82f30e562ccd3889717e33990600090a250565b604080516001600160a01b038416602482015260448082018490528251808303909101815260649091019091526020810180516001600160e01b031663a9059cbb60e01b179052610ba8908490610ddd565b6000818152600183016020526040812054610d2c575081546001818101845560008481526020808220909301849055845484825282860190935260409020919091556103fa565b5060006103fa565b6000610bc2836001600160a01b038416610eaf565b81546000908210610da75760405162461bcd60e51b815260206004820152602260248201527f456e756d657261626c655365743a20696e646578206f7574206f6620626f756e604482015261647360f01b60648201526084016103cb565b826000018281548110610dca57634e487b7160e01b600052603260045260246000fd5b9060005260206000200154905092915050565b6000610e32826040518060400160405280602081526020017f5361666545524332303a206c6f772d6c6576656c2063616c6c206661696c6564815250856001600160a01b0316610fcc9092919063ffffffff16565b805190915015610ba85780806020019051810190610e50919061129d565b610ba85760405162461bcd60e51b815260206004820152602a60248201527f5361666545524332303a204552433230206f7065726174696f6e20646964206e6044820152691bdd081cdd58d8d9595960b21b60648201526084016103cb565b60008181526001830160205260408120548015610fc2576000610ed3600183611471565b8554909150600090610ee790600190611471565b90506000866000018281548110610f0e57634e487b7160e01b600052603260045260246000fd5b9060005260206000200154905080876000018481548110610f3f57634e487b7160e01b600052603260045260246000fd5b600091825260209091200155610f5683600161141a565b60008281526001890160205260409020558654879080610f8657634e487b7160e01b600052603160045260246000fd5b600190038181906000526020600020016000905590558660010160008781526020019081526020016000206000905560019450505050506103fa565b60009150506103fa565b6060610fdb8484600085610fe3565b949350505050565b6060824710156110445760405162461bcd60e51b815260206004820152602660248201527f416464726573733a20696e73756666696369656e742062616c616e636520666f6044820152651c8818d85b1b60d21b60648201526084016103cb565b843b6110925760405162461bcd60e51b815260206004820152601d60248201527f416464726573733a2063616c6c20746f206e6f6e2d636f6e747261637400000060448201526064016103cb565b600080866001600160a01b031685876040516110ae9190611330565b60006040518083038185875af1925050503d80600081146110eb576040519150601f19603f3d011682016040523d82523d6000602084013e6110f0565b606091505b509150915061110082828661110b565b979650505050505050565b6060831561111a575081610bc2565b82511561112a5782518084602001fd5b8160405162461bcd60e51b81526004016103cb9190611399565b80356001600160a01b038116811461039f57600080fd5b60006020828403121561116c578081fd5b610bc282611144565b60008060408385031215611187578081fd5b61119083611144565b946020939093013593505050565b6000806000606084860312156111b2578081fd5b6111bb84611144565b92506020840135915060408401356111d281611523565b809150509250925092565b600060208083850312156111ef578182fd5b823567ffffffffffffffff80821115611206578384fd5b818501915085601f830112611219578384fd5b81358181111561122b5761122b61150d565b8060051b604051601f19603f830116810181811085821117156112505761125061150d565b604052828152858101935084860182860187018a101561126e578788fd5b8795505b83861015611290578035855260019590950194938601938601611272565b5098975050505050505050565b6000602082840312156112ae578081fd5b81518015158114610bc2578182fd5b6000602082840312156112ce578081fd5b5051919050565b600080604083850312156112e7578182fd5b505080516020909101519092909150565b600060208284031215611309578081fd5b8135610bc281611523565b600060208284031215611325578081fd5b8151610bc281611523565b60008251611342818460208701611488565b9190910192915050565b6020808252825182820181905260009190848201906040850190845b8181101561138d5783516001600160a01b031683529284019291840191600101611368565b50909695505050505050565b60006020825282518060208401526113b8816040850160208701611488565b601f01601f19169190910160400192915050565b6020808252602e908201527f41646d696e526f6c653a2063616c6c657220646f6573206e6f7420686176652060408201526d7468652041646d696e20726f6c6560901b606082015260800190565b6000821982111561142d5761142d6114f7565b500190565b60008261144d57634e487b7160e01b81526012600452602481fd5b500490565b600081600019048311821515161561146c5761146c6114f7565b500290565b600082821015611483576114836114f7565b500390565b60005b838110156114a357818101518382015260200161148b565b838111156114b2576000848401525b50505050565b60006000198214156114cc576114cc6114f7565b5060010190565b600063ffffffff808316818114156114ed576114ed6114f7565b6001019392505050565b634e487b7160e01b600052601160045260246000fd5b634e487b7160e01b600052604160045260246000fd5b63ffffffff8116811461073a57600080fdfea2646970667358221220ab2951db713786177d4361594a2f3062b7eb457fad6e913eadac929b6e0fe7cc64736f6c63430008030033",
  "immutableReferences": {},
  "source": "//SPDX-License-Identifier: MIT\npragma solidity >=0.8.0 <0.9.0;\n\nimport \"@openzeppelin/contracts/token/ERC20/IERC20.sol\";\nimport \"@openzeppelin/contracts/token/ERC20/utils/SafeERC20.sol\";\nimport '@openzeppelin/contracts/utils/math/SafeMath.sol';\nimport \"./owner/AdminRole.sol\";\nimport \"./interface/INFTInvitation.sol\";\nimport \"./interface/IVipNFT.sol\";\n\n\ncontract NFTBonus is AdminRole {\n    using SafeERC20 for IERC20;\n    using SafeMath for uint256;\n\n    IVipNFT public vipNFT;\n    INFTInvitation public nFTInvitation;\n    address public burnAddr;\n    address public storeAddr;\n    mapping(uint32 => uint256) public levelBonusRate; // \n    mapping(uint32 => uint256) public levelBonusReward; // \n\n    constructor(\n        address _vipNFT,\n        address _nFTInvitation,\n        address _burnAddr\n    ) {\n        vipNFT = IVipNFT(_vipNFT);\n        nFTInvitation = INFTInvitation(_nFTInvitation);\n        burnAddr = _burnAddr;\n    }\n\n    mapping(address => mapping(uint256 => uint256)) private investors;  //  investors[token][number]\n\n\n    function earned(address token) public view returns (uint256) {\n        uint256 nftNo = vipNFT.getOwnerNFTNo(msg.sender);\n        return investors[token][nftNo] * 80 / 100;\n    }\n\n    function getReward(address token) public {\n        uint256 nftNo = vipNFT.getOwnerNFTNo(msg.sender);\n        uint256 reward = investors[token][nftNo];\n        if (reward > 0) {\n            investors[token][nftNo] = 0;\n\n            (uint256 rewardV, uint256 _burnRwd) = nFTInvitation.allocDirectReward(nftNo, reward);\n            IERC20(token).safeTransfer(msg.sender, rewardV);\n\n            if (_burnRwd > 0) {\n                IERC20(token).safeTransfer(burnAddr, _burnRwd);\n            } else {\n                IERC20(token).safeTransfer(storeAddr, reward - rewardV);\n            }\n            emit RewardPaid(msg.sender, reward);\n        }\n    }\n\n    function release(address token, uint256 amount, uint32 maxLevel) //\n        external\n        onlyAdmin\n    {\n        require(amount > 0, 'NFTStore: Cannot allocate 0');\n\n        // \n        uint256 maxNFTNumber = 10000;\n        for (uint32 index = 0; index < maxLevel; index++) {\n            uint256 lvNum = vipNFT.getNFTsLevelNum(index);\n            if (lvNum > 0) {\n                levelBonusReward[index] = ((amount * levelBonusRate[index]) / 100) / lvNum;\n            } else {\n                levelBonusReward[index] = 0;\n            }\n            maxNFTNumber += lvNum;\n        }\n        // \n        for (uint256 i=10001;i < maxNFTNumber + 1; i++) {\n            uint32 _level = vipNFT.getNFTLevel(i);\n            if (levelBonusReward[_level] > 0) {\n                investors[token][i] = investors[token][i].add(levelBonusReward[_level]);\n            }\n        }\n\n        emit RewardAdded(amount);\n    }\n\n    function getInvestorReward(address token, uint256 _nftNo)\n        public onlyAdmin view\n        returns (uint256)\n    {\n        return investors[token][_nftNo];\n    }\n\n\n    // \n    function setLevelBonusRate(uint256[] memory _bonusRate) public onlyAdmin {\n        for (uint32 index = 0; index < _bonusRate.length; index++) {\n            levelBonusRate[index] = _bonusRate[index];\n        }\n    }\n\n    function setVipNFT(address _vipNFT) public onlyAdmin {\n        vipNFT = IVipNFT(_vipNFT);\n    }\n\n    function setBurnAddr(address _burnAddr) public onlyAdmin {\n        burnAddr = _burnAddr;\n    }\n\n    function setNFTInvitation(address _NFInvitation) public onlyAdmin {\n        nFTInvitation = INFTInvitation(_NFInvitation);\n    }\n\n    event RewardPaid(address indexed user, uint256 reward);\n    event RewardAdded(uint256 reward);\n\n}\n",
  "sourcePath": "/Users/xingchen/blockchain/joinswap/nftbonus/contracts/NFTBonus.sol",
  "compiler": {
    "name": "solc",
    "version": "0.8.3+commit.8d00100c.Emscripten.clang"
  },
  "schemaVersion": "3.3.4",
  "updatedAt": "2021-05-24T12:58:07.355Z",
  "networkType": "ethereum",
  "devdoc": {
    "kind": "dev",
    "methods": {
      "addAdmin(address)": {
        "details": "",
        "params": {
          "account": ""
        }
      },
      "allAdmins()": {
        "details": "",
        "returns": {
          "admins": ""
        }
      },
      "isAdmin(address)": {
        "details": "",
        "params": {
          "account": ""
        },
        "returns": {
          "_0": ""
        }
      },
      "removeAdmin(address)": {
        "details": "",
        "params": {
          "account": ""
        }
      },
      "renounceAdmin()": {
        "details": ""
      }
    },
    "version": 1
  },
  "userdoc": {
    "kind": "user",
    "methods": {},
    "version": 1
  }
}