{
  "contractName": "NFTInvitation",
  "abi": [
    {
      "inputs": [
        {
          "internalType": "contract IVipNFT",
          "name": "_nftCard",
          "type": "address"
        },
        {
          "internalType": "uint256",
          "name": "_directRewardRate",
          "type": "uint256"
        }
      ],
      "stateMutability": "nonpayable",
      "type": "constructor"
    },
    {
      "anonymous": false,
      "inputs": [
        {
          "indexed": true,
          "internalType": "address",
          "name": "account",
          "type": "address"
        }
      ],
      "name": "AdminAdded",
      "type": "event"
    },
    {
      "anonymous": false,
      "inputs": [
        {
          "indexed": true,
          "internalType": "address",
          "name": "account",
          "type": "address"
        }
      ],
      "name": "AdminRemoved",
      "type": "event"
    },
    {
      "inputs": [
        {
          "internalType": "address",
          "name": "account",
          "type": "address"
        }
      ],
      "name": "addAdmin",
      "outputs": [],
      "stateMutability": "nonpayable",
      "type": "function"
    },
    {
      "inputs": [],
      "name": "allAdmins",
      "outputs": [
        {
          "internalType": "address[]",
          "name": "admins",
          "type": "address[]"
        }
      ],
      "stateMutability": "view",
      "type": "function",
      "constant": true
    },
    {
      "inputs": [],
      "name": "directRewardRate",
      "outputs": [
        {
          "internalType": "uint256",
          "name": "",
          "type": "uint256"
        }
      ],
      "stateMutability": "view",
      "type": "function",
      "constant": true
    },
    {
      "inputs": [
        {
          "internalType": "uint256",
          "name": "",
          "type": "uint256"
        }
      ],
      "name": "inviteDict",
      "outputs": [
        {
          "internalType": "uint256",
          "name": "bindNFTId",
          "type": "uint256"
        },
        {
          "internalType": "uint256",
          "name": "nftExtendRwd",
          "type": "uint256"
        },
        {
          "internalType": "uint256",
          "name": "rwdedExtend",
          "type": "uint256"
        }
      ],
      "stateMutability": "view",
      "type": "function",
      "constant": true
    },
    {
      "inputs": [
        {
          "internalType": "address",
          "name": "account",
          "type": "address"
        }
      ],
      "name": "isAdmin",
      "outputs": [
        {
          "internalType": "bool",
          "name": "",
          "type": "bool"
        }
      ],
      "stateMutability": "view",
      "type": "function",
      "constant": true
    },
    {
      "inputs": [],
      "name": "nftCard",
      "outputs": [
        {
          "internalType": "contract IVipNFT",
          "name": "",
          "type": "address"
        }
      ],
      "stateMutability": "view",
      "type": "function",
      "constant": true
    },
    {
      "inputs": [
        {
          "internalType": "uint32",
          "name": "",
          "type": "uint32"
        }
      ],
      "name": "nftLvConf",
      "outputs": [
        {
          "internalType": "uint8",
          "name": "exists",
          "type": "uint8"
        },
        {
          "internalType": "uint256",
          "name": "hToken",
          "type": "uint256"
        },
        {
          "internalType": "uint256",
          "name": "rewdBuyR",
          "type": "uint256"
        }
      ],
      "stateMutability": "view",
      "type": "function",
      "constant": true
    },
    {
      "inputs": [
        {
          "internalType": "address",
          "name": "account",
          "type": "address"
        }
      ],
      "name": "removeAdmin",
      "outputs": [],
      "stateMutability": "nonpayable",
      "type": "function"
    },
    {
      "inputs": [],
      "name": "renounceAdmin",
      "outputs": [],
      "stateMutability": "nonpayable",
      "type": "function"
    },
    {
      "inputs": [
        {
          "internalType": "uint256",
          "name": "_nftNo",
          "type": "uint256"
        }
      ],
      "name": "getBindNFTId",
      "outputs": [
        {
          "internalType": "uint256",
          "name": "",
          "type": "uint256"
        }
      ],
      "stateMutability": "view",
      "type": "function",
      "constant": true
    },
    {
      "inputs": [
        {
          "internalType": "uint256",
          "name": "_nftNo",
          "type": "uint256"
        }
      ],
      "name": "getExtendReward",
      "outputs": [
        {
          "internalType": "uint256",
          "name": "",
          "type": "uint256"
        }
      ],
      "stateMutability": "view",
      "type": "function",
      "constant": true
    },
    {
      "inputs": [
        {
          "internalType": "uint256",
          "name": "_nftNo",
          "type": "uint256"
        },
        {
          "internalType": "uint32[]",
          "name": "_levelList",
          "type": "uint32[]"
        }
      ],
      "name": "getInvnftLevelNum",
      "outputs": [
        {
          "internalType": "uint256[]",
          "name": "numList",
          "type": "uint256[]"
        }
      ],
      "stateMutability": "view",
      "type": "function",
      "constant": true
    },
    {
      "inputs": [
        {
          "internalType": "uint256",
          "name": "_invnftNo",
          "type": "uint256"
        },
        {
          "internalType": "uint32[]",
          "name": "condLvs",
          "type": "uint32[]"
        },
        {
          "internalType": "uint256[]",
          "name": "_condNums",
          "type": "uint256[]"
        }
      ],
      "name": "isOkToLvup",
      "outputs": [
        {
          "internalType": "bool",
          "name": "isOk",
          "type": "bool"
        }
      ],
      "stateMutability": "view",
      "type": "function",
      "constant": true
    },
    {
      "inputs": [
        {
          "internalType": "uint256",
          "name": "_bindNo",
          "type": "uint256"
        },
        {
          "internalType": "uint256",
          "name": "_nftNo",
          "type": "uint256"
        },
        {
          "internalType": "uint32",
          "name": "_nftLv",
          "type": "uint32"
        }
      ],
      "name": "bindNFT",
      "outputs": [
        {
          "internalType": "uint256",
          "name": "burnAmount",
          "type": "uint256"
        }
      ],
      "stateMutability": "nonpayable",
      "type": "function"
    },
    {
      "inputs": [
        {
          "internalType": "uint256",
          "name": "_nftNo",
          "type": "uint256"
        }
      ],
      "name": "unbindNFT",
      "outputs": [],
      "stateMutability": "nonpayable",
      "type": "function"
    },
    {
      "inputs": [
        {
          "internalType": "uint256",
          "name": "_invnftNo",
          "type": "uint256"
        },
        {
          "internalType": "uint32",
          "name": "_newLevel",
          "type": "uint32"
        },
        {
          "internalType": "uint32[]",
          "name": "condLvs",
          "type": "uint32[]"
        },
        {
          "internalType": "uint256[]",
          "name": "_condNums",
          "type": "uint256[]"
        }
      ],
      "name": "invnftLevelup",
      "outputs": [
        {
          "internalType": "uint256",
          "name": "burnAmount",
          "type": "uint256"
        }
      ],
      "stateMutability": "nonpayable",
      "type": "function"
    },
    {
      "inputs": [
        {
          "internalType": "uint256",
          "name": "_invnftNo",
          "type": "uint256"
        },
        {
          "internalType": "uint256",
          "name": "_totalRwd",
          "type": "uint256"
        }
      ],
      "name": "allocDirectReward",
      "outputs": [
        {
          "internalType": "uint256",
          "name": "_otherRwd",
          "type": "uint256"
        },
        {
          "internalType": "uint256",
          "name": "_burnRwd",
          "type": "uint256"
        }
      ],
      "stateMutability": "nonpayable",
      "type": "function"
    },
    {
      "inputs": [
        {
          "internalType": "uint256",
          "name": "_nftNo",
          "type": "uint256"
        }
      ],
      "name": "drawExtensionReward",
      "outputs": [
        {
          "internalType": "uint256",
          "name": "_rewardV",
          "type": "uint256"
        },
        {
          "internalType": "uint256",
          "name": "_burnRwd",
          "type": "uint256"
        }
      ],
      "stateMutability": "nonpayable",
      "type": "function"
    },
    {
      "inputs": [
        {
          "internalType": "uint32[]",
          "name": "_levelList",
          "type": "uint32[]"
        },
        {
          "internalType": "uint256[]",
          "name": "_hTokenList",
          "type": "uint256[]"
        },
        {
          "internalType": "uint256[]",
          "name": "_rewdBuyRList",
          "type": "uint256[]"
        }
      ],
      "name": "addNFTLvConf",
      "outputs": [],
      "stateMutability": "nonpayable",
      "type": "function"
    },
    {
      "inputs": [
        {
          "internalType": "uint32",
          "name": "_level",
          "type": "uint32"
        }
      ],
      "name": "removeNFTLvConf",
      "outputs": [],
      "stateMutability": "nonpayable",
      "type": "function"
    },
    {
      "inputs": [
        {
          "internalType": "contract IVipNFT",
          "name": "_nftCard",
          "type": "address"
        }
      ],
      "name": "setNFTCard",
      "outputs": [],
      "stateMutability": "nonpayable",
      "type": "function"
    },
    {
      "inputs": [
        {
          "internalType": "uint256",
          "name": "_rate",
          "type": "uint256"
        }
      ],
      "name": "setDirectRewardRate",
      "outputs": [],
      "stateMutability": "nonpayable",
      "type": "function"
    }
  ],
  "bytecode": "0x60806040523480156200001157600080fd5b5060405162001d1038038062001d1083398101604081905262000034916200012e565b6200003f3362000069565b600580546001600160a01b0319166001600160a01b03939093169290921790915560035562000168565b62000084816000620000bc60201b620012891790919060201c565b506040516001600160a01b038216907f44d6d25963f097ad14f29f06854a01f575648a1ef82f30e562ccd3889717e33990600090a250565b6000620000d3836001600160a01b038416620000dc565b90505b92915050565b60008181526001830160205260408120546200012557508154600181810184556000848152602080822090930184905584548482528286019093526040902091909155620000d6565b506000620000d6565b6000806040838503121562000141578182fd5b82516001600160a01b038116811462000158578283fd5b6020939093015192949293505050565b611b9880620001786000396000f3fe608060405234801561001057600080fd5b50600436106101425760003560e01c806379890ccf116100b8578063c0de58611161007c578063c0de586114610319578063c2cdd6131461032c578063ce04c6a81461033f578063d50b781b14610352578063d650a1241461039b578063e3a484b9146103ae57610142565b806379890ccf146102795780638bad0c0a146102995780638c2465c5146102a1578063942031cb146102b4578063ba4674031461030657610142565b806340f32be61161010a57806340f32be6146101ed5780634475d7ec146102025780634de474e51461021557806351821f7b146102285780635b23414d14610253578063704802751461026657610142565b806309e60638146101475780631785f53c1461016f578063247ac2b71461018457806324d7806c146101b257806326006fac146101c5575b600080fd5b61015a6101553660046117a8565b6103b7565b60405190151581526020015b60405180910390f35b61018261017d3660046116ab565b610471565b005b6101a461019236600461174b565b60009081526002602052604090205490565b604051908152602001610166565b61015a6101c03660046116ab565b6104ab565b6101d86101d336600461174b565b6104bd565b60408051928352602083019190915201610166565b6101f561053d565b6040516101669190611915565b6101a461021036600461174b565b610608565b61018261022336600461174b565b610653565b60055461023b906001600160a01b031681565b6040516001600160a01b039091168152602001610166565b61018261026136600461174b565b610756565b6101826102743660046116ab565b610780565b61028c610287366004611763565b6107ae565b6040516101669190611962565b6101826108af565b6101826102af3660046116c7565b6108ba565b6102e76102c23660046118bc565b60046020526000908152604090208054600182015460029092015460ff909116919083565b6040805160ff9094168452602084019290925290820152606001610166565b6101826103143660046116ab565b6109db565b6101826103273660046118bc565b610a22565b6101a461033a36600461183f565b610a70565b6101a461034d366004611807565b610db9565b61038061036036600461174b565b600260208190526000918252604090912080549181015460039091015483565b60408051938452602084019290925290820152606001610166565b6101d86103a93660046117e6565b6110ce565b6101a460035481565b600160005b8351811015610469578281815181106103e557634e487b7160e01b600052603260045260246000fd5b602002602001015160026000878152602001908152602001600020600101600086848151811061042557634e487b7160e01b600052603260045260246000fd5b602002602001015163ffffffff1663ffffffff1681526020019081526020016000205410156104575760009150610469565b8061046181611ad0565b9150506103bc565b509392505050565b61047a336104ab565b61049f5760405162461bcd60e51b81526004016104969061199a565b60405180910390fd5b6104a88161129e565b50565b60006104b781836112e1565b92915050565b6000806104c9336104ab565b6104e55760405162461bcd60e51b81526004016104969061199a565b6000838152600260208190526040909120015461050284826110ce565b6000868152600260208190526040822090810182905560030180549396509194508592610530908490611a3d565b9250508190555050915091565b60606105496000611303565b67ffffffffffffffff81111561056f57634e487b7160e01b600052604160045260246000fd5b604051908082528060200260200182016040528015610598578160200160208202803683370190505b50905060005b6105a86000611303565b811015610604576105ba60008261130d565b8282815181106105da57634e487b7160e01b600052603260045260246000fd5b6001600160a01b0390921660209283029190910190910152806105fc81611ad0565b91505061059e565b5090565b600354600082815260026020819052604082200154909160649161062c9190611a75565b6106369190611a55565b600083815260026020819052604090912001546104b79190611a94565b61065c336104ab565b6106785760405162461bcd60e51b81526004016104969061199a565b600554604051634e9b3c4760e11b8152600481018390526000916001600160a01b031690639d36788e9060240160206040518083038186803b1580156106bd57600080fd5b505afa1580156106d1573d6000803e3d6000fd5b505050506040513d601f19601f820116820180604052508101906106f591906118f4565b60ff16116107455760405162461bcd60e51b815260206004820152601d60248201527f4e465453746f72653a206e66744e6f206973206e6f74206578697374730000006044820152606401610496565b600090815260026020526040812055565b61075f336104ab565b61077b5760405162461bcd60e51b81526004016104969061199a565b600355565b610789336104ab565b6107a55760405162461bcd60e51b81526004016104969061199a565b6104a881611319565b6060815167ffffffffffffffff8111156107d857634e487b7160e01b600052604160045260246000fd5b604051908082528060200260200182016040528015610801578160200160208202803683370190505b50905060005b82518110156108a85760026000858152602001908152602001600020600101600084838151811061084857634e487b7160e01b600052603260045260246000fd5b602002602001015163ffffffff1663ffffffff1681526020019081526020016000205482828151811061088b57634e487b7160e01b600052603260045260246000fd5b6020908102919091010152806108a081611ad0565b915050610807565b5092915050565b6108b83361129e565b565b6108c3336104ab565b6108df5760405162461bcd60e51b81526004016104969061199a565b60005b83518110156109d5576040518060600160405280600160ff16815260200184838151811061092057634e487b7160e01b600052603260045260246000fd5b6020026020010151815260200183838151811061094d57634e487b7160e01b600052603260045260246000fd5b60200260200101518152506004600086848151811061097c57634e487b7160e01b600052603260045260246000fd5b60209081029190910181015163ffffffff1682528181019290925260409081016000208351815460ff191660ff9091161781559183015160018301559190910151600290910155806109cd81611ad0565b9150506108e2565b50505050565b6109e4336104ab565b610a005760405162461bcd60e51b81526004016104969061199a565b600580546001600160a01b0319166001600160a01b0392909216919091179055565b610a2b336104ab565b610a475760405162461bcd60e51b81526004016104969061199a565b63ffffffff166000908152600460205260408120805460ff191681556001810182905560020155565b6000610a7b336104ab565b610a975760405162461bcd60e51b81526004016104969061199a565b60008463ffffffff1611610aed5760405162461bcd60e51b815260206004820152601c60248201527f4e4654496e7669746174696f6e3a206e65776c6576656c2069732030000000006044820152606401610496565b63ffffffff841660009081526004602052604090205460ff16610b5d5760405162461bcd60e51b815260206004820152602260248201527f4e4654496e7669746174696f6e3a206c6576656c206973206e6f742065786973604482015261747360f01b6064820152608401610496565b60005b8351811015610c4c57828181518110610b8957634e487b7160e01b600052603260045260246000fd5b6020026020010151600260008881526020019081526020016000206001016000868481518110610bc957634e487b7160e01b600052603260045260246000fd5b602002602001015163ffffffff1663ffffffff168152602001908152602001600020541015610c3a5760405162461bcd60e51b815260206004820152601e60248201527f4e4654496e7669746174696f6e3a20636f6e646974696f6e206572726f7200006044820152606401610496565b80610c4481611ad0565b915050610b60565b5060008581526002602052604090205415610dad5760008581526002602052604080822054600554915163080e035d60e01b8152600481018290529092916001600160a01b03169063080e035d9060240160206040518083038186803b158015610cb557600080fd5b505afa158015610cc9573d6000803e3d6000fd5b505050506040513d601f19601f82011682018060405250810190610ced91906118d8565b600083815260026020908152604080832063ffffffff8b1684526001908101909252822080549394509092909190610d26908490611a3d565b9091555060009050600481610d3c60018a611aab565b63ffffffff1663ffffffff16815260200190815260200160002060010154600460008963ffffffff1663ffffffff16815260200190815260200160002060010154610d879190611a94565b90506000610d9683858461135c565b9050610da28183611a94565b945050505050610db1565b5060005b949350505050565b6000610dc4336104ab565b610de05760405162461bcd60e51b81526004016104969061199a565b83156110c35760008381526002602052604090205415610e425760405162461bcd60e51b815260206004820152601760248201527f4e4654496e7669746174696f6e3a206e66742062616e640000000000000000006044820152606401610496565b600554604051634e9b3c4760e11b8152600481018690526000916001600160a01b031690639d36788e9060240160206040518083038186803b158015610e8757600080fd5b505afa158015610e9b573d6000803e3d6000fd5b505050506040513d601f19601f82011682018060405250810190610ebf91906118f4565b60ff1611610f1b5760405162461bcd60e51b8152602060048201526024808201527f4e4654496e7669746174696f6e3a2062696e644e6674206973206e6f742065786044820152636973747360e01b6064820152608401610496565b600084815260026020526040902054831415610f795760405162461bcd60e51b815260206004820152601960248201527f4e4654496e7669746174696f6e3a2062696e64206572726f72000000000000006044820152606401610496565b60008381526002602052604081208590555b8263ffffffff168163ffffffff1611610feb57600085815260026020908152604080832063ffffffff8516845260019081019092528220805491929091610fd3908490611a3d565b90915550819050610fe381611aeb565b915050610f8b565b5060055460405163080e035d60e01b8152600481018690526000916001600160a01b03169063080e035d9060240160206040518083038186803b15801561103157600080fd5b505afa158015611045573d6000803e3d6000fd5b505050506040513d601f19601f8201168201806040525081019061106991906118d8565b63ffffffff841660009081526004602052604081206001015491925090611093908390889061135c565b63ffffffff85166000908152600460205260409020600101549091506110ba908290611a94565b925050506110c7565b5060005b9392505050565b6000806110da336104ab565b6110f65760405162461bcd60e51b81526004016104969061199a565b60006064600354856111089190611a75565b6111129190611a55565b905061111e8185611a94565b600086815260026020526040902054909350801561127c5760055460405163080e035d60e01b8152600481018390526001600160a01b039091169063080e035d9060240160206040518083038186803b15801561117a57600080fd5b505afa15801561118e573d6000803e3d6000fd5b505050506040513d601f19601f820116820180604052508101906111b291906118d8565b60055460405163080e035d60e01b81526004810189905263ffffffff92909216916001600160a01b039091169063080e035d9060240160206040518083038186803b15801561120057600080fd5b505afa158015611214573d6000803e3d6000fd5b505050506040513d601f19601f8201168201806040525081019061123891906118d8565b63ffffffff16116112735760008181526002602081905260408220018054849290611264908490611a3d565b90915550600093506112779050565b8192505b611280565b8192505b50509250929050565b60006110c7836001600160a01b0384166113c1565b6112a9600082611410565b506040516001600160a01b038216907fa3b62bc36326052d97ea62d63c3d60308ed4c3ea8ac079dd8499f1e9c4f80c0f90600090a250565b6001600160a01b038116600090815260018301602052604081205415156110c7565b60006104b7825490565b60006110c78383611425565b611324600082611289565b506040516001600160a01b038216907f44d6d25963f097ad14f29f06854a01f575648a1ef82f30e562ccd3889717e33990600090a250565b63ffffffff83166000908152600460205260408120600201546050906113829084611a75565b61138c9190611a55565b9050806002600085815260200190815260200160002060020160008282546113b49190611a3d565b9091555090949350505050565b6000818152600183016020526040812054611408575081546001818101845560008481526020808220909301849055845484825282860190935260409020919091556104b7565b5060006104b7565b60006110c7836001600160a01b0384166114b9565b815460009082106114835760405162461bcd60e51b815260206004820152602260248201527f456e756d657261626c655365743a20696e646578206f7574206f6620626f756e604482015261647360f01b6064820152608401610496565b8260000182815481106114a657634e487b7160e01b600052603260045260246000fd5b9060005260206000200154905092915050565b600081815260018301602052604081205480156115cc5760006114dd600183611a94565b85549091506000906114f190600190611a94565b9050600086600001828154811061151857634e487b7160e01b600052603260045260246000fd5b906000526020600020015490508087600001848154811061154957634e487b7160e01b600052603260045260246000fd5b600091825260209091200155611560836001611a3d565b6000828152600189016020526040902055865487908061159057634e487b7160e01b600052603160045260246000fd5b600190038181906000526020600020016000905590558660010160008781526020019081526020016000206000905560019450505050506104b7565b60009150506104b7565b600082601f8301126115e6578081fd5b813560206115fb6115f683611a19565b6119e8565b80838252828201915082860187848660051b890101111561161a578586fd5b855b858110156116385781358452928401929084019060010161161c565b5090979650505050505050565b600082601f830112611655578081fd5b813560206116656115f683611a19565b80838252828201915082860187848660051b8901011115611684578586fd5b855b8581101561163857813561169981611b50565b84529284019290840190600101611686565b6000602082840312156116bc578081fd5b81356110c781611b3b565b6000806000606084860312156116db578182fd5b833567ffffffffffffffff808211156116f2578384fd5b6116fe87838801611645565b94506020860135915080821115611713578384fd5b61171f878388016115d6565b93506040860135915080821115611734578283fd5b50611741868287016115d6565b9150509250925092565b60006020828403121561175c578081fd5b5035919050565b60008060408385031215611775578182fd5b82359150602083013567ffffffffffffffff811115611792578182fd5b61179e85828601611645565b9150509250929050565b6000806000606084860312156117bc578283fd5b83359250602084013567ffffffffffffffff808211156117da578384fd5b61171f87838801611645565b600080604083850312156117f8578182fd5b50508035926020909101359150565b60008060006060848603121561181b578283fd5b8335925060208401359150604084013561183481611b50565b809150509250925092565b60008060008060808587031215611854578081fd5b84359350602085013561186681611b50565b9250604085013567ffffffffffffffff80821115611882578283fd5b61188e88838901611645565b935060608701359150808211156118a3578283fd5b506118b0878288016115d6565b91505092959194509250565b6000602082840312156118cd578081fd5b81356110c781611b50565b6000602082840312156118e9578081fd5b81516110c781611b50565b600060208284031215611905578081fd5b815160ff811681146110c7578182fd5b6020808252825182820181905260009190848201906040850190845b818110156119565783516001600160a01b031683529284019291840191600101611931565b50909695505050505050565b6020808252825182820181905260009190848201906040850190845b818110156119565783518352928401929184019160010161197e565b6020808252602e908201527f41646d696e526f6c653a2063616c6c657220646f6573206e6f7420686176652060408201526d7468652041646d696e20726f6c6560901b606082015260800190565b604051601f8201601f1916810167ffffffffffffffff81118282101715611a1157611a11611b25565b604052919050565b600067ffffffffffffffff821115611a3357611a33611b25565b5060051b60200190565b60008219821115611a5057611a50611b0f565b500190565b600082611a7057634e487b7160e01b81526012600452602481fd5b500490565b6000816000190483118215151615611a8f57611a8f611b0f565b500290565b600082821015611aa657611aa6611b0f565b500390565b600063ffffffff83811690831681811015611ac857611ac8611b0f565b039392505050565b6000600019821415611ae457611ae4611b0f565b5060010190565b600063ffffffff80831681811415611b0557611b05611b0f565b6001019392505050565b634e487b7160e01b600052601160045260246000fd5b634e487b7160e01b600052604160045260246000fd5b6001600160a01b03811681146104a857600080fd5b63ffffffff811681146104a857600080fdfea26469706673582212200810e80b374d0dd9737dcccc42b649335dff17d1e4ecc87121a73c3fe1090e6864736f6c63430008030033",
  "immutableReferences": {},
  "source": "//SPDX-License-Identifier: MIT\npragma solidity ^0.8.3;\n\nimport \"@openzeppelin/contracts/token/ERC721/ERC721.sol\";\nimport \"./owner/AdminRole.sol\";\nimport {IVipNFT as INFTCard} from \"./interface/IVipNFT.sol\";\n\ncontract NFTInvitation is AdminRole {\n    mapping(uint256 => inviteItem) public inviteDict;   // NFT\n    uint256 public directRewardRate;        // \n    mapping(uint32 => LvConf) public nftLvConf;   // \n    INFTCard public nftCard;\n\n    struct inviteItem {\n        uint256 bindNFTId;    // NFTID\n        mapping(uint32 => uint256) invnftLevelNum;   // NFT, \n        uint256 nftExtendRwd;       // \n        uint256 rwdedExtend;\n    }\n\n    struct LvConf {\n        uint8 exists;       // 10\n        uint256 hToken;      // \n        uint256 rewdBuyR;       // \n    }\n\n    constructor(INFTCard _nftCard, uint256 _directRewardRate){\n        nftCard = _nftCard;\n        directRewardRate = _directRewardRate;\n    }\n\n    function getBindNFTId(uint256 _nftNo)\n        public view\n        returns (uint256)\n    {\n        return inviteDict[_nftNo].bindNFTId;\n    }\n\n    function getExtendReward(uint256 _nftNo)\n        public view\n        returns (uint256)\n    {\n        return inviteDict[_nftNo].nftExtendRwd - inviteDict[_nftNo].nftExtendRwd * directRewardRate / 100;\n    }\n\n    function getInvnftLevelNum(uint256 _nftNo, uint32[] memory _levelList)\n        public view\n        returns (uint256[] memory numList)\n    {\n        numList = new uint256[](_levelList.length);\n        for (uint256 i=0;i < _levelList.length; i++){\n            numList[i] = inviteDict[_nftNo].invnftLevelNum[_levelList[i]];\n        }\n    }\n\n    function isOkToLvup(uint256 _invnftNo, uint32[] memory condLvs, uint256[] memory _condNums)\n        public view\n        returns(bool isOk)\n    {\n        isOk = true;\n        for (uint256 index = 0; index < condLvs.length; index ++) {\n            if (inviteDict[_invnftNo].invnftLevelNum[condLvs[index]] < _condNums[index]){\n                isOk = false;\n                break;\n            }\n        }\n    }\n\n    // NFT\n    function bindNFT(uint256 _bindNo, uint256 _nftNo, uint32 _nftLv)\n        public onlyAdmin\n        returns(uint256 burnAmount)\n    {\n        if (_bindNo > 0) {\n            // \n            require (inviteDict[_nftNo].bindNFTId == 0, \"NFTInvitation: nft band\");\n            // bind\n            require (nftCard.isExists(_bindNo) > 0, \"NFTInvitation: bindNft is not exists\");\n            // \n            require (inviteDict[_bindNo].bindNFTId != _nftNo, \"NFTInvitation: bind error\");\n            // bind\n            inviteDict[_nftNo].bindNFTId = _bindNo;\n            // invnftLevelNum\n            for (uint32 i = 0;i <= _nftLv;i++)\n            {\n                inviteDict[_bindNo].invnftLevelNum[i] += 1;\n            }\n            // \n            uint32 bindNFTLv = nftCard.getNFTLevel(_bindNo);\n            uint256 rewdV = addInvBuyReward(bindNFTLv, _bindNo, nftLvConf[_nftLv].hToken);\n            // burn\n            burnAmount = nftLvConf[_nftLv].hToken - rewdV;\n        } else {\n            burnAmount = 0;\n        }\n    }\n\n    // \n    function unbindNFT(uint256 _nftNo)\n        public onlyAdmin\n    {\n        require (nftCard.isExists(_nftNo) > 0, \"NFTStore: nftNo is not exists\");\n        inviteDict[_nftNo].bindNFTId = 0;\n    }\n\n\n    // NFT\n    function invnftLevelup(uint256 _invnftNo, uint32 _newLevel, uint32[] memory condLvs, uint256[] memory _condNums)\n        public onlyAdmin\n        returns(uint256 burnAmount)\n    {\n        require (_newLevel > 0, \"NFTInvitation: newlevel is 0\");\n        require (nftLvConf[_newLevel].exists > 0, \"NFTInvitation: level is not exists\");\n        // \n        for (uint256 index = 0; index < condLvs.length; index ++) {\n            require (inviteDict[_invnftNo].invnftLevelNum[condLvs[index]] >= _condNums[index],\n                \"NFTInvitation: condition error\");\n        }\n        if (inviteDict[_invnftNo].bindNFTId > 0) {\n            uint256 _bindNo = inviteDict[_invnftNo].bindNFTId;\n            uint32 bindNFTLv = nftCard.getNFTLevel(_bindNo);\n            // , \n            inviteDict[_bindNo].invnftLevelNum[_newLevel] += 1;\n            // \n            uint256 lvHToken = nftLvConf[_newLevel].hToken - nftLvConf[_newLevel - 1].hToken;\n            uint256 rewdV = addInvBuyReward(bindNFTLv, _bindNo, lvHToken);\n            // burn\n            burnAmount = lvHToken - rewdV;\n        } else {\n            burnAmount = 0;\n        }\n    }\n\n    // ,\n    function allocDirectReward(uint256 _invnftNo, uint256 _totalRwd)\n        public onlyAdmin\n        returns (uint256 _otherRwd, uint256 _burnRwd)\n    {\n        uint256 _extendRwd = _totalRwd * directRewardRate / 100;\n        _otherRwd = _totalRwd - _extendRwd;\n        uint256 _bindNFTId = inviteDict[_invnftNo].bindNFTId;\n        // \n        if (_bindNFTId > 0){\n            // \n            if (nftCard.getNFTLevel(_invnftNo) <= nftCard.getNFTLevel(_bindNFTId)) {\n                inviteDict[_bindNFTId].nftExtendRwd += _extendRwd;\n                _burnRwd = 0;\n            } else {\n                _burnRwd = _extendRwd;\n            }\n        } else {\n            _burnRwd = _extendRwd;\n        }\n    }\n\n    function addInvBuyReward(uint32 _bindNFTLv, uint256 _bindNo, uint256 _price)\n        private\n        returns (uint256 rewdV)\n    {\n        // *1.25 . v * 1.25 /100 = v / 80\n        rewdV = _price * nftLvConf[_bindNFTLv].rewdBuyR / 80;\n        inviteDict[_bindNo].nftExtendRwd += rewdV;\n    }\n\n    // \n    function drawExtensionReward(uint256 _nftNo)\n        public onlyAdmin\n        returns (uint256 _rewardV, uint256 _burnRwd)\n    {\n        // \n        // \n        uint256 rewdVTotal = inviteDict[_nftNo].nftExtendRwd;\n        (_rewardV, _burnRwd) = allocDirectReward(_nftNo, rewdVTotal);\n        // \n        inviteDict[_nftNo].nftExtendRwd = 0;\n        inviteDict[_nftNo].rwdedExtend += _rewardV;\n    }\n\n    // LvConf\n    function addNFTLvConf(\n        uint32[] memory _levelList,\n        uint256[] memory _hTokenList,\n        uint256[] memory _rewdBuyRList\n    ) public onlyAdmin {\n        for (uint256 index = 0; index < _levelList.length; index++) {\n            nftLvConf[_levelList[index]] =\n                LvConf(\n                    1,\n                    _hTokenList[index],\n                    _rewdBuyRList[index]\n                );\n        }\n    }\n\n    function removeNFTLvConf(uint32 _level)\n        public onlyAdmin\n    {\n        delete nftLvConf[_level];\n    }\n\n    function setNFTCard(INFTCard _nftCard)\n        public onlyAdmin\n    {\n        nftCard = _nftCard;\n    }\n\n    function setDirectRewardRate(uint256 _rate)\n        public onlyAdmin\n    {\n        directRewardRate = _rate;\n    }\n\n}\n",
  "sourcePath": "/Users/xingchen/blockchain/joinswap/joinvipnft/contracts/NFTInvitation.sol",
  "compiler": {
    "name": "solc",
    "version": "0.8.3+commit.8d00100c.Emscripten.clang"
  },
  "schemaVersion": "3.3.4",
  "updatedAt": "2021-05-19T05:56:47.106Z",
  "networkType": "ethereum",
  "devdoc": {
    "kind": "dev",
    "methods": {
      "addAdmin(address)": {
        "details": "",
        "params": {
          "account": ""
        }
      },
      "allAdmins()": {
        "details": "",
        "returns": {
          "admins": ""
        }
      },
      "isAdmin(address)": {
        "details": "",
        "params": {
          "account": ""
        },
        "returns": {
          "_0": ""
        }
      },
      "removeAdmin(address)": {
        "details": "",
        "params": {
          "account": ""
        }
      },
      "renounceAdmin()": {
        "details": ""
      }
    },
    "version": 1
  },
  "userdoc": {
    "kind": "user",
    "methods": {},
    "version": 1
  }
}