{
  "contractName": "VipNFT",
  "abi": [
    {
      "inputs": [],
      "stateMutability": "nonpayable",
      "type": "constructor"
    },
    {
      "anonymous": false,
      "inputs": [
        {
          "indexed": true,
          "internalType": "address",
          "name": "account",
          "type": "address"
        }
      ],
      "name": "AdminAdded",
      "type": "event"
    },
    {
      "anonymous": false,
      "inputs": [
        {
          "indexed": true,
          "internalType": "address",
          "name": "account",
          "type": "address"
        }
      ],
      "name": "AdminRemoved",
      "type": "event"
    },
    {
      "anonymous": false,
      "inputs": [
        {
          "indexed": true,
          "internalType": "address",
          "name": "owner",
          "type": "address"
        },
        {
          "indexed": true,
          "internalType": "address",
          "name": "approved",
          "type": "address"
        },
        {
          "indexed": true,
          "internalType": "uint256",
          "name": "tokenId",
          "type": "uint256"
        }
      ],
      "name": "Approval",
      "type": "event"
    },
    {
      "anonymous": false,
      "inputs": [
        {
          "indexed": true,
          "internalType": "address",
          "name": "owner",
          "type": "address"
        },
        {
          "indexed": true,
          "internalType": "address",
          "name": "operator",
          "type": "address"
        },
        {
          "indexed": false,
          "internalType": "bool",
          "name": "approved",
          "type": "bool"
        }
      ],
      "name": "ApprovalForAll",
      "type": "event"
    },
    {
      "anonymous": false,
      "inputs": [
        {
          "indexed": true,
          "internalType": "address",
          "name": "from",
          "type": "address"
        },
        {
          "indexed": true,
          "internalType": "address",
          "name": "to",
          "type": "address"
        },
        {
          "indexed": true,
          "internalType": "uint256",
          "name": "tokenId",
          "type": "uint256"
        }
      ],
      "name": "Transfer",
      "type": "event"
    },
    {
      "inputs": [
        {
          "internalType": "address",
          "name": "account",
          "type": "address"
        }
      ],
      "name": "addAdmin",
      "outputs": [],
      "stateMutability": "nonpayable",
      "type": "function"
    },
    {
      "inputs": [],
      "name": "allAdmins",
      "outputs": [
        {
          "internalType": "address[]",
          "name": "admins",
          "type": "address[]"
        }
      ],
      "stateMutability": "view",
      "type": "function",
      "constant": true
    },
    {
      "inputs": [
        {
          "internalType": "address",
          "name": "to",
          "type": "address"
        },
        {
          "internalType": "uint256",
          "name": "tokenId",
          "type": "uint256"
        }
      ],
      "name": "approve",
      "outputs": [],
      "stateMutability": "nonpayable",
      "type": "function"
    },
    {
      "inputs": [
        {
          "internalType": "address",
          "name": "owner",
          "type": "address"
        }
      ],
      "name": "balanceOf",
      "outputs": [
        {
          "internalType": "uint256",
          "name": "",
          "type": "uint256"
        }
      ],
      "stateMutability": "view",
      "type": "function",
      "constant": true
    },
    {
      "inputs": [
        {
          "internalType": "uint256",
          "name": "tokenId",
          "type": "uint256"
        }
      ],
      "name": "getApproved",
      "outputs": [
        {
          "internalType": "address",
          "name": "",
          "type": "address"
        }
      ],
      "stateMutability": "view",
      "type": "function",
      "constant": true
    },
    {
      "inputs": [
        {
          "internalType": "address",
          "name": "account",
          "type": "address"
        }
      ],
      "name": "isAdmin",
      "outputs": [
        {
          "internalType": "bool",
          "name": "",
          "type": "bool"
        }
      ],
      "stateMutability": "view",
      "type": "function",
      "constant": true
    },
    {
      "inputs": [
        {
          "internalType": "address",
          "name": "owner",
          "type": "address"
        },
        {
          "internalType": "address",
          "name": "operator",
          "type": "address"
        }
      ],
      "name": "isApprovedForAll",
      "outputs": [
        {
          "internalType": "bool",
          "name": "",
          "type": "bool"
        }
      ],
      "stateMutability": "view",
      "type": "function",
      "constant": true
    },
    {
      "inputs": [],
      "name": "name",
      "outputs": [
        {
          "internalType": "string",
          "name": "",
          "type": "string"
        }
      ],
      "stateMutability": "view",
      "type": "function",
      "constant": true
    },
    {
      "inputs": [
        {
          "internalType": "uint256",
          "name": "",
          "type": "uint256"
        }
      ],
      "name": "nftsDict",
      "outputs": [
        {
          "internalType": "uint8",
          "name": "exists",
          "type": "uint8"
        },
        {
          "internalType": "uint32",
          "name": "level",
          "type": "uint32"
        }
      ],
      "stateMutability": "view",
      "type": "function",
      "constant": true
    },
    {
      "inputs": [
        {
          "internalType": "uint32",
          "name": "",
          "type": "uint32"
        }
      ],
      "name": "nftsLevelNum",
      "outputs": [
        {
          "internalType": "uint256",
          "name": "",
          "type": "uint256"
        }
      ],
      "stateMutability": "view",
      "type": "function",
      "constant": true
    },
    {
      "inputs": [
        {
          "internalType": "uint256",
          "name": "tokenId",
          "type": "uint256"
        }
      ],
      "name": "ownerOf",
      "outputs": [
        {
          "internalType": "address",
          "name": "",
          "type": "address"
        }
      ],
      "stateMutability": "view",
      "type": "function",
      "constant": true
    },
    {
      "inputs": [
        {
          "internalType": "address",
          "name": "account",
          "type": "address"
        }
      ],
      "name": "removeAdmin",
      "outputs": [],
      "stateMutability": "nonpayable",
      "type": "function"
    },
    {
      "inputs": [],
      "name": "renounceAdmin",
      "outputs": [],
      "stateMutability": "nonpayable",
      "type": "function"
    },
    {
      "inputs": [
        {
          "internalType": "address",
          "name": "operator",
          "type": "address"
        },
        {
          "internalType": "bool",
          "name": "approved",
          "type": "bool"
        }
      ],
      "name": "setApprovalForAll",
      "outputs": [],
      "stateMutability": "nonpayable",
      "type": "function"
    },
    {
      "inputs": [
        {
          "internalType": "bytes4",
          "name": "interfaceId",
          "type": "bytes4"
        }
      ],
      "name": "supportsInterface",
      "outputs": [
        {
          "internalType": "bool",
          "name": "",
          "type": "bool"
        }
      ],
      "stateMutability": "view",
      "type": "function",
      "constant": true
    },
    {
      "inputs": [],
      "name": "symbol",
      "outputs": [
        {
          "internalType": "string",
          "name": "",
          "type": "string"
        }
      ],
      "stateMutability": "view",
      "type": "function",
      "constant": true
    },
    {
      "inputs": [
        {
          "internalType": "uint256",
          "name": "tokenId",
          "type": "uint256"
        }
      ],
      "name": "tokenURI",
      "outputs": [
        {
          "internalType": "string",
          "name": "",
          "type": "string"
        }
      ],
      "stateMutability": "view",
      "type": "function",
      "constant": true
    },
    {
      "inputs": [
        {
          "internalType": "uint32",
          "name": "",
          "type": "uint32"
        }
      ],
      "name": "vipLvConf",
      "outputs": [
        {
          "internalType": "uint8",
          "name": "exists",
          "type": "uint8"
        },
        {
          "internalType": "uint256",
          "name": "extraAddR",
          "type": "uint256"
        },
        {
          "internalType": "uint256",
          "name": "rewdBuyR",
          "type": "uint256"
        },
        {
          "internalType": "uint256",
          "name": "hToken",
          "type": "uint256"
        }
      ],
      "stateMutability": "view",
      "type": "function",
      "constant": true
    },
    {
      "inputs": [
        {
          "internalType": "address",
          "name": "",
          "type": "address"
        }
      ],
      "name": "whiteList",
      "outputs": [
        {
          "internalType": "uint8",
          "name": "",
          "type": "uint8"
        }
      ],
      "stateMutability": "view",
      "type": "function",
      "constant": true
    },
    {
      "inputs": [
        {
          "internalType": "address",
          "name": "from",
          "type": "address"
        },
        {
          "internalType": "address",
          "name": "to",
          "type": "address"
        },
        {
          "internalType": "uint256",
          "name": "tokenId",
          "type": "uint256"
        }
      ],
      "name": "transferFrom",
      "outputs": [],
      "stateMutability": "nonpayable",
      "type": "function"
    },
    {
      "inputs": [
        {
          "internalType": "address",
          "name": "from",
          "type": "address"
        },
        {
          "internalType": "address",
          "name": "to",
          "type": "address"
        },
        {
          "internalType": "uint256",
          "name": "tokenId",
          "type": "uint256"
        }
      ],
      "name": "safeTransferFrom",
      "outputs": [],
      "stateMutability": "nonpayable",
      "type": "function"
    },
    {
      "inputs": [
        {
          "internalType": "address",
          "name": "from",
          "type": "address"
        },
        {
          "internalType": "address",
          "name": "to",
          "type": "address"
        },
        {
          "internalType": "uint256",
          "name": "tokenId",
          "type": "uint256"
        },
        {
          "internalType": "bytes",
          "name": "_data",
          "type": "bytes"
        }
      ],
      "name": "safeTransferFrom",
      "outputs": [],
      "stateMutability": "nonpayable",
      "type": "function"
    },
    {
      "inputs": [
        {
          "internalType": "uint256",
          "name": "_nftNo",
          "type": "uint256"
        }
      ],
      "name": "isExists",
      "outputs": [
        {
          "internalType": "uint8",
          "name": "",
          "type": "uint8"
        }
      ],
      "stateMutability": "view",
      "type": "function",
      "constant": true
    },
    {
      "inputs": [
        {
          "internalType": "address",
          "name": "_owner",
          "type": "address"
        }
      ],
      "name": "getOwnerNFTInfo",
      "outputs": [
        {
          "internalType": "uint256",
          "name": "nftNo",
          "type": "uint256"
        },
        {
          "internalType": "uint32",
          "name": "level",
          "type": "uint32"
        }
      ],
      "stateMutability": "view",
      "type": "function",
      "constant": true
    },
    {
      "inputs": [
        {
          "internalType": "address",
          "name": "_owner",
          "type": "address"
        }
      ],
      "name": "getOwnerNFTNo",
      "outputs": [
        {
          "internalType": "uint256",
          "name": "",
          "type": "uint256"
        }
      ],
      "stateMutability": "view",
      "type": "function",
      "constant": true
    },
    {
      "inputs": [
        {
          "internalType": "uint32",
          "name": "_level",
          "type": "uint32"
        }
      ],
      "name": "getNFTsLevelNum",
      "outputs": [
        {
          "internalType": "uint256",
          "name": "lvNum",
          "type": "uint256"
        }
      ],
      "stateMutability": "view",
      "type": "function",
      "constant": true
    },
    {
      "inputs": [
        {
          "internalType": "uint256",
          "name": "_nftNo",
          "type": "uint256"
        }
      ],
      "name": "getNFTLevel",
      "outputs": [
        {
          "internalType": "uint32",
          "name": "",
          "type": "uint32"
        }
      ],
      "stateMutability": "view",
      "type": "function",
      "constant": true
    },
    {
      "inputs": [
        {
          "internalType": "uint256",
          "name": "_nftNo",
          "type": "uint256"
        }
      ],
      "name": "getNFTExtraAddRate",
      "outputs": [
        {
          "internalType": "uint256",
          "name": "extraAddR",
          "type": "uint256"
        }
      ],
      "stateMutability": "view",
      "type": "function",
      "constant": true
    },
    {
      "inputs": [
        {
          "internalType": "address",
          "name": "_to",
          "type": "address"
        },
        {
          "internalType": "uint32",
          "name": "_level",
          "type": "uint32"
        }
      ],
      "name": "createNFT",
      "outputs": [
        {
          "internalType": "uint256",
          "name": "nftNo",
          "type": "uint256"
        }
      ],
      "stateMutability": "nonpayable",
      "type": "function"
    },
    {
      "inputs": [
        {
          "internalType": "uint256",
          "name": "_nftNo",
          "type": "uint256"
        },
        {
          "internalType": "uint32",
          "name": "_newLevel",
          "type": "uint32"
        }
      ],
      "name": "levelupNFT",
      "outputs": [],
      "stateMutability": "nonpayable",
      "type": "function"
    },
    {
      "inputs": [
        {
          "internalType": "uint32[]",
          "name": "_levelList",
          "type": "uint32[]"
        },
        {
          "internalType": "uint256[]",
          "name": "_extraAddRList",
          "type": "uint256[]"
        },
        {
          "internalType": "uint256[]",
          "name": "_rewdBuyRList",
          "type": "uint256[]"
        },
        {
          "internalType": "uint256[]",
          "name": "_hTokenList",
          "type": "uint256[]"
        }
      ],
      "name": "addNFTLvConf",
      "outputs": [],
      "stateMutability": "nonpayable",
      "type": "function"
    },
    {
      "inputs": [
        {
          "internalType": "uint32",
          "name": "_level",
          "type": "uint32"
        }
      ],
      "name": "removeNFTLvConf",
      "outputs": [],
      "stateMutability": "nonpayable",
      "type": "function"
    },
    {
      "inputs": [
        {
          "internalType": "address",
          "name": "_addr",
          "type": "address"
        },
        {
          "internalType": "uint8",
          "name": "_open",
          "type": "uint8"
        }
      ],
      "name": "setWhiteList",
      "outputs": [],
      "stateMutability": "nonpayable",
      "type": "function"
    },
    {
      "inputs": [
        {
          "internalType": "contract INFTToMiningPool",
          "name": "_pool",
          "type": "address"
        }
      ],
      "name": "setMiningPool",
      "outputs": [],
      "stateMutability": "nonpayable",
      "type": "function"
    }
  ],
  "bytecode": "0x6080604052612710600d553480156200001757600080fd5b50604080518082018252600d81526c129bda5b9cddd85c0810d05491609a1b6020808301918252835180850190945260058452641290d0549160da1b9084015281519192916200006a916000916200015f565b508051620000809060019060208401906200015f565b50505062000094336200009a60201b60201c565b62000242565b620000b5816006620000ed60201b620014901790919060201c565b506040516001600160a01b038216907f44d6d25963f097ad14f29f06854a01f575648a1ef82f30e562ccd3889717e33990600090a250565b600062000104836001600160a01b0384166200010d565b90505b92915050565b6000818152600183016020526040812054620001565750815460018181018455600084815260208082209093018490558454848252828601909352604090209190915562000107565b50600062000107565b8280546200016d9062000205565b90600052602060002090601f016020900481019282620001915760008555620001dc565b82601f10620001ac57805160ff1916838001178555620001dc565b82800160010185558215620001dc579182015b82811115620001dc578251825591602001919060010190620001bf565b50620001ea929150620001ee565b5090565b5b80821115620001ea5760008155600101620001ef565b600181811c908216806200021a57607f821691505b602082108114156200023c57634e487b7160e01b600052602260045260246000fd5b50919050565b6127cd80620002526000396000f3fe608060405234801561001057600080fd5b50600436106102065760003560e01c80634f9b008d1161011a57806395d89b41116100ad578063b88d4fde1161007c578063b88d4fde1461053e578063c0de586114610551578063c87b56dd14610564578063e985e9c514610577578063f05366e81461058a57610206565b806395d89b41146104d75780639d36788e146104df578063a22cb46514610502578063a84a50711461051557610206565b806370480275116100e9578063704802751461049657806370a08231146104a957806387879ef9146104bc5780638bad0c0a146104cf57610206565b80634f9b008d146103f35780635eeb79ef146104065780636352211e146104265780636defb7781461043957610206565b80631f14adbf1161019d578063372c12b11161016c578063372c12b1146103565780633826ac441461038b57806340f32be61461039e57806342842e0e146103b3578063499a45e4146103c657610206565b80631f14adbf146102f757806323b872dd1461031d57806324d7806c146103305780632ad876521461034357610206565b8063095ea7b3116101d9578063095ea7b31461029b578063120edd96146102b05780631785f53c146102c35780631e6e7eaf146102d657610206565b806301ffc9a71461020b57806306fdde0314610233578063080e035d14610248578063081812fc14610270575b600080fd5b61021e610219366004612319565b6105d8565b60405190151581526020015b60405180910390f35b61023b61062c565b60405161022a919061248a565b61025b610256366004612351565b6106be565b60405163ffffffff909116815260200161022a565b61028361027e366004612351565b610733565b6040516001600160a01b03909116815260200161022a565b6102ae6102a9366004612180565b6107c8565b005b6102ae6102be3660046121df565b6108de565b6102ae6102d1366004611fff565b610930565b6102e96102e4366004612351565b610961565b60405190815260200161022a565b6102e961030536600461238b565b63ffffffff1660009081526009602052604090205490565b6102ae61032b366004612053565b6109b5565b61021e61033e366004611fff565b610b25565b6102ae610351366004612211565b610b32565b610379610364366004611fff565b600b6020526000908152604090205460ff1681565b60405160ff909116815260200161022a565b6102ae610399366004611fff565b610c8a565b6103a6610cd1565b60405161022a919061243d565b6102ae6103c1366004612053565b610d9c565b6103d96103d4366004611fff565b610ded565b6040805192835263ffffffff90911660208301520161022a565b6102e96104013660046121ab565b610e36565b6102e961041436600461238b565b60096020526000908152604090205481565b610283610434366004612351565b610f1b565b61047261044736600461238b565b600a60205260009081526040902080546001820154600283015460039093015460ff90921692909184565b6040805160ff9095168552602085019390935291830152606082015260800161022a565b6102ae6104a4366004611fff565b610f92565b6102e96104b7366004611fff565b610fc0565b6102ae6104ca366004612369565b611047565b6102ae6111ff565b61023b61120a565b6103796104ed366004612351565b60009081526008602052604090205460ff1690565b6102ae61051036600461214f565b611219565b6102e9610523366004611fff565b6001600160a01b03166000908152600c602052604090205490565b6102ae61054c366004612093565b6112eb565b6102ae61055f36600461238b565b611323565b61023b610572366004612351565b611378565b61021e61058536600461201b565b611460565b6105ba610598366004612351565b60086020526000908152604090205460ff811690610100900463ffffffff1682565b6040805160ff909316835263ffffffff90911660208301520161022a565b60006001600160e01b031982166380ac58cd60e01b148061060957506001600160e01b03198216635b5e139f60e01b145b8061062457506301ffc9a760e01b6001600160e01b03198316145b90505b919050565b60606000805461063b906126c0565b80601f0160208091040260200160405190810160405280929190818152602001828054610667906126c0565b80156106b45780601f10610689576101008083540402835291602001916106b4565b820191906000526020600020905b81548152906001019060200180831161069757829003601f168201915b5050505050905090565b60008181526008602052604081205460ff166107155760405162461bcd60e51b81526020600482015260116024820152705669704e46543a206e6f2065786973747360781b60448201526064015b60405180910390fd5b50600090815260086020526040902054610100900463ffffffff1690565b6000818152600260205260408120546001600160a01b03166107ac5760405162461bcd60e51b815260206004820152602c60248201527f4552433732313a20617070726f76656420717565727920666f72206e6f6e657860448201526b34b9ba32b73a103a37b5b2b760a11b606482015260840161070c565b506000908152600460205260409020546001600160a01b031690565b60006107d382610f1b565b9050806001600160a01b0316836001600160a01b031614156108415760405162461bcd60e51b815260206004820152602160248201527f4552433732313a20617070726f76616c20746f2063757272656e74206f776e656044820152603960f91b606482015260840161070c565b336001600160a01b038216148061085d575061085d8133610585565b6108cf5760405162461bcd60e51b815260206004820152603860248201527f4552433732313a20617070726f76652063616c6c6572206973206e6f74206f7760448201527f6e6572206e6f7220617070726f76656420666f7220616c6c0000000000000000606482015260840161070c565b6108d983836114a5565b505050565b6108e733610b25565b6109035760405162461bcd60e51b815260040161070c90612519565b6001600160a01b03919091166000908152600b60205260409020805460ff191660ff909216919091179055565b61093933610b25565b6109555760405162461bcd60e51b815260040161070c90612519565b61095e81611513565b50565b60008082118015610982575060008281526008602052604090205460ff1615155b156106275750600090815260086020908152604080832054610100900463ffffffff168352600a90915290206001015490565b6001600160a01b0382166000908152600b602052604090205460ff166109fb576109de82610fc0565b156109fb5760405162461bcd60e51b815260040161070c906124ef565b610a06838383611556565b600e5460405163a8f715af60e01b81526001600160a01b038581166004830152600060248301529091169063a8f715af90604401600060405180830381600087803b158015610a5457600080fd5b505af1158015610a68573d6000803e3d6000fd5b5050600e54600084815260086020908152604080832054610100900463ffffffff168352600a9091529081902060010154905163a8f715af60e01b81526001600160a01b03878116600483015260248201929092529116925063a8f715af9150604401600060405180830381600087803b158015610ae557600080fd5b505af1158015610af9573d6000803e3d6000fd5b5050506001600160a01b039384166000908152600c602052604080822082905593909416845250912055565b6000610624600683611587565b610b3b33610b25565b610b575760405162461bcd60e51b815260040161070c90612519565b60005b8451811015610c83576040518060800160405280600160ff168152602001858381518110610b9857634e487b7160e01b600052603260045260246000fd5b60200260200101518152602001848381518110610bc557634e487b7160e01b600052603260045260246000fd5b60200260200101518152602001838381518110610bf257634e487b7160e01b600052603260045260246000fd5b6020026020010151815250600a6000878481518110610c2157634e487b7160e01b600052603260045260246000fd5b60209081029190910181015163ffffffff1682528181019290925260409081016000208351815460ff191660ff909116178155918301516001830155820151600282015560609091015160039091015580610c7b816126fb565b915050610b5a565b5050505050565b610c9333610b25565b610caf5760405162461bcd60e51b815260040161070c90612519565b600e80546001600160a01b0319166001600160a01b0392909216919091179055565b6060610cdd60066115a9565b67ffffffffffffffff811115610d0357634e487b7160e01b600052604160045260246000fd5b604051908082528060200260200182016040528015610d2c578160200160208202803683370190505b50905060005b610d3c60066115a9565b811015610d9857610d4e6006826115b3565b828281518110610d6e57634e487b7160e01b600052603260045260246000fd5b6001600160a01b039092166020928302919091019091015280610d90816126fb565b915050610d32565b5090565b6001600160a01b0382166000908152600b602052604090205460ff16610de257610dc582610fc0565b15610de25760405162461bcd60e51b815260040161070c906124ef565b610a068383836115bf565b6001600160a01b0381166000908152600c6020526040812054908115610e2d5750600081815260086020526040902054610100900463ffffffff16610e31565b5060005b915091565b6000610e4133610b25565b610e5d5760405162461bcd60e51b815260040161070c90612519565b600d8054906000610e6d836126fb565b9091555050600d546040805180820182526001815263ffffffff808616602080840191825260008681526008909152939093209151825493519091166101000264ffffffffff1990931660ff91909116179190911790559050610ed083826115da565b6001600160a01b0383166000908152600c6020908152604080832084905563ffffffff8516835260099091528120805460019290610f0f90849061260d565b90915550909392505050565b6000818152600260205260408120546001600160a01b0316806106245760405162461bcd60e51b815260206004820152602960248201527f4552433732313a206f776e657220717565727920666f72206e6f6e657869737460448201526832b73a103a37b5b2b760b91b606482015260840161070c565b610f9b33610b25565b610fb75760405162461bcd60e51b815260040161070c90612519565b61095e816116bf565b60006001600160a01b03821661102b5760405162461bcd60e51b815260206004820152602a60248201527f4552433732313a2062616c616e636520717565727920666f7220746865207a65604482015269726f206164647265737360b01b606482015260840161070c565b506001600160a01b031660009081526003602052604090205490565b61105033610b25565b61106c5760405162461bcd60e51b815260040161070c90612519565b60008281526008602052604090205463ffffffff8083169161109691610100909104166001612625565b63ffffffff16146110df5760405162461bcd60e51b81526020600482015260136024820152722b34b827232a16103632bb32b61032b93937b960691b604482015260640161070c565b6000828152600860209081526040808320805464ffffffff00191661010063ffffffff87169081029190911790915583526009909152812080546001929061112890849061260d565b90915550600190506009600061113e838561266f565b63ffffffff1663ffffffff16815260200190815260200160002060008282546111679190612658565b909155506000905061117883610f1b565b600e5463ffffffff84166000908152600a60205260409081902060010154905163a8f715af60e01b81526001600160a01b0380851660048301526024820192909252929350169063a8f715af90604401600060405180830381600087803b1580156111e257600080fd5b505af11580156111f6573d6000803e3d6000fd5b50505050505050565b61120833611513565b565b60606001805461063b906126c0565b6001600160a01b0382163314156112725760405162461bcd60e51b815260206004820152601960248201527f4552433732313a20617070726f766520746f2063616c6c657200000000000000604482015260640161070c565b3360008181526005602090815260408083206001600160a01b0387168085529252909120805460ff1916841515179055906001600160a01b03167f17307eab39ab6107e8899845ad3d59bd9653f200f220920489ca2b5937696c31836040516112df911515815260200190565b60405180910390a35050565b6112f53383611702565b6113115760405162461bcd60e51b815260040161070c90612567565b61131d848484846117d9565b50505050565b61132c33610b25565b6113485760405162461bcd60e51b815260040161070c90612519565b63ffffffff166000908152600a60205260408120805460ff19168155600181018290556002810182905560030155565b6000818152600260205260409020546060906001600160a01b03166113f75760405162461bcd60e51b815260206004820152602f60248201527f4552433732314d657461646174613a2055524920717565727920666f72206e6f60448201526e3732bc34b9ba32b73a103a37b5b2b760891b606482015260840161070c565b600061140e60408051602081019091526000815290565b9050600081511161142e5760405180602001604052806000815250611459565b806114388461180c565b6040516020016114499291906123d1565b6040516020818303038152906040525b9392505050565b6001600160a01b0380831660009081526005602090815260408083209385168352929052205460ff165b92915050565b6000611459836001600160a01b038416611927565b600081815260046020526040902080546001600160a01b0319166001600160a01b03841690811790915581906114da82610f1b565b6001600160a01b03167f8c5be1e5ebec7d5bd14f71427d1e84f3dd0314c0f7b2291e5b200ac8c7c3b92560405160405180910390a45050565b61151e600682611976565b506040516001600160a01b038216907fa3b62bc36326052d97ea62d63c3d60308ed4c3ea8ac079dd8499f1e9c4f80c0f90600090a250565b6115603382611702565b61157c5760405162461bcd60e51b815260040161070c90612567565b6108d983838361198b565b6001600160a01b03811660009081526001830160205260408120541515611459565b6000610624825490565b60006114598383611b2b565b6108d9838383604051806020016040528060008152506112eb565b6001600160a01b0382166000908152600b602052604090205460ff166116205761160382610fc0565b156116205760405162461bcd60e51b815260040161070c906124ef565b61162a8282611bbf565b600e54600082815260086020908152604080832054610100900463ffffffff168352600a9091529081902060010154905163a8f715af60e01b81526001600160a01b038581166004830152602482019290925291169063a8f715af90604401600060405180830381600087803b1580156116a357600080fd5b505af11580156116b7573d6000803e3d6000fd5b505050505050565b6116ca600682611490565b506040516001600160a01b038216907f44d6d25963f097ad14f29f06854a01f575648a1ef82f30e562ccd3889717e33990600090a250565b6000818152600260205260408120546001600160a01b031661177b5760405162461bcd60e51b815260206004820152602c60248201527f4552433732313a206f70657261746f7220717565727920666f72206e6f6e657860448201526b34b9ba32b73a103a37b5b2b760a11b606482015260840161070c565b600061178683610f1b565b9050806001600160a01b0316846001600160a01b031614806117c15750836001600160a01b03166117b684610733565b6001600160a01b0316145b806117d157506117d18185611460565b949350505050565b6117e484848461198b565b6117f084848484611bdd565b61131d5760405162461bcd60e51b815260040161070c9061249d565b60608161183157506040805180820190915260018152600360fc1b6020820152610627565b8160005b811561185b5780611845816126fb565b91506118549050600a83612644565b9150611835565b60008167ffffffffffffffff81111561188457634e487b7160e01b600052604160045260246000fd5b6040519080825280601f01601f1916602001820160405280156118ae576020820181803683370190505b5090505b84156117d1576118c3600183612658565b91506118d0600a86612716565b6118db90603061260d565b60f81b8183815181106118fe57634e487b7160e01b600052603260045260246000fd5b60200101906001600160f81b031916908160001a905350611920600a86612644565b94506118b2565b600081815260018301602052604081205461196e5750815460018181018455600084815260208082209093018490558454848252828601909352604090209190915561148a565b50600061148a565b6000611459836001600160a01b038416611cea565b826001600160a01b031661199e82610f1b565b6001600160a01b031614611a065760405162461bcd60e51b815260206004820152602960248201527f4552433732313a207472616e73666572206f6620746f6b656e2074686174206960448201526839903737ba1037bbb760b91b606482015260840161070c565b6001600160a01b038216611a685760405162461bcd60e51b8152602060048201526024808201527f4552433732313a207472616e7366657220746f20746865207a65726f206164646044820152637265737360e01b606482015260840161070c565b611a736000826114a5565b6001600160a01b0383166000908152600360205260408120805460019290611a9c908490612658565b90915550506001600160a01b0382166000908152600360205260408120805460019290611aca90849061260d565b909155505060008181526002602052604080822080546001600160a01b0319166001600160a01b0386811691821790925591518493918716917fddf252ad1be2c89b69c2b068fc378daa952ba7f163c4a11628f55a4df523b3ef91a4505050565b81546000908210611b895760405162461bcd60e51b815260206004820152602260248201527f456e756d657261626c655365743a20696e646578206f7574206f6620626f756e604482015261647360f01b606482015260840161070c565b826000018281548110611bac57634e487b7160e01b600052603260045260246000fd5b9060005260206000200154905092915050565b611bd9828260405180602001604052806000815250611e07565b5050565b60006001600160a01b0384163b15611cdf57604051630a85bd0160e11b81526001600160a01b0385169063150b7a0290611c21903390899088908890600401612400565b602060405180830381600087803b158015611c3b57600080fd5b505af1925050508015611c6b575060408051601f3d908101601f19168201909252611c6891810190612335565b60015b611cc5573d808015611c99576040519150601f19603f3d011682016040523d82523d6000602084013e611c9e565b606091505b508051611cbd5760405162461bcd60e51b815260040161070c9061249d565b805181602001fd5b6001600160e01b031916630a85bd0160e11b1490506117d1565b506001949350505050565b60008181526001830160205260408120548015611dfd576000611d0e600183612658565b8554909150600090611d2290600190612658565b90506000866000018281548110611d4957634e487b7160e01b600052603260045260246000fd5b9060005260206000200154905080876000018481548110611d7a57634e487b7160e01b600052603260045260246000fd5b600091825260209091200155611d9183600161260d565b60008281526001890160205260409020558654879080611dc157634e487b7160e01b600052603160045260246000fd5b6001900381819060005260206000200160009055905586600101600087815260200190815260200160002060009055600194505050505061148a565b600091505061148a565b611e118383611e3a565b611e1e6000848484611bdd565b6108d95760405162461bcd60e51b815260040161070c9061249d565b6001600160a01b038216611e905760405162461bcd60e51b815260206004820181905260248201527f4552433732313a206d696e7420746f20746865207a65726f2061646472657373604482015260640161070c565b6000818152600260205260409020546001600160a01b031615611ef55760405162461bcd60e51b815260206004820152601c60248201527f4552433732313a20746f6b656e20616c7265616479206d696e74656400000000604482015260640161070c565b6001600160a01b0382166000908152600360205260408120805460019290611f1e90849061260d565b909155505060008181526002602052604080822080546001600160a01b0319166001600160a01b03861690811790915590518392907fddf252ad1be2c89b69c2b068fc378daa952ba7f163c4a11628f55a4df523b3ef908290a45050565b600082601f830112611f8c578081fd5b81356020611fa1611f9c836125e9565b6125b8565b80838252828201915082860187848660051b8901011115611fc0578586fd5b855b85811015611fde57813584529284019290840190600101611fc2565b5090979650505050505050565b803563ffffffff8116811461062757600080fd5b600060208284031215612010578081fd5b81356114598161276c565b6000806040838503121561202d578081fd5b82356120388161276c565b915060208301356120488161276c565b809150509250929050565b600080600060608486031215612067578081fd5b83356120728161276c565b925060208401356120828161276c565b929592945050506040919091013590565b600080600080608085870312156120a8578081fd5b84356120b38161276c565b93506020858101356120c48161276c565b935060408601359250606086013567ffffffffffffffff808211156120e7578384fd5b818801915088601f8301126120fa578384fd5b81358181111561210c5761210c612756565b61211e601f8201601f191685016125b8565b91508082528984828501011115612133578485fd5b8084840185840137810190920192909252939692955090935050565b60008060408385031215612161578182fd5b823561216c8161276c565b915060208301358015158114612048578182fd5b60008060408385031215612192578182fd5b823561219d8161276c565b946020939093013593505050565b600080604083850312156121bd578182fd5b82356121c88161276c565b91506121d660208401611feb565b90509250929050565b600080604083850312156121f1578182fd5b82356121fc8161276c565b9150602083013560ff81168114612048578182fd5b60008060008060808587031215612226578081fd5b843567ffffffffffffffff8082111561223d578283fd5b818701915087601f830112612250578283fd5b81356020612260611f9c836125e9565b8083825282820191508286018c848660051b890101111561227f578788fd5b8796505b848710156122a85761229481611feb565b835260019690960195918301918301612283565b50985050880135925050808211156122be578283fd5b6122ca88838901611f7c565b945060408701359150808211156122df578283fd5b6122eb88838901611f7c565b93506060870135915080821115612300578283fd5b5061230d87828801611f7c565b91505092959194509250565b60006020828403121561232a578081fd5b813561145981612781565b600060208284031215612346578081fd5b815161145981612781565b600060208284031215612362578081fd5b5035919050565b6000806040838503121561237b578182fd5b823591506121d660208401611feb565b60006020828403121561239c578081fd5b61145982611feb565b600081518084526123bd816020860160208601612694565b601f01601f19169290920160200192915050565b600083516123e3818460208801612694565b8351908301906123f7818360208801612694565b01949350505050565b6001600160a01b0385811682528416602082015260408101839052608060608201819052600090612433908301846123a5565b9695505050505050565b6020808252825182820181905260009190848201906040850190845b8181101561247e5783516001600160a01b031683529284019291840191600101612459565b50909695505050505050565b60006020825261145960208301846123a5565b60208082526032908201527f4552433732313a207472616e7366657220746f206e6f6e20455243373231526560408201527131b2b4bb32b91034b6b83632b6b2b73a32b960711b606082015260800190565b60208082526010908201526f5669704e46543a20746f6f206d616e7960801b604082015260600190565b6020808252602e908201527f41646d696e526f6c653a2063616c6c657220646f6573206e6f7420686176652060408201526d7468652041646d696e20726f6c6560901b606082015260800190565b60208082526031908201527f4552433732313a207472616e736665722063616c6c6572206973206e6f74206f6040820152701ddb995c881b9bdc88185c1c1c9bdd9959607a1b606082015260800190565b604051601f8201601f1916810167ffffffffffffffff811182821017156125e1576125e1612756565b604052919050565b600067ffffffffffffffff82111561260357612603612756565b5060051b60200190565b600082198211156126205761262061272a565b500190565b600063ffffffff8083168185168083038211156123f7576123f761272a565b60008261265357612653612740565b500490565b60008282101561266a5761266a61272a565b500390565b600063ffffffff8381169083168181101561268c5761268c61272a565b039392505050565b60005b838110156126af578181015183820152602001612697565b8381111561131d5750506000910152565b600181811c908216806126d457607f821691505b602082108114156126f557634e487b7160e01b600052602260045260246000fd5b50919050565b600060001982141561270f5761270f61272a565b5060010190565b60008261272557612725612740565b500690565b634e487b7160e01b600052601160045260246000fd5b634e487b7160e01b600052601260045260246000fd5b634e487b7160e01b600052604160045260246000fd5b6001600160a01b038116811461095e57600080fd5b6001600160e01b03198116811461095e57600080fdfea26469706673582212200079071fad7fccd18b2e58a3dfe27670496300015ce198b01eef62ef36fed57564736f6c63430008030033",
  "immutableReferences": {},
  "source": "//SPDX-License-Identifier: MIT\npragma solidity ^0.8.3;\n\nimport \"@openzeppelin/contracts/token/ERC721/ERC721.sol\";\nimport \"./owner/AdminRole.sol\";\nimport \"./NFTBonus.sol\";\n\n\ninterface INFTToMiningPool {\n    function updateStakeToken(address _owner, uint256 _extraAddR) external;\n}\n\ncontract VipNFT is ERC721, AdminRole {\n\n    mapping(uint256 => CardItem) public nftsDict;\n    mapping(uint32 => uint256) public nftsLevelNum;    // NFT\n    mapping(uint32 => LvConf) public vipLvConf;   // vip\n    mapping(address => uint8) public whiteList;    // NFT\n    mapping(address => uint256) ownerVipNFT;\n\n    uint256 nftNumber = 10000;     // 0NFT\n    INFTToMiningPool miningPool;\n\n    struct CardItem {\n        uint8 exists;       // 10\n        uint32 level;       // \n    }\n\n    struct LvConf {\n        uint8 exists;           // 10\n        uint256 extraAddR;      // \n        uint256 rewdBuyR;       // \n        uint256 hToken;          // \n//        uint256 bonusR;         // \n//        uint32[] condLvList;    // \n//        mapping(uint32 => uint256) condNumList;     // \n    }\n\n    constructor() ERC721(\"Joinswap CARD\", \"JCARD\") {\n    }\n\n    modifier checkOwner(address _owner, uint256 _nftNumber) {\n        require(ownerOf(_nftNumber) == _owner, \"NFTCardStore: it's Not of you !\");\n        _;\n    }\n\n    function transferFrom(address from, address to, uint256 tokenId)\n        public virtual override\n    {\n        if (whiteList[to] == 0) {\n            require (balanceOf(to) == 0, \"VipNFT: too many\");\n        }\n        super.transferFrom(from, to, tokenId);\n        miningPool.updateStakeToken(from, 0);\n        miningPool.updateStakeToken(to, vipLvConf[nftsDict[tokenId].level].extraAddR);\n\n        ownerVipNFT[from] = 0;\n        ownerVipNFT[to] = tokenId;\n    }\n\n    function safeTransferFrom(address from, address to, uint256 tokenId)\n        public virtual override\n    {\n        if (whiteList[to] == 0) {\n            require (balanceOf(to) == 0, \"VipNFT: too many\");\n        }\n        super.safeTransferFrom(from, to, tokenId);\n        miningPool.updateStakeToken(from, 0);\n        miningPool.updateStakeToken(to, vipLvConf[nftsDict[tokenId].level].extraAddR);\n        ownerVipNFT[from] = 0;\n        ownerVipNFT[to] = tokenId;\n    }\n\n    function _safeMint(address to, uint256 tokenId)\n        internal virtual override\n    {\n        if (whiteList[to] == 0) {\n            require (balanceOf(to) == 0, \"VipNFT: too many\");\n        }\n        super._safeMint(to, tokenId);\n        miningPool.updateStakeToken(to, vipLvConf[nftsDict[tokenId].level].extraAddR);\n    }\n\n    function isExists(uint256 _nftNo)\n        public view\n        returns (uint8)\n    {\n        return nftsDict[_nftNo].exists;\n    }\n\n    function getOwnerNFTInfo(address _owner)\n        public view\n        returns (uint256 nftNo, uint32 level)\n    {\n        nftNo = ownerVipNFT[_owner];\n        if (nftNo > 0){\n            level = nftsDict[nftNo].level;\n        } else {\n            level = 0;\n        }\n    }\n\n    function getOwnerNFTNo(address _owner)\n        public view\n        returns (uint256)\n    {\n        return ownerVipNFT[_owner];\n    }\n\n    function getNFTsLevelNum(uint32 _level)\n        public view\n        returns (uint256 lvNum)\n    {\n        lvNum = nftsLevelNum[_level];\n    }\n\n    function getNFTLevel(uint256 _nftNo)\n        public view\n        returns (uint32)\n    {\n        require (nftsDict[_nftNo].exists > 0, \"VipNFT: no exists\");\n        return nftsDict[_nftNo].level;\n    }\n\n    // \n    function getNFTExtraAddRate(uint256 _nftNo)\n        public view\n        returns (uint256 extraAddR)\n    {\n        extraAddR = 0;\n        if (_nftNo > 0 && nftsDict[_nftNo].exists > 0) {\n            extraAddR = vipLvConf[nftsDict[_nftNo].level].extraAddR;\n        }\n    }\n\n    function createNFT(address _to, uint32 _level)\n        public onlyAdmin\n        returns (uint256 nftNo)\n    {\n        // NFT\n        nftNumber++;\n\n        nftNo = nftNumber;\n        // carditem\n        nftsDict[nftNo] = CardItem(1, _level);\n        _safeMint(_to, nftNo);\n        ownerVipNFT[_to] = nftNo;\n\n        nftsLevelNum[_level] += 1;\n    }\n\n    // NFT\n    function levelupNFT(uint256 _nftNo, uint32 _newLevel)\n        public onlyAdmin\n    {\n        // \n        require (nftsDict[_nftNo].level + 1 == _newLevel, \"VipNFT, level error\");\n        nftsDict[_nftNo].level = _newLevel;\n        nftsLevelNum[_newLevel] += 1;\n        nftsLevelNum[_newLevel - 1] -= 1;\n        address nftOwner = ownerOf(_nftNo);\n        miningPool.updateStakeToken(nftOwner, vipLvConf[_newLevel].extraAddR);\n    }\n\n    // Admin\n    function addNFTLvConf(\n        uint32[] memory _levelList,\n        uint256[] memory _extraAddRList,\n        uint256[] memory _rewdBuyRList,\n        uint256[] memory _hTokenList\n    ) public onlyAdmin {\n        for (uint256 index = 0; index < _levelList.length; index++) {\n            vipLvConf[_levelList[index]] =\n                LvConf(\n                    1,\n                    _extraAddRList[index],\n                    _rewdBuyRList[index],\n                    _hTokenList[index]\n                );\n        }\n    }\n\n    function removeNFTLvConf(uint32 _level)\n        public onlyAdmin\n    {\n        delete vipLvConf[_level];\n    }\n\n    function setWhiteList(address _addr, uint8 _open)\n        public onlyAdmin\n    {\n        // _open > 0 0\n        whiteList[_addr] = _open;\n    }\n\n    function setMiningPool(INFTToMiningPool _pool)\n        public onlyAdmin\n    {\n        miningPool = _pool;\n    }\n\n}\n",
  "sourcePath": "/Users/xingchen/blockchain/joinswap/joinvipnft/contracts/VipNFT.sol",
  "compiler": {
    "name": "solc",
    "version": "0.8.3+commit.8d00100c.Emscripten.clang"
  },
  "schemaVersion": "3.3.4",
  "updatedAt": "2021-05-19T05:56:47.084Z",
  "networkType": "ethereum",
  "devdoc": {
    "kind": "dev",
    "methods": {
      "addAdmin(address)": {
        "details": "",
        "params": {
          "account": ""
        }
      },
      "allAdmins()": {
        "details": "",
        "returns": {
          "admins": ""
        }
      },
      "approve(address,uint256)": {
        "details": "See {IERC721-approve}."
      },
      "balanceOf(address)": {
        "details": "See {IERC721-balanceOf}."
      },
      "getApproved(uint256)": {
        "details": "See {IERC721-getApproved}."
      },
      "isAdmin(address)": {
        "details": "",
        "params": {
          "account": ""
        },
        "returns": {
          "_0": ""
        }
      },
      "isApprovedForAll(address,address)": {
        "details": "See {IERC721-isApprovedForAll}."
      },
      "name()": {
        "details": "See {IERC721Metadata-name}."
      },
      "ownerOf(uint256)": {
        "details": "See {IERC721-ownerOf}."
      },
      "removeAdmin(address)": {
        "details": "",
        "params": {
          "account": ""
        }
      },
      "renounceAdmin()": {
        "details": ""
      },
      "safeTransferFrom(address,address,uint256)": {
        "details": "See {IERC721-safeTransferFrom}."
      },
      "safeTransferFrom(address,address,uint256,bytes)": {
        "details": "See {IERC721-safeTransferFrom}."
      },
      "setApprovalForAll(address,bool)": {
        "details": "See {IERC721-setApprovalForAll}."
      },
      "supportsInterface(bytes4)": {
        "details": "See {IERC165-supportsInterface}."
      },
      "symbol()": {
        "details": "See {IERC721Metadata-symbol}."
      },
      "tokenURI(uint256)": {
        "details": "See {IERC721Metadata-tokenURI}."
      },
      "transferFrom(address,address,uint256)": {
        "details": "See {IERC721-transferFrom}."
      }
    },
    "version": 1
  },
  "userdoc": {
    "kind": "user",
    "methods": {},
    "version": 1
  }
}